{
  "transactions": [
    {
      "hash": "0xecae02e9b53471c2b0b2362cd419db5f4437f2753bbb83371cea665872c7b597",
      "transactionType": "CALL",
      "contractName": null,
      "contractAddress": "0x0b9d5d9136855f6fec3c0993fee6e9ce8a297846",
      "function": "transfer(address,uint256)",
      "arguments": [
        "0xF9A3a48710cb168a1C6155E9f6a20d0B2888752a",
        "7500000000000000000"
      ],
      "transaction": {
        "from": "0x7e8d7bfd6cc6b05d056f2e46860d95038f2e3234",
        "to": "0x0b9d5d9136855f6fec3c0993fee6e9ce8a297846",
        "gas": "0x1287c",
        "value": "0x0",
        "input": "0xa9059cbb000000000000000000000000f9a3a48710cb168a1c6155e9f6a20d0b2888752a00000000000000000000000000000000000000000000000068155a43676e0000",
        "nonce": "0x1f9",
        "chainId": "0xa869"
      },
      "additionalContracts": [],
      "isFixedGasLimit": false
    },
    {
      "hash": "0xff75bd651d1c93c2980205160a01cb831099fd44a9a8113320c00c2c07f2b6b9",
      "transactionType": "CALL",
      "contractName": null,
      "contractAddress": "0xd21341536c5cf5eb1bcb58f6723ce26e8d8e90e4",
      "function": "transfer(address,uint256)",
      "arguments": [
        "0xF9A3a48710cb168a1C6155E9f6a20d0B2888752a",
        "100000000000000000"
      ],
      "transaction": {
        "from": "0x7e8d7bfd6cc6b05d056f2e46860d95038f2e3234",
        "to": "0xd21341536c5cf5eb1bcb58f6723ce26e8d8e90e4",
        "gas": "0x1261d",
        "value": "0x0",
        "input": "0xa9059cbb000000000000000000000000f9a3a48710cb168a1c6155e9f6a20d0b2888752a000000000000000000000000000000000000000000000000016345785d8a0000",
        "nonce": "0x1fa",
        "chainId": "0xa869"
      },
      "additionalContracts": [],
      "isFixedGasLimit": false
    },
    {
      "hash": "0x0336264eb29372644d11009be913476118a19023e73021d69766e6450e20f598",
      "transactionType": "CALL",
      "contractName": null,
      "contractAddress": "0xf9a3a48710cb168a1c6155e9f6a20d0b2888752a",
      "function": "sendMessage(address,uint256,address)",
      "arguments": [
        "0x9Eec80b77607858b9A3b42DB02366f2961C12a14",
        "100000000000000000",
        "0x7E8d7BFd6cc6B05d056f2E46860D95038f2E3234"
      ],
      "transaction": {
        "from": "0x7e8d7bfd6cc6b05d056f2e46860d95038f2e3234",
        "to": "0xf9a3a48710cb168a1c6155e9f6a20d0b2888752a",
        "gas": "0x40ec2",
        "value": "0x0",
        "input": "0x6ad107920000000000000000000000009eec80b77607858b9a3b42db02366f2961c12a14000000000000000000000000000000000000000000000000016345785d8a00000000000000000000000000007e8d7bfd6cc6b05d056f2e46860d95038f2e3234",
        "nonce": "0x1fb",
        "chainId": "0xa869"
      },
      "additionalContracts": [],
      "isFixedGasLimit": false
    }
  ],
  "receipts": [
    {
      "status": "0x1",
      "cumulativeGasUsed": "0xcaba",
      "logs": [
        {
          "address": "0x0b9d5d9136855f6fec3c0993fee6e9ce8a297846",
          "topics": [
            "0xddf252ad1be2c89b69c2b068fc378daa952ba7f163c4a11628f55a4df523b3ef",
            "0x0000000000000000000000007e8d7bfd6cc6b05d056f2e46860d95038f2e3234",
            "0x000000000000000000000000f9a3a48710cb168a1c6155e9f6a20d0b2888752a"
          ],
          "data": "0x00000000000000000000000000000000000000000000000068155a43676e0000",
          "blockHash": "0xeef083d6a66a88815c4e22ad1dcba3c2990ed54b61236eef29771f3f6655f59b",
          "blockNumber": "0x229279a",
          "transactionHash": "0xecae02e9b53471c2b0b2362cd419db5f4437f2753bbb83371cea665872c7b597",
          "transactionIndex": "0x0",
          "logIndex": "0x0",
          "removed": false
        }
      ],
      "logsBloom": "0x01000000000000000000000000000000000000000000000000000000000000000000000000000000000000000000000000000000000000000000800000000000000000004000000000000008000000000000000000801000000000000000000000000000000000000000000000000000000000000000000000000010000000000000000000000000000000000000000000000000000000000000000000000000000000000000000200000000000000000000000000000000000000000000000000000002000000000000000000000000000000000000000808000000000000000000000000000000004000000000000000000000000000000000000000000000",
      "type": "0x2",
      "transactionHash": "0xecae02e9b53471c2b0b2362cd419db5f4437f2753bbb83371cea665872c7b597",
      "transactionIndex": "0x0",
      "blockHash": "0xeef083d6a66a88815c4e22ad1dcba3c2990ed54b61236eef29771f3f6655f59b",
      "blockNumber": "0x229279a",
      "gasUsed": "0xcaba",
      "effectiveGasPrice": "0x64247b740",
      "from": "0x7e8d7bfd6cc6b05d056f2e46860d95038f2e3234",
      "to": "0x0b9d5d9136855f6fec3c0993fee6e9ce8a297846",
      "contractAddress": null
    },
    {
      "status": "0x1",
      "cumulativeGasUsed": "0x193d5",
      "logs": [
        {
          "address": "0xd21341536c5cf5eb1bcb58f6723ce26e8d8e90e4",
          "topics": [
            "0xddf252ad1be2c89b69c2b068fc378daa952ba7f163c4a11628f55a4df523b3ef",
            "0x0000000000000000000000007e8d7bfd6cc6b05d056f2e46860d95038f2e3234",
            "0x000000000000000000000000f9a3a48710cb168a1c6155e9f6a20d0b2888752a"
          ],
          "data": "0x000000000000000000000000000000000000000000000000016345785d8a0000",
          "blockHash": "0xeef083d6a66a88815c4e22ad1dcba3c2990ed54b61236eef29771f3f6655f59b",
          "blockNumber": "0x229279a",
          "transactionHash": "0xff75bd651d1c93c2980205160a01cb831099fd44a9a8113320c00c2c07f2b6b9",
          "transactionIndex": "0x1",
          "logIndex": "0x1",
          "removed": false
        }
      ],
      "logsBloom": "0x00000000000000000000000000000000000000000000000000000000000000000000000000000000000000000000000000000000000000000000800000000000000000004000000000000008000000000000000000801000000000000000000000000000000000000000000000000000000000000000000000000010000000000000000000000000000000000000000000000000000000000000000000000000000000000000000000000000000000000000000000000000000000000000000000000002000000000000000000000000000001000000000008000000000000000000000000000000004000000000000000000000000000400000000000400000",
      "type": "0x2",
      "transactionHash": "0xff75bd651d1c93c2980205160a01cb831099fd44a9a8113320c00c2c07f2b6b9",
      "transactionIndex": "0x1",
      "blockHash": "0xeef083d6a66a88815c4e22ad1dcba3c2990ed54b61236eef29771f3f6655f59b",
      "blockNumber": "0x229279a",
      "gasUsed": "0xc91b",
      "effectiveGasPrice": "0x64247b740",
      "from": "0x7e8d7bfd6cc6b05d056f2e46860d95038f2e3234",
      "to": "0xd21341536c5cf5eb1bcb58f6723ce26e8d8e90e4",
      "contractAddress": null
    },
    {
      "status": "0x1",
      "cumulativeGasUsed": "0x4d19d",
      "logs": [
        {
          "address": "0x0b9d5d9136855f6fec3c0993fee6e9ce8a297846",
          "topics": [
            "0x8c5be1e5ebec7d5bd14f71427d1e84f3dd0314c0f7b2291e5b200ac8c7c3b925",
            "0x000000000000000000000000f9a3a48710cb168a1c6155e9f6a20d0b2888752a",
            "0x000000000000000000000000f694e193200268f9a4868e4aa017a0118c9a8177"
          ],
          "data": "0x0000000000000000000000000000000000000000000000004c2fb8623b7568d0",
          "blockHash": "0xeef083d6a66a88815c4e22ad1dcba3c2990ed54b61236eef29771f3f6655f59b",
          "blockNumber": "0x229279a",
          "transactionHash": "0x0336264eb29372644d11009be913476118a19023e73021d69766e6450e20f598",
          "transactionIndex": "0x2",
          "logIndex": "0x2",
          "removed": false
        },
        {
          "address": "0xd21341536c5cf5eb1bcb58f6723ce26e8d8e90e4",
          "topics": [
            "0x8c5be1e5ebec7d5bd14f71427d1e84f3dd0314c0f7b2291e5b200ac8c7c3b925",
            "0x000000000000000000000000f9a3a48710cb168a1c6155e9f6a20d0b2888752a",
            "0x000000000000000000000000f694e193200268f9a4868e4aa017a0118c9a8177"
          ],
          "data": "0x000000000000000000000000000000000000000000000000016345785d8a0000",
          "blockHash": "0xeef083d6a66a88815c4e22ad1dcba3c2990ed54b61236eef29771f3f6655f59b",
          "blockNumber": "0x229279a",
          "transactionHash": "0x0336264eb29372644d11009be913476118a19023e73021d69766e6450e20f598",
          "transactionIndex": "0x2",
          "logIndex": "0x3",
          "removed": false
        },
        {
          "address": "0x0b9d5d9136855f6fec3c0993fee6e9ce8a297846",
          "topics": [
            "0xddf252ad1be2c89b69c2b068fc378daa952ba7f163c4a11628f55a4df523b3ef",
            "0x000000000000000000000000f9a3a48710cb168a1c6155e9f6a20d0b2888752a",
            "0x00000000000000000000000075b9a75ee1ffef6be7c4f842a041de7c6153cf4e"
          ],
          "data": "0x0000000000000000000000000000000000000000000000004c2fb8623b7568d0",
          "blockHash": "0xeef083d6a66a88815c4e22ad1dcba3c2990ed54b61236eef29771f3f6655f59b",
          "blockNumber": "0x229279a",
          "transactionHash": "0x0336264eb29372644d11009be913476118a19023e73021d69766e6450e20f598",
          "transactionIndex": "0x2",
          "logIndex": "0x4",
          "removed": false
        },
        {
          "address": "0x75b9a75ee1ffef6be7c4f842a041de7c6153cf4e",
          "topics": [
            "0xd0c3c799bf9e2639de44391e7f524d229b2b55f5b1ea94b2bf7da42f7243dddd"
          ],
          "data": "0x0000000000000000000000000000000000000000000000000000000000000020000000000000000000000000000000000000000000000000ccf0a31a221f3c9b000000000000000000000000f9a3a48710cb168a1c6155e9f6a20d0b2888752a0000000000000000000000009eec80b77607858b9a3b42db02366f2961c12a14000000000000000000000000000000000000000000000000000000000000004f00000000000000000000000000000000000000000000000000000000000c3500000000000000000000000000000000000000000000000000000000000000000000000000000000000000000000000000000000000000000000000000000000010000000000000000000000000b9d5d9136855f6fec3c0993fee6e9ce8a2978460000000000000000000000000000000000000000000000004c2fb8623b7568d000000000000000000000000000000000000000000000000000000000000001a00000000000000000000000000000000000000000000000000000000000000240000000000000000000000000000000000000000000000000000000000000026042a4acf897b7588b5d3123c9997769f2c8097d15a2355311fbcca6734e0c02ee0000000000000000000000000000000000000000000000000000000000000064bbaa3c820000000000000000000000007e8d7bfd6cc6b05d056f2e46860d95038f2e3234000000000000000000000000000000000000000000000000016345785d8a0000000000000000000000000000f9a3a48710cb168a1c6155e9f6a20d0b2888752a0000000000000000000000000000000000000000000000000000000000000000000000000000000000000000000000000000000000000000000000000000000000000000000000000000000000000000000000000000000000000000",
          "blockHash": "0xeef083d6a66a88815c4e22ad1dcba3c2990ed54b61236eef29771f3f6655f59b",
          "blockNumber": "0x229279a",
          "transactionHash": "0x0336264eb29372644d11009be913476118a19023e73021d69766e6450e20f598",
          "transactionIndex": "0x2",
          "logIndex": "0x5",
          "removed": false
        }
      ],
      "logsBloom": "0x01000000000000000001000000000000000000000000000000000000000000000000000000000000000000000000000000000000000000000000800000200000000000000000000000000008000000000000000000000000000000000000000000000000000000000000000000000000000000000008000000000010000000000008000000000000000000000000000000000000000000000000000000000000020000000000000600000000000000000080000000000800000100100000000000000002000000000000000000000000000001000040000808000000000000000010000000000000004000000000000004000200000000400000000100400000",
      "type": "0x2",
      "transactionHash": "0x0336264eb29372644d11009be913476118a19023e73021d69766e6450e20f598",
      "transactionIndex": "0x2",
      "blockHash": "0xeef083d6a66a88815c4e22ad1dcba3c2990ed54b61236eef29771f3f6655f59b",
      "blockNumber": "0x229279a",
      "gasUsed": "0x33dc8",
      "effectiveGasPrice": "0x64247b740",
      "from": "0x7e8d7bfd6cc6b05d056f2e46860d95038f2e3234",
      "to": "0xf9a3a48710cb168a1c6155e9f6a20d0b2888752a",
      "contractAddress": null
    }
  ],
  "libraries": [],
  "pending": [],
  "returns": {},
  "timestamp": 1728634394,
  "chain": 43113,
  "commit": "90333d4"
}