{
  "transactions": [
    {
      "hash": "0xb4a7c70fa810f12d5ed4d5a5068742192274b15208801b1185f4e61cace2750c",
      "transactionType": "CALL",
      "contractName": null,
      "contractAddress": "0x0b9d5d9136855f6fec3c0993fee6e9ce8a297846",
      "function": "transfer(address,uint256)",
      "arguments": [
        "0xA8758E05861547d9598Ec023ad013333dc636DcD",
        "5000000000000000000"
      ],
      "transaction": {
        "from": "0x7e8d7bfd6cc6b05d056f2e46860d95038f2e3234",
        "to": "0x0b9d5d9136855f6fec3c0993fee6e9ce8a297846",
        "gas": "0xbbbf",
        "value": "0x0",
        "input": "0xa9059cbb000000000000000000000000a8758e05861547d9598ec023ad013333dc636dcd0000000000000000000000000000000000000000000000004563918244f40000",
        "nonce": "0x20b",
        "chainId": "0xa869"
      },
      "additionalContracts": [],
      "isFixedGasLimit": false
    },
    {
      "hash": "0xe2c4c9302e050f0d9efe77b3ba3cc6f95bd6c5593d4b91e4d890a61eb7f5f3f9",
      "transactionType": "CALL",
      "contractName": null,
      "contractAddress": "0xd21341536c5cf5eb1bcb58f6723ce26e8d8e90e4",
      "function": "transfer(address,uint256)",
      "arguments": [
        "0xA8758E05861547d9598Ec023ad013333dc636DcD",
        "10000000000000000"
      ],
      "transaction": {
        "from": "0x7e8d7bfd6cc6b05d056f2e46860d95038f2e3234",
        "to": "0xd21341536c5cf5eb1bcb58f6723ce26e8d8e90e4",
        "gas": "0x115b5",
        "value": "0x0",
        "input": "0xa9059cbb000000000000000000000000a8758e05861547d9598ec023ad013333dc636dcd000000000000000000000000000000000000000000000000002386f26fc10000",
        "nonce": "0x20c",
        "chainId": "0xa869"
      },
      "additionalContracts": [],
      "isFixedGasLimit": false
    },
    {
      "hash": "0xb2f593fa9e87f94434b3a6d4417b747639cd5c29d0dddc0b22d2bc0ba64413e1",
      "transactionType": "CALL",
      "contractName": null,
      "contractAddress": "0xa8758e05861547d9598ec023ad013333dc636dcd",
      "function": "sendMessage(address,uint256,address)",
      "arguments": [
        "0x270831C0550ac9c5619E26238Ac9BFA02e2392Eb",
        "10000000000000000",
        "0x7E8d7BFd6cc6B05d056f2E46860D95038f2E3234"
      ],
      "transaction": {
        "from": "0x7e8d7bfd6cc6b05d056f2e46860d95038f2e3234",
        "to": "0xa8758e05861547d9598ec023ad013333dc636dcd",
        "gas": "0x5a2e8",
        "value": "0x0",
        "input": "0x6ad10792000000000000000000000000270831c0550ac9c5619e26238ac9bfa02e2392eb000000000000000000000000000000000000000000000000002386f26fc100000000000000000000000000007e8d7bfd6cc6b05d056f2e46860d95038f2e3234",
        "nonce": "0x20d",
        "chainId": "0xa869"
      },
      "additionalContracts": [],
      "isFixedGasLimit": false
    }
  ],
  "receipts": [
    {
      "status": "0x1",
      "cumulativeGasUsed": "0x87ee",
      "logs": [
        {
          "address": "0x0b9d5d9136855f6fec3c0993fee6e9ce8a297846",
          "topics": [
            "0xddf252ad1be2c89b69c2b068fc378daa952ba7f163c4a11628f55a4df523b3ef",
            "0x0000000000000000000000007e8d7bfd6cc6b05d056f2e46860d95038f2e3234",
            "0x000000000000000000000000a8758e05861547d9598ec023ad013333dc636dcd"
          ],
          "data": "0x0000000000000000000000000000000000000000000000004563918244f40000",
          "blockHash": "0xcfa117822441001e09610cf3403d20d9be7cb23e2ebd5fac71ad5008348934b3",
          "blockNumber": "0x2293be4",
          "transactionHash": "0xb4a7c70fa810f12d5ed4d5a5068742192274b15208801b1185f4e61cace2750c",
          "transactionIndex": "0x0",
          "logIndex": "0x0",
          "removed": false
        }
      ],
      "logsBloom": "0x01000000000000000200000000000000000000000000000000000000000000000000000000000000000000000000000000000000000000000000000000000000000000004000000000000008000000000000000000801000000000000000000000000000000000000000000000000000000000000000000000000010000000000000000000000000000000000000000000000000000000000000000000000200040000000000000200000000000000000000000000000000000000000000000000000002000000000000000000000000000000000000000800000000000000000000000000000000000000000000000000000000000000000000000000000000",
      "type": "0x2",
      "transactionHash": "0xb4a7c70fa810f12d5ed4d5a5068742192274b15208801b1185f4e61cace2750c",
      "transactionIndex": "0x0",
      "blockHash": "0xcfa117822441001e09610cf3403d20d9be7cb23e2ebd5fac71ad5008348934b3",
      "blockNumber": "0x2293be4",
      "gasUsed": "0x87ee",
      "effectiveGasPrice": "0x62b85e900",
      "from": "0x7e8d7bfd6cc6b05d056f2e46860d95038f2e3234",
      "to": "0x0b9d5d9136855f6fec3c0993fee6e9ce8a297846",
      "contractAddress": null
    },
    {
      "status": "0x1",
      "cumulativeGasUsed": "0x150fd",
      "logs": [
        {
          "address": "0xd21341536c5cf5eb1bcb58f6723ce26e8d8e90e4",
          "topics": [
            "0xddf252ad1be2c89b69c2b068fc378daa952ba7f163c4a11628f55a4df523b3ef",
            "0x0000000000000000000000007e8d7bfd6cc6b05d056f2e46860d95038f2e3234",
            "0x000000000000000000000000a8758e05861547d9598ec023ad013333dc636dcd"
          ],
          "data": "0x000000000000000000000000000000000000000000000000002386f26fc10000",
          "blockHash": "0xcfa117822441001e09610cf3403d20d9be7cb23e2ebd5fac71ad5008348934b3",
          "blockNumber": "0x2293be4",
          "transactionHash": "0xe2c4c9302e050f0d9efe77b3ba3cc6f95bd6c5593d4b91e4d890a61eb7f5f3f9",
          "transactionIndex": "0x1",
          "logIndex": "0x1",
          "removed": false
        }
      ],
      "logsBloom": "0x00000000000000000200000000000000000000000000000000000000000000000000000000000000000000000000000000000000000000000000000000000000000000004000000000000008000000000000000000801000000000000000000000000000000000000000000000000000000000000000000000000010000000000000000000000000000000000000000000000000000000000000000000000200040000000000000000000000000000000000000000000000000000000000000000000002000000000000000000000000000001000000000000000000000000000000000000000000000000000000000000000000000000400000000000400000",
      "type": "0x2",
      "transactionHash": "0xe2c4c9302e050f0d9efe77b3ba3cc6f95bd6c5593d4b91e4d890a61eb7f5f3f9",
      "transactionIndex": "0x1",
      "blockHash": "0xcfa117822441001e09610cf3403d20d9be7cb23e2ebd5fac71ad5008348934b3",
      "blockNumber": "0x2293be4",
      "gasUsed": "0xc90f",
      "effectiveGasPrice": "0x62b85e900",
      "from": "0x7e8d7bfd6cc6b05d056f2e46860d95038f2e3234",
      "to": "0xd21341536c5cf5eb1bcb58f6723ce26e8d8e90e4",
      "contractAddress": null
    },
    {
      "status": "0x1",
      "cumulativeGasUsed": "0x519cd",
      "logs": [
        {
          "address": "0x0b9d5d9136855f6fec3c0993fee6e9ce8a297846",
          "topics": [
            "0x8c5be1e5ebec7d5bd14f71427d1e84f3dd0314c0f7b2291e5b200ac8c7c3b925",
            "0x000000000000000000000000a8758e05861547d9598ec023ad013333dc636dcd",
            "0x000000000000000000000000f694e193200268f9a4868e4aa017a0118c9a8177"
          ],
          "data": "0x00000000000000000000000000000000000000000000000019a3a90be93d0037",
          "blockHash": "0xa9e464a2140770671a99812499918b769c6ac510bf797f6cb71d946b13aa069c",
          "blockNumber": "0x2293be5",
          "transactionHash": "0xb2f593fa9e87f94434b3a6d4417b747639cd5c29d0dddc0b22d2bc0ba64413e1",
          "transactionIndex": "0x0",
          "logIndex": "0x0",
          "removed": false
        },
        {
          "address": "0xd21341536c5cf5eb1bcb58f6723ce26e8d8e90e4",
          "topics": [
            "0x8c5be1e5ebec7d5bd14f71427d1e84f3dd0314c0f7b2291e5b200ac8c7c3b925",
            "0x000000000000000000000000a8758e05861547d9598ec023ad013333dc636dcd",
            "0x000000000000000000000000f694e193200268f9a4868e4aa017a0118c9a8177"
          ],
          "data": "0x000000000000000000000000000000000000000000000000002386f26fc10000",
          "blockHash": "0xa9e464a2140770671a99812499918b769c6ac510bf797f6cb71d946b13aa069c",
          "blockNumber": "0x2293be5",
          "transactionHash": "0xb2f593fa9e87f94434b3a6d4417b747639cd5c29d0dddc0b22d2bc0ba64413e1",
          "transactionIndex": "0x0",
          "logIndex": "0x1",
          "removed": false
        },
        {
          "address": "0x0b9d5d9136855f6fec3c0993fee6e9ce8a297846",
          "topics": [
            "0xddf252ad1be2c89b69c2b068fc378daa952ba7f163c4a11628f55a4df523b3ef",
            "0x000000000000000000000000a8758e05861547d9598ec023ad013333dc636dcd",
            "0x00000000000000000000000075b9a75ee1ffef6be7c4f842a041de7c6153cf4e"
          ],
          "data": "0x00000000000000000000000000000000000000000000000019a3a90be93d0037",
          "blockHash": "0xa9e464a2140770671a99812499918b769c6ac510bf797f6cb71d946b13aa069c",
          "blockNumber": "0x2293be5",
          "transactionHash": "0xb2f593fa9e87f94434b3a6d4417b747639cd5c29d0dddc0b22d2bc0ba64413e1",
          "transactionIndex": "0x0",
          "logIndex": "0x2",
          "removed": false
        },
        {
          "address": "0xd21341536c5cf5eb1bcb58f6723ce26e8d8e90e4",
          "topics": [
            "0x8c5be1e5ebec7d5bd14f71427d1e84f3dd0314c0f7b2291e5b200ac8c7c3b925",
            "0x000000000000000000000000a8758e05861547d9598ec023ad013333dc636dcd",
            "0x000000000000000000000000f694e193200268f9a4868e4aa017a0118c9a8177"
          ],
          "data": "0x0000000000000000000000000000000000000000000000000000000000000000",
          "blockHash": "0xa9e464a2140770671a99812499918b769c6ac510bf797f6cb71d946b13aa069c",
          "blockNumber": "0x2293be5",
          "transactionHash": "0xb2f593fa9e87f94434b3a6d4417b747639cd5c29d0dddc0b22d2bc0ba64413e1",
          "transactionIndex": "0x0",
          "logIndex": "0x3",
          "removed": false
        },
        {
          "address": "0xd21341536c5cf5eb1bcb58f6723ce26e8d8e90e4",
          "topics": [
            "0xddf252ad1be2c89b69c2b068fc378daa952ba7f163c4a11628f55a4df523b3ef",
            "0x000000000000000000000000a8758e05861547d9598ec023ad013333dc636dcd",
            "0x000000000000000000000000960a399deb6c3475fbc62c16e7588b1bf1f95ae6"
          ],
          "data": "0x000000000000000000000000000000000000000000000000002386f26fc10000",
          "blockHash": "0xa9e464a2140770671a99812499918b769c6ac510bf797f6cb71d946b13aa069c",
          "blockNumber": "0x2293be5",
          "transactionHash": "0xb2f593fa9e87f94434b3a6d4417b747639cd5c29d0dddc0b22d2bc0ba64413e1",
          "transactionIndex": "0x0",
          "logIndex": "0x4",
          "removed": false
        },
        {
          "address": "0x960a399deb6c3475fbc62c16e7588b1bf1f95ae6",
          "topics": [
            "0x1871cdf8010e63f2eb8384381a68dfa7416dc571a5517e66e88b2d2d0c0a690a"
          ],
          "data": "0x000000000000000000000000000000000000000000000000002386f26fc10000",
          "blockHash": "0xa9e464a2140770671a99812499918b769c6ac510bf797f6cb71d946b13aa069c",
          "blockNumber": "0x2293be5",
          "transactionHash": "0xb2f593fa9e87f94434b3a6d4417b747639cd5c29d0dddc0b22d2bc0ba64413e1",
          "transactionIndex": "0x0",
          "logIndex": "0x5",
          "removed": false
        },
        {
          "address": "0xd21341536c5cf5eb1bcb58f6723ce26e8d8e90e4",
          "topics": [
            "0xddf252ad1be2c89b69c2b068fc378daa952ba7f163c4a11628f55a4df523b3ef",
            "0x000000000000000000000000960a399deb6c3475fbc62c16e7588b1bf1f95ae6",
            "0x000000000000000000000000ec1062cbdf4fbf31b3a6aac62b6f6f123bb70e12"
          ],
          "data": "0x000000000000000000000000000000000000000000000000002386f26fc10000",
          "blockHash": "0xa9e464a2140770671a99812499918b769c6ac510bf797f6cb71d946b13aa069c",
          "blockNumber": "0x2293be5",
          "transactionHash": "0xb2f593fa9e87f94434b3a6d4417b747639cd5c29d0dddc0b22d2bc0ba64413e1",
          "transactionIndex": "0x0",
          "logIndex": "0x6",
          "removed": false
        },
        {
          "address": "0xd21341536c5cf5eb1bcb58f6723ce26e8d8e90e4",
          "topics": [
            "0xddf252ad1be2c89b69c2b068fc378daa952ba7f163c4a11628f55a4df523b3ef",
            "0x000000000000000000000000ec1062cbdf4fbf31b3a6aac62b6f6f123bb70e12",
            "0x0000000000000000000000000000000000000000000000000000000000000000"
          ],
          "data": "0x000000000000000000000000000000000000000000000000002386f26fc10000",
          "blockHash": "0xa9e464a2140770671a99812499918b769c6ac510bf797f6cb71d946b13aa069c",
          "blockNumber": "0x2293be5",
          "transactionHash": "0xb2f593fa9e87f94434b3a6d4417b747639cd5c29d0dddc0b22d2bc0ba64413e1",
          "transactionIndex": "0x0",
          "logIndex": "0x7",
          "removed": false
        },
        {
          "address": "0xec1062cbdf4fbf31b3a6aac62b6f6f123bb70e12",
          "topics": [
            "0x696de425f79f4a40bc6d2122ca50507f0efbeabbff86a84871b7196ab8ea8df7",
            "0x000000000000000000000000960a399deb6c3475fbc62c16e7588b1bf1f95ae6"
          ],
          "data": "0x000000000000000000000000000000000000000000000000002386f26fc10000",
          "blockHash": "0xa9e464a2140770671a99812499918b769c6ac510bf797f6cb71d946b13aa069c",
          "blockNumber": "0x2293be5",
          "transactionHash": "0xb2f593fa9e87f94434b3a6d4417b747639cd5c29d0dddc0b22d2bc0ba64413e1",
          "transactionIndex": "0x0",
          "logIndex": "0x8",
          "removed": false
        },
        {
          "address": "0x960a399deb6c3475fbc62c16e7588b1bf1f95ae6",
          "topics": [
            "0x696de425f79f4a40bc6d2122ca50507f0efbeabbff86a84871b7196ab8ea8df7",
            "0x00000000000000000000000075b9a75ee1ffef6be7c4f842a041de7c6153cf4e"
          ],
          "data": "0x000000000000000000000000000000000000000000000000002386f26fc10000",
          "blockHash": "0xa9e464a2140770671a99812499918b769c6ac510bf797f6cb71d946b13aa069c",
          "blockNumber": "0x2293be5",
          "transactionHash": "0xb2f593fa9e87f94434b3a6d4417b747639cd5c29d0dddc0b22d2bc0ba64413e1",
          "transactionIndex": "0x0",
          "logIndex": "0x9",
          "removed": false
        },
        {
          "address": "0x75b9a75ee1ffef6be7c4f842a041de7c6153cf4e",
          "topics": [
            "0xd0c3c799bf9e2639de44391e7f524d229b2b55f5b1ea94b2bf7da42f7243dddd"
          ],
          "data": "0x0000000000000000000000000000000000000000000000000000000000000020000000000000000000000000000000000000000000000000ccf0a31a221f3c9b000000000000000000000000a8758e05861547d9598ec023ad013333dc636dcd000000000000000000000000270831c0550ac9c5619e26238ac9bfa02e2392eb000000000000000000000000000000000000000000000000000000000000005800000000000000000000000000000000000000000000000000000000000aae60000000000000000000000000000000000000000000000000000000000000000000000000000000000000000000000000000000000000000000000000000000020000000000000000000000000b9d5d9136855f6fec3c0993fee6e9ce8a29784600000000000000000000000000000000000000000000000019a3a90be93d003700000000000000000000000000000000000000000000000000000000000001a0000000000000000000000000000000000000000000000000000000000000024000000000000000000000000000000000000000000000000000000000000002a0e52d98949dccd3d6474ce0536aecf9c436292e382aee840d76b9ec68abaf0e8f0000000000000000000000000000000000000000000000000000000000000064bbaa3c820000000000000000000000007e8d7bfd6cc6b05d056f2e46860d95038f2e3234000000000000000000000000000000000000000000000000002386f26fc10000000000000000000000000000a8758e05861547d9598ec023ad013333dc636dcd000000000000000000000000000000000000000000000000000000000000000000000000000000000000000000000000000000000000000000000001000000000000000000000000d21341536c5cf5eb1bcb58f6723ce26e8d8e90e4000000000000000000000000000000000000000000000000002386f26fc100000000000000000000000000000000000000000000000000000000000000000001000000000000000000000000000000000000000000000000000000000000002000000000000000000000000000000000000000000000000000000000000001400000000000000000000000000000000000000000000000000000000000000020000000000000000000000000000000000000000000000000000000000000008000000000000000000000000000000000000000000000000000000000000000c000000000000000000000000000000000000000000000000000000000000001000000000000000000000000000000000000000000000000000000000000015f900000000000000000000000000000000000000000000000000000000000000020000000000000000000000000960a399deb6c3475fbc62c16e7588b1bf1f95ae60000000000000000000000000000000000000000000000000000000000000020000000000000000000000000fd57b4ddbf88a4e07ff4e34c487b99af2fe82a050000000000000000000000000000000000000000000000000000000000000000",
          "blockHash": "0xa9e464a2140770671a99812499918b769c6ac510bf797f6cb71d946b13aa069c",
          "blockNumber": "0x2293be5",
          "transactionHash": "0xb2f593fa9e87f94434b3a6d4417b747639cd5c29d0dddc0b22d2bc0ba64413e1",
          "transactionIndex": "0x0",
          "logIndex": "0xa",
          "removed": false
        }
      ],
      "logsBloom": "0x010000000c0000000201000000000000000000000000000000000000000000000000000010000000002000000000000000000000000000000000000000200000000000000000020000000008000002000000000000000000000000000000000000002000060000000000004000000802040000000008000000000010000000100008000000000000000000000000000000000000000000000000000000000200064000000000000600000000000040000080000400000800000101100000000000000002000000000000000000000000000001000040000800400000000020000010000000000000000000000000000004000200000000400000000100400000",
      "type": "0x2",
      "transactionHash": "0xb2f593fa9e87f94434b3a6d4417b747639cd5c29d0dddc0b22d2bc0ba64413e1",
      "transactionIndex": "0x0",
      "blockHash": "0xa9e464a2140770671a99812499918b769c6ac510bf797f6cb71d946b13aa069c",
      "blockNumber": "0x2293be5",
      "gasUsed": "0x519cd",
      "effectiveGasPrice": "0x62b85e900",
      "from": "0x7e8d7bfd6cc6b05d056f2e46860d95038f2e3234",
      "to": "0xa8758e05861547d9598ec023ad013333dc636dcd",
      "contractAddress": null
    }
  ],
  "libraries": [],
  "pending": [],
  "returns": {},
  "timestamp": 1728672329,
  "chain": 43113,
  "commit": "90333d4"
}