{
  "transactions": [
    {
      "hash": "0xa2f5781efd40ba9c5e4178e9284703f754cdce1c8fe2b69dae057dcdd7a9a610",
      "transactionType": "CALL",
      "contractName": null,
      "contractAddress": "0x0b9d5d9136855f6fec3c0993fee6e9ce8a297846",
      "function": "transfer(address,uint256)",
      "arguments": [
        "0x5Ad4629f06c2f3ad386C90bb26714603dB22F883",
        "7000000000000000000"
      ],
      "transaction": {
        "from": "0x7e8d7bfd6cc6b05d056f2e46860d95038f2e3234",
        "to": "0x0b9d5d9136855f6fec3c0993fee6e9ce8a297846",
        "gas": "0x1287c",
        "value": "0x0",
        "input": "0xa9059cbb0000000000000000000000005ad4629f06c2f3ad386c90bb26714603db22f8830000000000000000000000000000000000000000000000006124fee993bc0000",
        "nonce": "0x20f",
        "chainId": "0xa869"
      },
      "additionalContracts": [],
      "isFixedGasLimit": false
    },
    {
      "hash": "0x809461ed6b6036c93cbcc047936feeb17ed18b3f4df8181370e887cec35433cf",
      "transactionType": "CALL",
      "contractName": null,
      "contractAddress": "0xd21341536c5cf5eb1bcb58f6723ce26e8d8e90e4",
      "function": "transfer(address,uint256)",
      "arguments": [
        "0x5Ad4629f06c2f3ad386C90bb26714603dB22F883",
        "20000000000000000"
      ],
      "transaction": {
        "from": "0x7e8d7bfd6cc6b05d056f2e46860d95038f2e3234",
        "to": "0xd21341536c5cf5eb1bcb58f6723ce26e8d8e90e4",
        "gas": "0x115b5",
        "value": "0x0",
        "input": "0xa9059cbb0000000000000000000000005ad4629f06c2f3ad386c90bb26714603db22f88300000000000000000000000000000000000000000000000000470de4df820000",
        "nonce": "0x210",
        "chainId": "0xa869"
      },
      "additionalContracts": [],
      "isFixedGasLimit": false
    },
    {
      "hash": "0x1d0cc765c225706a0f685ba8b4bdd7f346cdbdbb5de3e0af49a9d1a1c39b6bec",
      "transactionType": "CALL",
      "contractName": null,
      "contractAddress": "0x5ad4629f06c2f3ad386c90bb26714603db22f883",
      "function": "sendMessage(address,uint256,address)",
      "arguments": [
        "0x1318c3f12Ce0475989e5634B483136557785C10d",
        "20000000000000000",
        "0x7E8d7BFd6cc6B05d056f2E46860D95038f2E3234"
      ],
      "transaction": {
        "from": "0x7e8d7bfd6cc6b05d056f2e46860d95038f2e3234",
        "to": "0x5ad4629f06c2f3ad386c90bb26714603db22f883",
        "gas": "0x6068d",
        "value": "0x0",
        "input": "0x6ad107920000000000000000000000001318c3f12ce0475989e5634b483136557785c10d00000000000000000000000000000000000000000000000000470de4df8200000000000000000000000000007e8d7bfd6cc6b05d056f2e46860d95038f2e3234",
        "nonce": "0x211",
        "chainId": "0xa869"
      },
      "additionalContracts": [],
      "isFixedGasLimit": false
    }
  ],
  "receipts": [
    {
      "status": "0x1",
      "cumulativeGasUsed": "0xcaba",
      "logs": [
        {
          "address": "0x0b9d5d9136855f6fec3c0993fee6e9ce8a297846",
          "topics": [
            "0xddf252ad1be2c89b69c2b068fc378daa952ba7f163c4a11628f55a4df523b3ef",
            "0x0000000000000000000000007e8d7bfd6cc6b05d056f2e46860d95038f2e3234",
            "0x0000000000000000000000005ad4629f06c2f3ad386c90bb26714603db22f883"
          ],
          "data": "0x0000000000000000000000000000000000000000000000006124fee993bc0000",
          "blockHash": "0xdd7d875ac11408ba1c9055d9cfee6265ea8a03a0f4d886d397d53444f71d9e78",
          "blockNumber": "0x2293c26",
          "transactionHash": "0xa2f5781efd40ba9c5e4178e9284703f754cdce1c8fe2b69dae057dcdd7a9a610",
          "transactionIndex": "0x0",
          "logIndex": "0x0",
          "removed": false
        }
      ],
      "logsBloom": "0x01000000000000000000000000000000000000000000000000000000000000000000000000000000000000000000000000000000000000000000000000000000000000004000000000000008000000000000000000801000000000000000000000000000000000000000000000000000000000000000000000000010000000000000000000000000000000000000000000000000000000000000000000000000000000000000004200000000000000000000008000000000000000000000000000000002000000000000000000000000000000000000000810000000000000000000000000000000000000000000000000000000000000000000000000000000",
      "type": "0x2",
      "transactionHash": "0xa2f5781efd40ba9c5e4178e9284703f754cdce1c8fe2b69dae057dcdd7a9a610",
      "transactionIndex": "0x0",
      "blockHash": "0xdd7d875ac11408ba1c9055d9cfee6265ea8a03a0f4d886d397d53444f71d9e78",
      "blockNumber": "0x2293c26",
      "gasUsed": "0xcaba",
      "effectiveGasPrice": "0x62b85e900",
      "from": "0x7e8d7bfd6cc6b05d056f2e46860d95038f2e3234",
      "to": "0x0b9d5d9136855f6fec3c0993fee6e9ce8a297846",
      "contractAddress": null
    },
    {
      "status": "0x1",
      "cumulativeGasUsed": "0x193c9",
      "logs": [
        {
          "address": "0xd21341536c5cf5eb1bcb58f6723ce26e8d8e90e4",
          "topics": [
            "0xddf252ad1be2c89b69c2b068fc378daa952ba7f163c4a11628f55a4df523b3ef",
            "0x0000000000000000000000007e8d7bfd6cc6b05d056f2e46860d95038f2e3234",
            "0x0000000000000000000000005ad4629f06c2f3ad386c90bb26714603db22f883"
          ],
          "data": "0x00000000000000000000000000000000000000000000000000470de4df820000",
          "blockHash": "0xdd7d875ac11408ba1c9055d9cfee6265ea8a03a0f4d886d397d53444f71d9e78",
          "blockNumber": "0x2293c26",
          "transactionHash": "0x809461ed6b6036c93cbcc047936feeb17ed18b3f4df8181370e887cec35433cf",
          "transactionIndex": "0x1",
          "logIndex": "0x1",
          "removed": false
        }
      ],
      "logsBloom": "0x00000000000000000000000000000000000000000000000000000000000000000000000000000000000000000000000000000000000000000000000000000000000000004000000000000008000000000000000000801000000000000000000000000000000000000000000000000000000000000000000000000010000000000000000000000000000000000000000000000000000000000000000000000000000000000000004000000000000000000000008000000000000000000000000000000002000000000000000000000000000001000000000010000000000000000000000000000000000000000000000000000000000000400000000000400000",
      "type": "0x2",
      "transactionHash": "0x809461ed6b6036c93cbcc047936feeb17ed18b3f4df8181370e887cec35433cf",
      "transactionIndex": "0x1",
      "blockHash": "0xdd7d875ac11408ba1c9055d9cfee6265ea8a03a0f4d886d397d53444f71d9e78",
      "blockNumber": "0x2293c26",
      "gasUsed": "0xc90f",
      "effectiveGasPrice": "0x62b85e900",
      "from": "0x7e8d7bfd6cc6b05d056f2e46860d95038f2e3234",
      "to": "0xd21341536c5cf5eb1bcb58f6723ce26e8d8e90e4",
      "contractAddress": null
    },
    {
      "status": "0x1",
      "cumulativeGasUsed": "0x707c3",
      "logs": [
        {
          "address": "0x0b9d5d9136855f6fec3c0993fee6e9ce8a297846",
          "topics": [
            "0x8c5be1e5ebec7d5bd14f71427d1e84f3dd0314c0f7b2291e5b200ac8c7c3b925",
            "0x0000000000000000000000005ad4629f06c2f3ad386c90bb26714603db22f883",
            "0x000000000000000000000000f694e193200268f9a4868e4aa017a0118c9a8177"
          ],
          "data": "0x0000000000000000000000000000000000000000000000001a16517d87dde225",
          "blockHash": "0xdd7d875ac11408ba1c9055d9cfee6265ea8a03a0f4d886d397d53444f71d9e78",
          "blockNumber": "0x2293c26",
          "transactionHash": "0x1d0cc765c225706a0f685ba8b4bdd7f346cdbdbb5de3e0af49a9d1a1c39b6bec",
          "transactionIndex": "0x2",
          "logIndex": "0x2",
          "removed": false
        },
        {
          "address": "0xd21341536c5cf5eb1bcb58f6723ce26e8d8e90e4",
          "topics": [
            "0x8c5be1e5ebec7d5bd14f71427d1e84f3dd0314c0f7b2291e5b200ac8c7c3b925",
            "0x0000000000000000000000005ad4629f06c2f3ad386c90bb26714603db22f883",
            "0x000000000000000000000000f694e193200268f9a4868e4aa017a0118c9a8177"
          ],
          "data": "0x00000000000000000000000000000000000000000000000000470de4df820000",
          "blockHash": "0xdd7d875ac11408ba1c9055d9cfee6265ea8a03a0f4d886d397d53444f71d9e78",
          "blockNumber": "0x2293c26",
          "transactionHash": "0x1d0cc765c225706a0f685ba8b4bdd7f346cdbdbb5de3e0af49a9d1a1c39b6bec",
          "transactionIndex": "0x2",
          "logIndex": "0x3",
          "removed": false
        },
        {
          "address": "0x0b9d5d9136855f6fec3c0993fee6e9ce8a297846",
          "topics": [
            "0xddf252ad1be2c89b69c2b068fc378daa952ba7f163c4a11628f55a4df523b3ef",
            "0x0000000000000000000000005ad4629f06c2f3ad386c90bb26714603db22f883",
            "0x00000000000000000000000075b9a75ee1ffef6be7c4f842a041de7c6153cf4e"
          ],
          "data": "0x0000000000000000000000000000000000000000000000001a16517d87dde225",
          "blockHash": "0xdd7d875ac11408ba1c9055d9cfee6265ea8a03a0f4d886d397d53444f71d9e78",
          "blockNumber": "0x2293c26",
          "transactionHash": "0x1d0cc765c225706a0f685ba8b4bdd7f346cdbdbb5de3e0af49a9d1a1c39b6bec",
          "transactionIndex": "0x2",
          "logIndex": "0x4",
          "removed": false
        },
        {
          "address": "0xd21341536c5cf5eb1bcb58f6723ce26e8d8e90e4",
          "topics": [
            "0x8c5be1e5ebec7d5bd14f71427d1e84f3dd0314c0f7b2291e5b200ac8c7c3b925",
            "0x0000000000000000000000005ad4629f06c2f3ad386c90bb26714603db22f883",
            "0x000000000000000000000000f694e193200268f9a4868e4aa017a0118c9a8177"
          ],
          "data": "0x0000000000000000000000000000000000000000000000000000000000000000",
          "blockHash": "0xdd7d875ac11408ba1c9055d9cfee6265ea8a03a0f4d886d397d53444f71d9e78",
          "blockNumber": "0x2293c26",
          "transactionHash": "0x1d0cc765c225706a0f685ba8b4bdd7f346cdbdbb5de3e0af49a9d1a1c39b6bec",
          "transactionIndex": "0x2",
          "logIndex": "0x5",
          "removed": false
        },
        {
          "address": "0xd21341536c5cf5eb1bcb58f6723ce26e8d8e90e4",
          "topics": [
            "0xddf252ad1be2c89b69c2b068fc378daa952ba7f163c4a11628f55a4df523b3ef",
            "0x0000000000000000000000005ad4629f06c2f3ad386c90bb26714603db22f883",
            "0x000000000000000000000000960a399deb6c3475fbc62c16e7588b1bf1f95ae6"
          ],
          "data": "0x00000000000000000000000000000000000000000000000000470de4df820000",
          "blockHash": "0xdd7d875ac11408ba1c9055d9cfee6265ea8a03a0f4d886d397d53444f71d9e78",
          "blockNumber": "0x2293c26",
          "transactionHash": "0x1d0cc765c225706a0f685ba8b4bdd7f346cdbdbb5de3e0af49a9d1a1c39b6bec",
          "transactionIndex": "0x2",
          "logIndex": "0x6",
          "removed": false
        },
        {
          "address": "0x960a399deb6c3475fbc62c16e7588b1bf1f95ae6",
          "topics": [
            "0x1871cdf8010e63f2eb8384381a68dfa7416dc571a5517e66e88b2d2d0c0a690a"
          ],
          "data": "0x00000000000000000000000000000000000000000000000000470de4df820000",
          "blockHash": "0xdd7d875ac11408ba1c9055d9cfee6265ea8a03a0f4d886d397d53444f71d9e78",
          "blockNumber": "0x2293c26",
          "transactionHash": "0x1d0cc765c225706a0f685ba8b4bdd7f346cdbdbb5de3e0af49a9d1a1c39b6bec",
          "transactionIndex": "0x2",
          "logIndex": "0x7",
          "removed": false
        },
        {
          "address": "0xd21341536c5cf5eb1bcb58f6723ce26e8d8e90e4",
          "topics": [
            "0xddf252ad1be2c89b69c2b068fc378daa952ba7f163c4a11628f55a4df523b3ef",
            "0x000000000000000000000000960a399deb6c3475fbc62c16e7588b1bf1f95ae6",
            "0x000000000000000000000000ec1062cbdf4fbf31b3a6aac62b6f6f123bb70e12"
          ],
          "data": "0x00000000000000000000000000000000000000000000000000470de4df820000",
          "blockHash": "0xdd7d875ac11408ba1c9055d9cfee6265ea8a03a0f4d886d397d53444f71d9e78",
          "blockNumber": "0x2293c26",
          "transactionHash": "0x1d0cc765c225706a0f685ba8b4bdd7f346cdbdbb5de3e0af49a9d1a1c39b6bec",
          "transactionIndex": "0x2",
          "logIndex": "0x8",
          "removed": false
        },
        {
          "address": "0xd21341536c5cf5eb1bcb58f6723ce26e8d8e90e4",
          "topics": [
            "0xddf252ad1be2c89b69c2b068fc378daa952ba7f163c4a11628f55a4df523b3ef",
            "0x000000000000000000000000ec1062cbdf4fbf31b3a6aac62b6f6f123bb70e12",
            "0x0000000000000000000000000000000000000000000000000000000000000000"
          ],
          "data": "0x00000000000000000000000000000000000000000000000000470de4df820000",
          "blockHash": "0xdd7d875ac11408ba1c9055d9cfee6265ea8a03a0f4d886d397d53444f71d9e78",
          "blockNumber": "0x2293c26",
          "transactionHash": "0x1d0cc765c225706a0f685ba8b4bdd7f346cdbdbb5de3e0af49a9d1a1c39b6bec",
          "transactionIndex": "0x2",
          "logIndex": "0x9",
          "removed": false
        },
        {
          "address": "0xec1062cbdf4fbf31b3a6aac62b6f6f123bb70e12",
          "topics": [
            "0x696de425f79f4a40bc6d2122ca50507f0efbeabbff86a84871b7196ab8ea8df7",
            "0x000000000000000000000000960a399deb6c3475fbc62c16e7588b1bf1f95ae6"
          ],
          "data": "0x00000000000000000000000000000000000000000000000000470de4df820000",
          "blockHash": "0xdd7d875ac11408ba1c9055d9cfee6265ea8a03a0f4d886d397d53444f71d9e78",
          "blockNumber": "0x2293c26",
          "transactionHash": "0x1d0cc765c225706a0f685ba8b4bdd7f346cdbdbb5de3e0af49a9d1a1c39b6bec",
          "transactionIndex": "0x2",
          "logIndex": "0xa",
          "removed": false
        },
        {
          "address": "0x960a399deb6c3475fbc62c16e7588b1bf1f95ae6",
          "topics": [
            "0x696de425f79f4a40bc6d2122ca50507f0efbeabbff86a84871b7196ab8ea8df7",
            "0x00000000000000000000000075b9a75ee1ffef6be7c4f842a041de7c6153cf4e"
          ],
          "data": "0x00000000000000000000000000000000000000000000000000470de4df820000",
          "blockHash": "0xdd7d875ac11408ba1c9055d9cfee6265ea8a03a0f4d886d397d53444f71d9e78",
          "blockNumber": "0x2293c26",
          "transactionHash": "0x1d0cc765c225706a0f685ba8b4bdd7f346cdbdbb5de3e0af49a9d1a1c39b6bec",
          "transactionIndex": "0x2",
          "logIndex": "0xb",
          "removed": false
        },
        {
          "address": "0x75b9a75ee1ffef6be7c4f842a041de7c6153cf4e",
          "topics": [
            "0xd0c3c799bf9e2639de44391e7f524d229b2b55f5b1ea94b2bf7da42f7243dddd"
          ],
          "data": "0x0000000000000000000000000000000000000000000000000000000000000020000000000000000000000000000000000000000000000000ccf0a31a221f3c9b0000000000000000000000005ad4629f06c2f3ad386c90bb26714603db22f8830000000000000000000000001318c3f12ce0475989e5634b483136557785c10d000000000000000000000000000000000000000000000000000000000000005900000000000000000000000000000000000000000000000000000000000e7ef0000000000000000000000000000000000000000000000000000000000000000000000000000000000000000000000000000000000000000000000000000000010000000000000000000000000b9d5d9136855f6fec3c0993fee6e9ce8a2978460000000000000000000000000000000000000000000000001a16517d87dde22500000000000000000000000000000000000000000000000000000000000001a0000000000000000000000000000000000000000000000000000000000000024000000000000000000000000000000000000000000000000000000000000002a0c67d8068b28eb9d2a0795ab2c8fef9d061d2218c7e580723b6c4063e23b613800000000000000000000000000000000000000000000000000000000000000064bbaa3c820000000000000000000000007e8d7bfd6cc6b05d056f2e46860d95038f2e323400000000000000000000000000000000000000000000000000470de4df8200000000000000000000000000005ad4629f06c2f3ad386c90bb26714603db22f883000000000000000000000000000000000000000000000000000000000000000000000000000000000000000000000000000000000000000000000001000000000000000000000000d21341536c5cf5eb1bcb58f6723ce26e8d8e90e400000000000000000000000000000000000000000000000000470de4df8200000000000000000000000000000000000000000000000000000000000000000001000000000000000000000000000000000000000000000000000000000000002000000000000000000000000000000000000000000000000000000000000001400000000000000000000000000000000000000000000000000000000000000020000000000000000000000000000000000000000000000000000000000000008000000000000000000000000000000000000000000000000000000000000000c000000000000000000000000000000000000000000000000000000000000001000000000000000000000000000000000000000000000000000000000000015f900000000000000000000000000000000000000000000000000000000000000020000000000000000000000000960a399deb6c3475fbc62c16e7588b1bf1f95ae60000000000000000000000000000000000000000000000000000000000000020000000000000000000000000fd57b4ddbf88a4e07ff4e34c487b99af2fe82a050000000000000000000000000000000000000000000000000000000000000000",
          "blockHash": "0xdd7d875ac11408ba1c9055d9cfee6265ea8a03a0f4d886d397d53444f71d9e78",
          "blockNumber": "0x2293c26",
          "transactionHash": "0x1d0cc765c225706a0f685ba8b4bdd7f346cdbdbb5de3e0af49a9d1a1c39b6bec",
          "transactionIndex": "0x2",
          "logIndex": "0xc",
          "removed": false
        }
      ],
      "logsBloom": "0x010000000c0000000001000000000000000000000000000000000000000000000000000010000000002000000000000000000000000000000000000000200000000000000000020000000008000002000000000000000000000000000000000000002000060000000000004000000802040000000008000000000010000000100008000000000000000000000000000000000000000000000000000000000000024000000000004600000000000040000080008400000800000101100000000000000002000000000000000000000000000001000040000810400000000020000010000000000000000000000000000004000200000000400000000100400000",
      "type": "0x2",
      "transactionHash": "0x1d0cc765c225706a0f685ba8b4bdd7f346cdbdbb5de3e0af49a9d1a1c39b6bec",
      "transactionIndex": "0x2",
      "blockHash": "0xdd7d875ac11408ba1c9055d9cfee6265ea8a03a0f4d886d397d53444f71d9e78",
      "blockNumber": "0x2293c26",
      "gasUsed": "0x573fa",
      "effectiveGasPrice": "0x62b85e900",
      "from": "0x7e8d7bfd6cc6b05d056f2e46860d95038f2e3234",
      "to": "0x5ad4629f06c2f3ad386c90bb26714603db22f883",
      "contractAddress": null
    }
  ],
  "libraries": [],
  "pending": [],
  "returns": {},
  "timestamp": 1728673036,
  "chain": 43113,
  "commit": "90333d4"
}