{
  "transactions": [
    {
      "hash": "0xea9fc05dca265465a48b0d8a4bf4b17a2e7d5e118c36f5f40c82e051e39bbfad",
      "transactionType": "CALL",
      "contractName": null,
      "contractAddress": "0x0b9d5d9136855f6fec3c0993fee6e9ce8a297846",
      "function": "transfer(address,uint256)",
      "arguments": [
        "0x95e327A0c9f4b206702CB7CFe50a7f99628d460b",
        "5500000000000000000"
      ],
      "transaction": {
        "from": "0x7e8d7bfd6cc6b05d056f2e46860d95038f2e3234",
        "to": "0x0b9d5d9136855f6fec3c0993fee6e9ce8a297846",
        "gas": "0x1287c",
        "value": "0x0",
        "input": "0xa9059cbb00000000000000000000000095e327a0c9f4b206702cb7cfe50a7f99628d460b0000000000000000000000000000000000000000000000004c53ecdc18a60000",
        "nonce": "0x1f1",
        "chainId": "0xa869"
      },
      "additionalContracts": [],
      "isFixedGasLimit": false
    },
    {
      "hash": "0x2ff6dad3c9e39d54fa8c2ff92fe033ed3a048423623d4031f0a11a77e8baebc0",
      "transactionType": "CALL",
      "contractName": null,
      "contractAddress": "0xd21341536c5cf5eb1bcb58f6723ce26e8d8e90e4",
      "function": "transfer(address,uint256)",
      "arguments": [
        "0x95e327A0c9f4b206702CB7CFe50a7f99628d460b",
        "100000000000000000"
      ],
      "transaction": {
        "from": "0x7e8d7bfd6cc6b05d056f2e46860d95038f2e3234",
        "to": "0xd21341536c5cf5eb1bcb58f6723ce26e8d8e90e4",
        "gas": "0x1261d",
        "value": "0x0",
        "input": "0xa9059cbb00000000000000000000000095e327a0c9f4b206702cb7cfe50a7f99628d460b000000000000000000000000000000000000000000000000016345785d8a0000",
        "nonce": "0x1f2",
        "chainId": "0xa869"
      },
      "additionalContracts": [],
      "isFixedGasLimit": false
    },
    {
      "hash": "0x996a161bf1b94229fc9038104a476a6fb3428f242f627b6a4acb4aa98afcd06f",
      "transactionType": "CALL",
      "contractName": null,
      "contractAddress": "0x95e327a0c9f4b206702cb7cfe50a7f99628d460b",
      "function": "sendMessage(address,uint256,address)",
      "arguments": [
        "0xEE655860dBA7C8587C384CAc11624383eA8D1D1e",
        "100000000000000000",
        "0x7E8d7BFd6cc6B05d056f2E46860D95038f2E3234"
      ],
      "transaction": {
        "from": "0x7e8d7bfd6cc6b05d056f2e46860d95038f2e3234",
        "to": "0x95e327a0c9f4b206702cb7cfe50a7f99628d460b",
        "gas": "0x66159",
        "value": "0x0",
        "input": "0x6ad10792000000000000000000000000ee655860dba7c8587c384cac11624383ea8d1d1e000000000000000000000000000000000000000000000000016345785d8a00000000000000000000000000007e8d7bfd6cc6b05d056f2e46860d95038f2e3234",
        "nonce": "0x1f3",
        "chainId": "0xa869"
      },
      "additionalContracts": [],
      "isFixedGasLimit": false
    }
  ],
  "receipts": [
    {
      "status": "0x1",
      "cumulativeGasUsed": "0xcaba",
      "logs": [
        {
          "address": "0x0b9d5d9136855f6fec3c0993fee6e9ce8a297846",
          "topics": [
            "0xddf252ad1be2c89b69c2b068fc378daa952ba7f163c4a11628f55a4df523b3ef",
            "0x0000000000000000000000007e8d7bfd6cc6b05d056f2e46860d95038f2e3234",
            "0x00000000000000000000000095e327a0c9f4b206702cb7cfe50a7f99628d460b"
          ],
          "data": "0x0000000000000000000000000000000000000000000000004c53ecdc18a60000",
          "blockHash": "0xbe47c81ba566a54ec165afb378c2550e66f3d76f59455549e28538cb7d688599",
          "blockNumber": "0x22926e3",
          "transactionHash": "0xea9fc05dca265465a48b0d8a4bf4b17a2e7d5e118c36f5f40c82e051e39bbfad",
          "transactionIndex": "0x0",
          "logIndex": "0x0",
          "removed": false
        }
      ],
      "logsBloom": "0x01000000000000000000000000000000000000000020000000000200000000000000000000000000000000000000000000000000000000000000000000000000000000004000000000000008000000000000000000801000000000000000000000000000000000000000000000000000000000010000000000000010000000000000000000000000000000000000000000000000000000000000000000000000000000000000000200000000000000000000000000000000000000000000000000000002000000000000000000000000000000000000000800000000000000000000000000000000000000000000000000000000000000000000000000000000",
      "type": "0x2",
      "transactionHash": "0xea9fc05dca265465a48b0d8a4bf4b17a2e7d5e118c36f5f40c82e051e39bbfad",
      "transactionIndex": "0x0",
      "blockHash": "0xbe47c81ba566a54ec165afb378c2550e66f3d76f59455549e28538cb7d688599",
      "blockNumber": "0x22926e3",
      "gasUsed": "0xcaba",
      "effectiveGasPrice": "0x6fc23ac00",
      "from": "0x7e8d7bfd6cc6b05d056f2e46860d95038f2e3234",
      "to": "0x0b9d5d9136855f6fec3c0993fee6e9ce8a297846",
      "contractAddress": null
    },
    {
      "status": "0x1",
      "cumulativeGasUsed": "0x193d5",
      "logs": [
        {
          "address": "0xd21341536c5cf5eb1bcb58f6723ce26e8d8e90e4",
          "topics": [
            "0xddf252ad1be2c89b69c2b068fc378daa952ba7f163c4a11628f55a4df523b3ef",
            "0x0000000000000000000000007e8d7bfd6cc6b05d056f2e46860d95038f2e3234",
            "0x00000000000000000000000095e327a0c9f4b206702cb7cfe50a7f99628d460b"
          ],
          "data": "0x000000000000000000000000000000000000000000000000016345785d8a0000",
          "blockHash": "0xbe47c81ba566a54ec165afb378c2550e66f3d76f59455549e28538cb7d688599",
          "blockNumber": "0x22926e3",
          "transactionHash": "0x2ff6dad3c9e39d54fa8c2ff92fe033ed3a048423623d4031f0a11a77e8baebc0",
          "transactionIndex": "0x1",
          "logIndex": "0x1",
          "removed": false
        }
      ],
      "logsBloom": "0x00000000000000000000000000000000000000000020000000000200000000000000000000000000000000000000000000000000000000000000000000000000000000004000000000000008000000000000000000801000000000000000000000000000000000000000000000000000000000010000000000000010000000000000000000000000000000000000000000000000000000000000000000000000000000000000000000000000000000000000000000000000000000000000000000000002000000000000000000000000000001000000000000000000000000000000000000000000000000000000000000000000000000400000000000400000",
      "type": "0x2",
      "transactionHash": "0x2ff6dad3c9e39d54fa8c2ff92fe033ed3a048423623d4031f0a11a77e8baebc0",
      "transactionIndex": "0x1",
      "blockHash": "0xbe47c81ba566a54ec165afb378c2550e66f3d76f59455549e28538cb7d688599",
      "blockNumber": "0x22926e3",
      "gasUsed": "0xc91b",
      "effectiveGasPrice": "0x6fc23ac00",
      "from": "0x7e8d7bfd6cc6b05d056f2e46860d95038f2e3234",
      "to": "0xd21341536c5cf5eb1bcb58f6723ce26e8d8e90e4",
      "contractAddress": null
    },
    {
      "status": "0x1",
      "cumulativeGasUsed": "0x707db",
      "logs": [
        {
          "address": "0x0b9d5d9136855f6fec3c0993fee6e9ce8a297846",
          "topics": [
            "0x8c5be1e5ebec7d5bd14f71427d1e84f3dd0314c0f7b2291e5b200ac8c7c3b925",
            "0x00000000000000000000000095e327a0c9f4b206702cb7cfe50a7f99628d460b",
            "0x000000000000000000000000f694e193200268f9a4868e4aa017a0118c9a8177"
          ],
          "data": "0x00000000000000000000000000000000000000000000000044140d14d9723363",
          "blockHash": "0xbe47c81ba566a54ec165afb378c2550e66f3d76f59455549e28538cb7d688599",
          "blockNumber": "0x22926e3",
          "transactionHash": "0x996a161bf1b94229fc9038104a476a6fb3428f242f627b6a4acb4aa98afcd06f",
          "transactionIndex": "0x2",
          "logIndex": "0x2",
          "removed": false
        },
        {
          "address": "0xd21341536c5cf5eb1bcb58f6723ce26e8d8e90e4",
          "topics": [
            "0x8c5be1e5ebec7d5bd14f71427d1e84f3dd0314c0f7b2291e5b200ac8c7c3b925",
            "0x00000000000000000000000095e327a0c9f4b206702cb7cfe50a7f99628d460b",
            "0x000000000000000000000000f694e193200268f9a4868e4aa017a0118c9a8177"
          ],
          "data": "0x000000000000000000000000000000000000000000000000016345785d8a0000",
          "blockHash": "0xbe47c81ba566a54ec165afb378c2550e66f3d76f59455549e28538cb7d688599",
          "blockNumber": "0x22926e3",
          "transactionHash": "0x996a161bf1b94229fc9038104a476a6fb3428f242f627b6a4acb4aa98afcd06f",
          "transactionIndex": "0x2",
          "logIndex": "0x3",
          "removed": false
        },
        {
          "address": "0x0b9d5d9136855f6fec3c0993fee6e9ce8a297846",
          "topics": [
            "0xddf252ad1be2c89b69c2b068fc378daa952ba7f163c4a11628f55a4df523b3ef",
            "0x00000000000000000000000095e327a0c9f4b206702cb7cfe50a7f99628d460b",
            "0x00000000000000000000000075b9a75ee1ffef6be7c4f842a041de7c6153cf4e"
          ],
          "data": "0x00000000000000000000000000000000000000000000000044140d14d9723363",
          "blockHash": "0xbe47c81ba566a54ec165afb378c2550e66f3d76f59455549e28538cb7d688599",
          "blockNumber": "0x22926e3",
          "transactionHash": "0x996a161bf1b94229fc9038104a476a6fb3428f242f627b6a4acb4aa98afcd06f",
          "transactionIndex": "0x2",
          "logIndex": "0x4",
          "removed": false
        },
        {
          "address": "0xd21341536c5cf5eb1bcb58f6723ce26e8d8e90e4",
          "topics": [
            "0x8c5be1e5ebec7d5bd14f71427d1e84f3dd0314c0f7b2291e5b200ac8c7c3b925",
            "0x00000000000000000000000095e327a0c9f4b206702cb7cfe50a7f99628d460b",
            "0x000000000000000000000000f694e193200268f9a4868e4aa017a0118c9a8177"
          ],
          "data": "0x0000000000000000000000000000000000000000000000000000000000000000",
          "blockHash": "0xbe47c81ba566a54ec165afb378c2550e66f3d76f59455549e28538cb7d688599",
          "blockNumber": "0x22926e3",
          "transactionHash": "0x996a161bf1b94229fc9038104a476a6fb3428f242f627b6a4acb4aa98afcd06f",
          "transactionIndex": "0x2",
          "logIndex": "0x5",
          "removed": false
        },
        {
          "address": "0xd21341536c5cf5eb1bcb58f6723ce26e8d8e90e4",
          "topics": [
            "0xddf252ad1be2c89b69c2b068fc378daa952ba7f163c4a11628f55a4df523b3ef",
            "0x00000000000000000000000095e327a0c9f4b206702cb7cfe50a7f99628d460b",
            "0x000000000000000000000000960a399deb6c3475fbc62c16e7588b1bf1f95ae6"
          ],
          "data": "0x000000000000000000000000000000000000000000000000016345785d8a0000",
          "blockHash": "0xbe47c81ba566a54ec165afb378c2550e66f3d76f59455549e28538cb7d688599",
          "blockNumber": "0x22926e3",
          "transactionHash": "0x996a161bf1b94229fc9038104a476a6fb3428f242f627b6a4acb4aa98afcd06f",
          "transactionIndex": "0x2",
          "logIndex": "0x6",
          "removed": false
        },
        {
          "address": "0x960a399deb6c3475fbc62c16e7588b1bf1f95ae6",
          "topics": [
            "0x1871cdf8010e63f2eb8384381a68dfa7416dc571a5517e66e88b2d2d0c0a690a"
          ],
          "data": "0x000000000000000000000000000000000000000000000000016345785d8a0000",
          "blockHash": "0xbe47c81ba566a54ec165afb378c2550e66f3d76f59455549e28538cb7d688599",
          "blockNumber": "0x22926e3",
          "transactionHash": "0x996a161bf1b94229fc9038104a476a6fb3428f242f627b6a4acb4aa98afcd06f",
          "transactionIndex": "0x2",
          "logIndex": "0x7",
          "removed": false
        },
        {
          "address": "0xd21341536c5cf5eb1bcb58f6723ce26e8d8e90e4",
          "topics": [
            "0xddf252ad1be2c89b69c2b068fc378daa952ba7f163c4a11628f55a4df523b3ef",
            "0x000000000000000000000000960a399deb6c3475fbc62c16e7588b1bf1f95ae6",
            "0x000000000000000000000000ec1062cbdf4fbf31b3a6aac62b6f6f123bb70e12"
          ],
          "data": "0x000000000000000000000000000000000000000000000000016345785d8a0000",
          "blockHash": "0xbe47c81ba566a54ec165afb378c2550e66f3d76f59455549e28538cb7d688599",
          "blockNumber": "0x22926e3",
          "transactionHash": "0x996a161bf1b94229fc9038104a476a6fb3428f242f627b6a4acb4aa98afcd06f",
          "transactionIndex": "0x2",
          "logIndex": "0x8",
          "removed": false
        },
        {
          "address": "0xd21341536c5cf5eb1bcb58f6723ce26e8d8e90e4",
          "topics": [
            "0xddf252ad1be2c89b69c2b068fc378daa952ba7f163c4a11628f55a4df523b3ef",
            "0x000000000000000000000000ec1062cbdf4fbf31b3a6aac62b6f6f123bb70e12",
            "0x0000000000000000000000000000000000000000000000000000000000000000"
          ],
          "data": "0x000000000000000000000000000000000000000000000000016345785d8a0000",
          "blockHash": "0xbe47c81ba566a54ec165afb378c2550e66f3d76f59455549e28538cb7d688599",
          "blockNumber": "0x22926e3",
          "transactionHash": "0x996a161bf1b94229fc9038104a476a6fb3428f242f627b6a4acb4aa98afcd06f",
          "transactionIndex": "0x2",
          "logIndex": "0x9",
          "removed": false
        },
        {
          "address": "0xec1062cbdf4fbf31b3a6aac62b6f6f123bb70e12",
          "topics": [
            "0x696de425f79f4a40bc6d2122ca50507f0efbeabbff86a84871b7196ab8ea8df7",
            "0x000000000000000000000000960a399deb6c3475fbc62c16e7588b1bf1f95ae6"
          ],
          "data": "0x000000000000000000000000000000000000000000000000016345785d8a0000",
          "blockHash": "0xbe47c81ba566a54ec165afb378c2550e66f3d76f59455549e28538cb7d688599",
          "blockNumber": "0x22926e3",
          "transactionHash": "0x996a161bf1b94229fc9038104a476a6fb3428f242f627b6a4acb4aa98afcd06f",
          "transactionIndex": "0x2",
          "logIndex": "0xa",
          "removed": false
        },
        {
          "address": "0x960a399deb6c3475fbc62c16e7588b1bf1f95ae6",
          "topics": [
            "0x696de425f79f4a40bc6d2122ca50507f0efbeabbff86a84871b7196ab8ea8df7",
            "0x00000000000000000000000075b9a75ee1ffef6be7c4f842a041de7c6153cf4e"
          ],
          "data": "0x000000000000000000000000000000000000000000000000016345785d8a0000",
          "blockHash": "0xbe47c81ba566a54ec165afb378c2550e66f3d76f59455549e28538cb7d688599",
          "blockNumber": "0x22926e3",
          "transactionHash": "0x996a161bf1b94229fc9038104a476a6fb3428f242f627b6a4acb4aa98afcd06f",
          "transactionIndex": "0x2",
          "logIndex": "0xb",
          "removed": false
        },
        {
          "address": "0x75b9a75ee1ffef6be7c4f842a041de7c6153cf4e",
          "topics": [
            "0xd0c3c799bf9e2639de44391e7f524d229b2b55f5b1ea94b2bf7da42f7243dddd"
          ],
          "data": "0x0000000000000000000000000000000000000000000000000000000000000020000000000000000000000000000000000000000000000000ccf0a31a221f3c9b00000000000000000000000095e327a0c9f4b206702cb7cfe50a7f99628d460b000000000000000000000000ee655860dba7c8587c384cac11624383ea8d1d1e000000000000000000000000000000000000000000000000000000000000004c00000000000000000000000000000000000000000000000000000000000dbba0000000000000000000000000000000000000000000000000000000000000000000000000000000000000000000000000000000000000000000000000000000010000000000000000000000000b9d5d9136855f6fec3c0993fee6e9ce8a29784600000000000000000000000000000000000000000000000044140d14d972336300000000000000000000000000000000000000000000000000000000000001a0000000000000000000000000000000000000000000000000000000000000024000000000000000000000000000000000000000000000000000000000000002a06ccb2f58076d05633c8122666321205eb02b7b0021a32c8cc324fa7fd461a84f0000000000000000000000000000000000000000000000000000000000000064bbaa3c820000000000000000000000007e8d7bfd6cc6b05d056f2e46860d95038f2e3234000000000000000000000000000000000000000000000000016345785d8a000000000000000000000000000095e327a0c9f4b206702cb7cfe50a7f99628d460b000000000000000000000000000000000000000000000000000000000000000000000000000000000000000000000000000000000000000000000001000000000000000000000000d21341536c5cf5eb1bcb58f6723ce26e8d8e90e4000000000000000000000000000000000000000000000000016345785d8a00000000000000000000000000000000000000000000000000000000000000000001000000000000000000000000000000000000000000000000000000000000002000000000000000000000000000000000000000000000000000000000000001400000000000000000000000000000000000000000000000000000000000000020000000000000000000000000000000000000000000000000000000000000008000000000000000000000000000000000000000000000000000000000000000c000000000000000000000000000000000000000000000000000000000000001000000000000000000000000000000000000000000000000000000000000015f900000000000000000000000000000000000000000000000000000000000000020000000000000000000000000960a399deb6c3475fbc62c16e7588b1bf1f95ae60000000000000000000000000000000000000000000000000000000000000020000000000000000000000000fd57b4ddbf88a4e07ff4e34c487b99af2fe82a050000000000000000000000000000000000000000000000000000000000000000",
          "blockHash": "0xbe47c81ba566a54ec165afb378c2550e66f3d76f59455549e28538cb7d688599",
          "blockNumber": "0x22926e3",
          "transactionHash": "0x996a161bf1b94229fc9038104a476a6fb3428f242f627b6a4acb4aa98afcd06f",
          "transactionIndex": "0x2",
          "logIndex": "0xc",
          "removed": false
        }
      ],
      "logsBloom": "0x010000000c0000000001000000000000000000000020000000000200000000000000000010000000002000000000000000000000000000000000000000200000000000000000020000000008000002000000000000000000000000000000000000002000060000000000004000000802040000010008000000000010000000100008000000000000000000000000000000000000000000000000000000000000024000000000000600000000000040000080000400000800000101100000000000000002000000000000000000000000000001000040000800400000000020000010000000000000000000000000000004000200000000400000000100400000",
      "type": "0x2",
      "transactionHash": "0x996a161bf1b94229fc9038104a476a6fb3428f242f627b6a4acb4aa98afcd06f",
      "transactionIndex": "0x2",
      "blockHash": "0xbe47c81ba566a54ec165afb378c2550e66f3d76f59455549e28538cb7d688599",
      "blockNumber": "0x22926e3",
      "gasUsed": "0x57406",
      "effectiveGasPrice": "0x6fc23ac00",
      "from": "0x7e8d7bfd6cc6b05d056f2e46860d95038f2e3234",
      "to": "0x95e327a0c9f4b206702cb7cfe50a7f99628d460b",
      "contractAddress": null
    }
  ],
  "libraries": [],
  "pending": [],
  "returns": {},
  "timestamp": 1728633320,
  "chain": 43113,
  "commit": "90333d4"
}