{
  "transactions": [
    {
      "hash": "0x96a8570d7e5e63bc1bc211c4b84d5a0fd09acad8e8b51f832d0e1e7aa74f9ceb",
      "transactionType": "CALL",
      "contractName": null,
      "contractAddress": "0x0b9d5d9136855f6fec3c0993fee6e9ce8a297846",
      "function": "transfer(address,uint256)",
      "arguments": [
        "0x80C9D2245595bc18f60b04dc5368A29fde23ccBd",
        "2000000000000000000"
      ],
      "transaction": {
        "from": "0x7e8d7bfd6cc6b05d056f2e46860d95038f2e3234",
        "to": "0x0b9d5d9136855f6fec3c0993fee6e9ce8a297846",
        "gas": "0xbbbf",
        "value": "0x0",
        "input": "0xa9059cbb00000000000000000000000080c9d2245595bc18f60b04dc5368a29fde23ccbd0000000000000000000000000000000000000000000000001bc16d674ec80000",
        "nonce": "0x1e4",
        "chainId": "0xa869"
      },
      "additionalContracts": [],
      "isFixedGasLimit": false
    },
    {
      "hash": "0xbaac0bb9ff70e8a9ac61320faacb6e9df1dfa46fd25b27c9bd85035aaafd6b7a",
      "transactionType": "CALL",
      "contractName": null,
      "contractAddress": "0xd21341536c5cf5eb1bcb58f6723ce26e8d8e90e4",
      "function": "transfer(address,uint256)",
      "arguments": [
        "0x80C9D2245595bc18f60b04dc5368A29fde23ccBd",
        "100000000000000000"
      ],
      "transaction": {
        "from": "0x7e8d7bfd6cc6b05d056f2e46860d95038f2e3234",
        "to": "0xd21341536c5cf5eb1bcb58f6723ce26e8d8e90e4",
        "gas": "0xb982",
        "value": "0x0",
        "input": "0xa9059cbb00000000000000000000000080c9d2245595bc18f60b04dc5368a29fde23ccbd000000000000000000000000000000000000000000000000016345785d8a0000",
        "nonce": "0x1e5",
        "chainId": "0xa869"
      },
      "additionalContracts": [],
      "isFixedGasLimit": false
    }
  ],
  "receipts": [
    {
      "status": "0x1",
      "cumulativeGasUsed": "0x87ee",
      "logs": [
        {
          "address": "0x0b9d5d9136855f6fec3c0993fee6e9ce8a297846",
          "topics": [
            "0xddf252ad1be2c89b69c2b068fc378daa952ba7f163c4a11628f55a4df523b3ef",
            "0x0000000000000000000000007e8d7bfd6cc6b05d056f2e46860d95038f2e3234",
            "0x00000000000000000000000080c9d2245595bc18f60b04dc5368a29fde23ccbd"
          ],
          "data": "0x0000000000000000000000000000000000000000000000001bc16d674ec80000",
          "blockHash": "0xef7da79b823e5485a6ac6487f91acda54e4444bcd4c3b3425dee3950c7932a2d",
          "blockNumber": "0x229232b",
          "transactionHash": "0x96a8570d7e5e63bc1bc211c4b84d5a0fd09acad8e8b51f832d0e1e7aa74f9ceb",
          "transactionIndex": "0x0",
          "logIndex": "0x0",
          "removed": false
        }
      ],
      "logsBloom": "0x01000000000000000000000000000000000000000040000000000000000000000000000000000000100000000000000000000000000000000000000000000000000000004000000000000008000000000000000000801000002000000000000000000000000000000000000000000000000000000000000000000010000000000000000000000000000000000000000000000000000000000000000000000000000000000000000200000000000000000000000000000000000000000000000000000002000000000000000000000000000000000000000800000000000000000000000000000000000000000000000000000000000000000000000000000000",
      "type": "0x2",
      "transactionHash": "0x96a8570d7e5e63bc1bc211c4b84d5a0fd09acad8e8b51f832d0e1e7aa74f9ceb",
      "transactionIndex": "0x0",
      "blockHash": "0xef7da79b823e5485a6ac6487f91acda54e4444bcd4c3b3425dee3950c7932a2d",
      "blockNumber": "0x229232b",
      "gasUsed": "0x87ee",
      "effectiveGasPrice": "0x649534e00",
      "from": "0x7e8d7bfd6cc6b05d056f2e46860d95038f2e3234",
      "to": "0x0b9d5d9136855f6fec3c0993fee6e9ce8a297846",
      "contractAddress": null
    },
    {
      "status": "0x1",
      "cumulativeGasUsed": "0x10e3d",
      "logs": [
        {
          "address": "0xd21341536c5cf5eb1bcb58f6723ce26e8d8e90e4",
          "topics": [
            "0xddf252ad1be2c89b69c2b068fc378daa952ba7f163c4a11628f55a4df523b3ef",
            "0x0000000000000000000000007e8d7bfd6cc6b05d056f2e46860d95038f2e3234",
            "0x00000000000000000000000080c9d2245595bc18f60b04dc5368a29fde23ccbd"
          ],
          "data": "0x000000000000000000000000000000000000000000000000016345785d8a0000",
          "blockHash": "0xef7da79b823e5485a6ac6487f91acda54e4444bcd4c3b3425dee3950c7932a2d",
          "blockNumber": "0x229232b",
          "transactionHash": "0xbaac0bb9ff70e8a9ac61320faacb6e9df1dfa46fd25b27c9bd85035aaafd6b7a",
          "transactionIndex": "0x1",
          "logIndex": "0x1",
          "removed": false
        }
      ],
      "logsBloom": "0x00000000000000000000000000000000000000000040000000000000000000000000000000000000100000000000000000000000000000000000000000000000000000004000000000000008000000000000000000801000002000000000000000000000000000000000000000000000000000000000000000000010000000000000000000000000000000000000000000000000000000000000000000000000000000000000000000000000000000000000000000000000000000000000000000000002000000000000000000000000000001000000000000000000000000000000000000000000000000000000000000000000000000400000000000400000",
      "type": "0x2",
      "transactionHash": "0xbaac0bb9ff70e8a9ac61320faacb6e9df1dfa46fd25b27c9bd85035aaafd6b7a",
      "transactionIndex": "0x1",
      "blockHash": "0xef7da79b823e5485a6ac6487f91acda54e4444bcd4c3b3425dee3950c7932a2d",
      "blockNumber": "0x229232b",
      "gasUsed": "0x864f",
      "effectiveGasPrice": "0x649534e00",
      "from": "0x7e8d7bfd6cc6b05d056f2e46860d95038f2e3234",
      "to": "0xd21341536c5cf5eb1bcb58f6723ce26e8d8e90e4",
      "contractAddress": null
    }
  ],
  "libraries": [],
  "pending": [],
  "returns": {},
  "timestamp": 1728627055,
  "chain": 43113,
  "commit": "90333d4"
}