{
  "transactions": [
    {
      "hash": "0x1bb32e44f1c6f66fe8f6643e005ce639bcfa812bbfb94cddbed734adb0a37452",
      "transactionType": "CALL",
      "contractName": null,
      "contractAddress": "0x0b9d5d9136855f6fec3c0993fee6e9ce8a297846",
      "function": "transfer(address,uint256)",
      "arguments": [
        "0x4b1D003924E4e10F52A9959358e431b54A02767f",
        "5000000000000000000"
      ],
      "transaction": {
        "from": "0x7e8d7bfd6cc6b05d056f2e46860d95038f2e3234",
        "to": "0x0b9d5d9136855f6fec3c0993fee6e9ce8a297846",
        "gas": "0x117f2",
        "value": "0x0",
        "input": "0xa9059cbb0000000000000000000000004b1d003924e4e10f52a9959358e431b54a02767f0000000000000000000000000000000000000000000000004563918244f40000",
        "nonce": "0x21c",
        "chainId": "0xa869"
      },
      "additionalContracts": [],
      "isFixedGasLimit": false
    },
    {
      "hash": "0x189204b7829a0b6d93436b4e164d5a753bce08a310d64d2fb75eca3ffb9883c5",
      "transactionType": "CALL",
      "contractName": null,
      "contractAddress": "0xd21341536c5cf5eb1bcb58f6723ce26e8d8e90e4",
      "function": "transfer(address,uint256)",
      "arguments": [
        "0x4b1D003924E4e10F52A9959358e431b54A02767f",
        "10000000000000000"
      ],
      "transaction": {
        "from": "0x7e8d7bfd6cc6b05d056f2e46860d95038f2e3234",
        "to": "0xd21341536c5cf5eb1bcb58f6723ce26e8d8e90e4",
        "gas": "0x125fa",
        "value": "0x0",
        "input": "0xa9059cbb0000000000000000000000004b1d003924e4e10f52a9959358e431b54a02767f000000000000000000000000000000000000000000000000002386f26fc10000",
        "nonce": "0x21d",
        "chainId": "0xa869"
      },
      "additionalContracts": [],
      "isFixedGasLimit": false
    },
    {
      "hash": "0xe75360051b075fdd09e3a92e6035f004cc900854187533b8a3a4e5274986312e",
      "transactionType": "CALL",
      "contractName": null,
      "contractAddress": "0x4b1d003924e4e10f52a9959358e431b54a02767f",
      "function": "sendMessage(address,uint256,address)",
      "arguments": [
        "0x198aaf5F1C22e12fBF87BB46c06FbF2bc7c5a0f2",
        "10000000000000000",
        "0x7E8d7BFd6cc6B05d056f2E46860D95038f2E3234"
      ],
      "transaction": {
        "from": "0x7e8d7bfd6cc6b05d056f2e46860d95038f2e3234",
        "to": "0x4b1d003924e4e10f52a9959358e431b54a02767f",
        "gas": "0x60a78",
        "value": "0x0",
        "input": "0x6ad10792000000000000000000000000198aaf5f1c22e12fbf87bb46c06fbf2bc7c5a0f2000000000000000000000000000000000000000000000000002386f26fc100000000000000000000000000007e8d7bfd6cc6b05d056f2e46860d95038f2e3234",
        "nonce": "0x21e",
        "chainId": "0xa869"
      },
      "additionalContracts": [],
      "isFixedGasLimit": false
    }
  ],
  "receipts": [
    {
      "status": "0x1",
      "cumulativeGasUsed": "0xcaae",
      "logs": [
        {
          "address": "0x0b9d5d9136855f6fec3c0993fee6e9ce8a297846",
          "topics": [
            "0xddf252ad1be2c89b69c2b068fc378daa952ba7f163c4a11628f55a4df523b3ef",
            "0x0000000000000000000000007e8d7bfd6cc6b05d056f2e46860d95038f2e3234",
            "0x0000000000000000000000004b1d003924e4e10f52a9959358e431b54a02767f"
          ],
          "data": "0x0000000000000000000000000000000000000000000000004563918244f40000",
          "blockHash": "0x2a2533d53b3071b9222872d62e0fbd67ecd4117cfaa303314ba024c47606389b",
          "blockNumber": "0x2293dfc",
          "transactionHash": "0x1bb32e44f1c6f66fe8f6643e005ce639bcfa812bbfb94cddbed734adb0a37452",
          "transactionIndex": "0x0",
          "logIndex": "0x0",
          "removed": false
        }
      ],
      "logsBloom": "0x01000000000000000000000000000000000000000000000000000000000000000000000000100000000000000000000000000000000000000000000000000002000000004000000000000008000000000000000000801000000000000000000000000000000000000000000000000000000000000000000000000010000000000000000000000000000000000000000000000000000000000000000000000000000000200000000200000000000000000000000000000000000000000000000000000002000000000000000000000000000000000000000800000000000000000000000000000000000000000000000000000000000000000000000000000000",
      "type": "0x2",
      "transactionHash": "0x1bb32e44f1c6f66fe8f6643e005ce639bcfa812bbfb94cddbed734adb0a37452",
      "transactionIndex": "0x0",
      "blockHash": "0x2a2533d53b3071b9222872d62e0fbd67ecd4117cfaa303314ba024c47606389b",
      "blockNumber": "0x2293dfc",
      "gasUsed": "0xcaae",
      "effectiveGasPrice": "0x68a2786d0",
      "from": "0x7e8d7bfd6cc6b05d056f2e46860d95038f2e3234",
      "to": "0x0b9d5d9136855f6fec3c0993fee6e9ce8a297846",
      "contractAddress": null
    },
    {
      "status": "0x1",
      "cumulativeGasUsed": "0xc903",
      "logs": [
        {
          "address": "0xd21341536c5cf5eb1bcb58f6723ce26e8d8e90e4",
          "topics": [
            "0xddf252ad1be2c89b69c2b068fc378daa952ba7f163c4a11628f55a4df523b3ef",
            "0x0000000000000000000000007e8d7bfd6cc6b05d056f2e46860d95038f2e3234",
            "0x0000000000000000000000004b1d003924e4e10f52a9959358e431b54a02767f"
          ],
          "data": "0x000000000000000000000000000000000000000000000000002386f26fc10000",
          "blockHash": "0xb997699f252dc3d4efc47ef9a2181235e2eee459f5db34081b4d83522606fd3b",
          "blockNumber": "0x2293dfd",
          "transactionHash": "0x189204b7829a0b6d93436b4e164d5a753bce08a310d64d2fb75eca3ffb9883c5",
          "transactionIndex": "0x0",
          "logIndex": "0x0",
          "removed": false
        }
      ],
      "logsBloom": "0x00000000000000000000000000000000000000000000000000000000000000000000000000100000000000000000000000000000000000000000000000000002000000004000000000000008000000000000000000801000000000000000000000000000000000000000000000000000000000000000000000000010000000000000000000000000000000000000000000000000000000000000000000000000000000200000000000000000000000000000000000000000000000000000000000000002000000000000000000000000000001000000000000000000000000000000000000000000000000000000000000000000000000400000000000400000",
      "type": "0x2",
      "transactionHash": "0x189204b7829a0b6d93436b4e164d5a753bce08a310d64d2fb75eca3ffb9883c5",
      "transactionIndex": "0x0",
      "blockHash": "0xb997699f252dc3d4efc47ef9a2181235e2eee459f5db34081b4d83522606fd3b",
      "blockNumber": "0x2293dfd",
      "gasUsed": "0xc903",
      "effectiveGasPrice": "0x68a2786d0",
      "from": "0x7e8d7bfd6cc6b05d056f2e46860d95038f2e3234",
      "to": "0xd21341536c5cf5eb1bcb58f6723ce26e8d8e90e4",
      "contractAddress": null
    },
    {
      "status": "0x1",
      "cumulativeGasUsed": "0x64089",
      "logs": [
        {
          "address": "0x0b9d5d9136855f6fec3c0993fee6e9ce8a297846",
          "topics": [
            "0x8c5be1e5ebec7d5bd14f71427d1e84f3dd0314c0f7b2291e5b200ac8c7c3b925",
            "0x0000000000000000000000004b1d003924e4e10f52a9959358e431b54a02767f",
            "0x000000000000000000000000f694e193200268f9a4868e4aa017a0118c9a8177"
          ],
          "data": "0x00000000000000000000000000000000000000000000000008a50086aebcef38",
          "blockHash": "0xb997699f252dc3d4efc47ef9a2181235e2eee459f5db34081b4d83522606fd3b",
          "blockNumber": "0x2293dfd",
          "transactionHash": "0xe75360051b075fdd09e3a92e6035f004cc900854187533b8a3a4e5274986312e",
          "transactionIndex": "0x1",
          "logIndex": "0x1",
          "removed": false
        },
        {
          "address": "0xd21341536c5cf5eb1bcb58f6723ce26e8d8e90e4",
          "topics": [
            "0x8c5be1e5ebec7d5bd14f71427d1e84f3dd0314c0f7b2291e5b200ac8c7c3b925",
            "0x0000000000000000000000004b1d003924e4e10f52a9959358e431b54a02767f",
            "0x000000000000000000000000f694e193200268f9a4868e4aa017a0118c9a8177"
          ],
          "data": "0x000000000000000000000000000000000000000000000000002386f26fc10000",
          "blockHash": "0xb997699f252dc3d4efc47ef9a2181235e2eee459f5db34081b4d83522606fd3b",
          "blockNumber": "0x2293dfd",
          "transactionHash": "0xe75360051b075fdd09e3a92e6035f004cc900854187533b8a3a4e5274986312e",
          "transactionIndex": "0x1",
          "logIndex": "0x2",
          "removed": false
        },
        {
          "address": "0x0b9d5d9136855f6fec3c0993fee6e9ce8a297846",
          "topics": [
            "0xddf252ad1be2c89b69c2b068fc378daa952ba7f163c4a11628f55a4df523b3ef",
            "0x0000000000000000000000004b1d003924e4e10f52a9959358e431b54a02767f",
            "0x00000000000000000000000075b9a75ee1ffef6be7c4f842a041de7c6153cf4e"
          ],
          "data": "0x00000000000000000000000000000000000000000000000008a50086aebcef38",
          "blockHash": "0xb997699f252dc3d4efc47ef9a2181235e2eee459f5db34081b4d83522606fd3b",
          "blockNumber": "0x2293dfd",
          "transactionHash": "0xe75360051b075fdd09e3a92e6035f004cc900854187533b8a3a4e5274986312e",
          "transactionIndex": "0x1",
          "logIndex": "0x3",
          "removed": false
        },
        {
          "address": "0xd21341536c5cf5eb1bcb58f6723ce26e8d8e90e4",
          "topics": [
            "0x8c5be1e5ebec7d5bd14f71427d1e84f3dd0314c0f7b2291e5b200ac8c7c3b925",
            "0x0000000000000000000000004b1d003924e4e10f52a9959358e431b54a02767f",
            "0x000000000000000000000000f694e193200268f9a4868e4aa017a0118c9a8177"
          ],
          "data": "0x0000000000000000000000000000000000000000000000000000000000000000",
          "blockHash": "0xb997699f252dc3d4efc47ef9a2181235e2eee459f5db34081b4d83522606fd3b",
          "blockNumber": "0x2293dfd",
          "transactionHash": "0xe75360051b075fdd09e3a92e6035f004cc900854187533b8a3a4e5274986312e",
          "transactionIndex": "0x1",
          "logIndex": "0x4",
          "removed": false
        },
        {
          "address": "0xd21341536c5cf5eb1bcb58f6723ce26e8d8e90e4",
          "topics": [
            "0xddf252ad1be2c89b69c2b068fc378daa952ba7f163c4a11628f55a4df523b3ef",
            "0x0000000000000000000000004b1d003924e4e10f52a9959358e431b54a02767f",
            "0x000000000000000000000000960a399deb6c3475fbc62c16e7588b1bf1f95ae6"
          ],
          "data": "0x000000000000000000000000000000000000000000000000002386f26fc10000",
          "blockHash": "0xb997699f252dc3d4efc47ef9a2181235e2eee459f5db34081b4d83522606fd3b",
          "blockNumber": "0x2293dfd",
          "transactionHash": "0xe75360051b075fdd09e3a92e6035f004cc900854187533b8a3a4e5274986312e",
          "transactionIndex": "0x1",
          "logIndex": "0x5",
          "removed": false
        },
        {
          "address": "0x960a399deb6c3475fbc62c16e7588b1bf1f95ae6",
          "topics": [
            "0x1871cdf8010e63f2eb8384381a68dfa7416dc571a5517e66e88b2d2d0c0a690a"
          ],
          "data": "0x000000000000000000000000000000000000000000000000002386f26fc10000",
          "blockHash": "0xb997699f252dc3d4efc47ef9a2181235e2eee459f5db34081b4d83522606fd3b",
          "blockNumber": "0x2293dfd",
          "transactionHash": "0xe75360051b075fdd09e3a92e6035f004cc900854187533b8a3a4e5274986312e",
          "transactionIndex": "0x1",
          "logIndex": "0x6",
          "removed": false
        },
        {
          "address": "0xd21341536c5cf5eb1bcb58f6723ce26e8d8e90e4",
          "topics": [
            "0xddf252ad1be2c89b69c2b068fc378daa952ba7f163c4a11628f55a4df523b3ef",
            "0x000000000000000000000000960a399deb6c3475fbc62c16e7588b1bf1f95ae6",
            "0x000000000000000000000000ec1062cbdf4fbf31b3a6aac62b6f6f123bb70e12"
          ],
          "data": "0x000000000000000000000000000000000000000000000000002386f26fc10000",
          "blockHash": "0xb997699f252dc3d4efc47ef9a2181235e2eee459f5db34081b4d83522606fd3b",
          "blockNumber": "0x2293dfd",
          "transactionHash": "0xe75360051b075fdd09e3a92e6035f004cc900854187533b8a3a4e5274986312e",
          "transactionIndex": "0x1",
          "logIndex": "0x7",
          "removed": false
        },
        {
          "address": "0xd21341536c5cf5eb1bcb58f6723ce26e8d8e90e4",
          "topics": [
            "0xddf252ad1be2c89b69c2b068fc378daa952ba7f163c4a11628f55a4df523b3ef",
            "0x000000000000000000000000ec1062cbdf4fbf31b3a6aac62b6f6f123bb70e12",
            "0x0000000000000000000000000000000000000000000000000000000000000000"
          ],
          "data": "0x000000000000000000000000000000000000000000000000002386f26fc10000",
          "blockHash": "0xb997699f252dc3d4efc47ef9a2181235e2eee459f5db34081b4d83522606fd3b",
          "blockNumber": "0x2293dfd",
          "transactionHash": "0xe75360051b075fdd09e3a92e6035f004cc900854187533b8a3a4e5274986312e",
          "transactionIndex": "0x1",
          "logIndex": "0x8",
          "removed": false
        },
        {
          "address": "0xec1062cbdf4fbf31b3a6aac62b6f6f123bb70e12",
          "topics": [
            "0x696de425f79f4a40bc6d2122ca50507f0efbeabbff86a84871b7196ab8ea8df7",
            "0x000000000000000000000000960a399deb6c3475fbc62c16e7588b1bf1f95ae6"
          ],
          "data": "0x000000000000000000000000000000000000000000000000002386f26fc10000",
          "blockHash": "0xb997699f252dc3d4efc47ef9a2181235e2eee459f5db34081b4d83522606fd3b",
          "blockNumber": "0x2293dfd",
          "transactionHash": "0xe75360051b075fdd09e3a92e6035f004cc900854187533b8a3a4e5274986312e",
          "transactionIndex": "0x1",
          "logIndex": "0x9",
          "removed": false
        },
        {
          "address": "0x960a399deb6c3475fbc62c16e7588b1bf1f95ae6",
          "topics": [
            "0x696de425f79f4a40bc6d2122ca50507f0efbeabbff86a84871b7196ab8ea8df7",
            "0x00000000000000000000000075b9a75ee1ffef6be7c4f842a041de7c6153cf4e"
          ],
          "data": "0x000000000000000000000000000000000000000000000000002386f26fc10000",
          "blockHash": "0xb997699f252dc3d4efc47ef9a2181235e2eee459f5db34081b4d83522606fd3b",
          "blockNumber": "0x2293dfd",
          "transactionHash": "0xe75360051b075fdd09e3a92e6035f004cc900854187533b8a3a4e5274986312e",
          "transactionIndex": "0x1",
          "logIndex": "0xa",
          "removed": false
        },
        {
          "address": "0x75b9a75ee1ffef6be7c4f842a041de7c6153cf4e",
          "topics": [
            "0xd0c3c799bf9e2639de44391e7f524d229b2b55f5b1ea94b2bf7da42f7243dddd"
          ],
          "data": "0x0000000000000000000000000000000000000000000000000000000000000020000000000000000000000000000000000000000000000000ccf0a31a221f3c9b0000000000000000000000004b1d003924e4e10f52a9959358e431b54a02767f000000000000000000000000198aaf5f1c22e12fbf87bb46c06fbf2bc7c5a0f2000000000000000000000000000000000000000000000000000000000000005c00000000000000000000000000000000000000000000000000000000000e7ef0000000000000000000000000000000000000000000000000000000000000000000000000000000000000000000000000000000000000000000000000000000010000000000000000000000000b9d5d9136855f6fec3c0993fee6e9ce8a29784600000000000000000000000000000000000000000000000008a50086aebcef3800000000000000000000000000000000000000000000000000000000000001a0000000000000000000000000000000000000000000000000000000000000026000000000000000000000000000000000000000000000000000000000000002c0e4299fe232bd96dcdaf279648b7c076739808603dac5d7a1012ecb8eab06dd4d00000000000000000000000000000000000000000000000000000000000000840fd3c57d0000000000000000000000007e8d7bfd6cc6b05d056f2e46860d95038f2e3234000000000000000000000000000000000000000000000000002386f26fc100000000000000000000000000004b1d003924e4e10f52a9959358e431b54a02767f000000000000000000000000000000000000000000000000ccf0a31a221f3c9b000000000000000000000000000000000000000000000000000000000000000000000000000000000000000000000000000000000000000000000001000000000000000000000000d21341536c5cf5eb1bcb58f6723ce26e8d8e90e4000000000000000000000000000000000000000000000000002386f26fc100000000000000000000000000000000000000000000000000000000000000000001000000000000000000000000000000000000000000000000000000000000002000000000000000000000000000000000000000000000000000000000000001400000000000000000000000000000000000000000000000000000000000000020000000000000000000000000000000000000000000000000000000000000008000000000000000000000000000000000000000000000000000000000000000c000000000000000000000000000000000000000000000000000000000000001000000000000000000000000000000000000000000000000000000000000015f900000000000000000000000000000000000000000000000000000000000000020000000000000000000000000960a399deb6c3475fbc62c16e7588b1bf1f95ae60000000000000000000000000000000000000000000000000000000000000020000000000000000000000000fd57b4ddbf88a4e07ff4e34c487b99af2fe82a050000000000000000000000000000000000000000000000000000000000000000",
          "blockHash": "0xb997699f252dc3d4efc47ef9a2181235e2eee459f5db34081b4d83522606fd3b",
          "blockNumber": "0x2293dfd",
          "transactionHash": "0xe75360051b075fdd09e3a92e6035f004cc900854187533b8a3a4e5274986312e",
          "transactionIndex": "0x1",
          "logIndex": "0xb",
          "removed": false
        }
      ],
      "logsBloom": "0x010000000c0000000001000000000000000000000000000000000000000000000000000010100000002000000000000000000000000000000000000000200002000000000000020000000008000002000000000000000000000000000000000000002000060000000000004000000802040000000008000000000010000000100008000000000000000000000000000000000000000000000000000000000000024000200000000600000000000040000080000400000800000101100000000000000002000000000000000000000000000001000040000800400000000020000010000000000000000000000000000004000200000000400000000100400000",
      "type": "0x2",
      "transactionHash": "0xe75360051b075fdd09e3a92e6035f004cc900854187533b8a3a4e5274986312e",
      "transactionIndex": "0x1",
      "blockHash": "0xb997699f252dc3d4efc47ef9a2181235e2eee459f5db34081b4d83522606fd3b",
      "blockNumber": "0x2293dfd",
      "gasUsed": "0x57786",
      "effectiveGasPrice": "0x68a2786d0",
      "from": "0x7e8d7bfd6cc6b05d056f2e46860d95038f2e3234",
      "to": "0x4b1d003924e4e10f52a9959358e431b54a02767f",
      "contractAddress": null
    }
  ],
  "libraries": [],
  "pending": [],
  "returns": {},
  "timestamp": 1728676799,
  "chain": 43113,
  "commit": "90333d4"
}