{
  "transactions": [
    {
      "hash": "0xacd1a5147c9d7a27227c4af4c4972273fcf1525e4975acbfb93bde5c27a64031",
      "transactionType": "CALL",
      "contractName": null,
      "contractAddress": "0x0b9d5d9136855f6fec3c0993fee6e9ce8a297846",
      "function": "transfer(address,uint256)",
      "arguments": [
        "0x551d4756b06857306f9A96A215Dc84273a046CBB",
        "5000000000000000000"
      ],
      "transaction": {
        "from": "0x7e8d7bfd6cc6b05d056f2e46860d95038f2e3234",
        "to": "0x0b9d5d9136855f6fec3c0993fee6e9ce8a297846",
        "gas": "0x1287c",
        "value": "0x0",
        "input": "0xa9059cbb000000000000000000000000551d4756b06857306f9a96a215dc84273a046cbb0000000000000000000000000000000000000000000000004563918244f40000",
        "nonce": "0x220",
        "chainId": "0xa869"
      },
      "additionalContracts": [],
      "isFixedGasLimit": false
    },
    {
      "hash": "0x815230562098a263bbb1e6e9ec72d9df7d2db0a2b399c68c1a2ca0a20200745e",
      "transactionType": "CALL",
      "contractName": null,
      "contractAddress": "0xd21341536c5cf5eb1bcb58f6723ce26e8d8e90e4",
      "function": "transfer(address,uint256)",
      "arguments": [
        "0x551d4756b06857306f9A96A215Dc84273a046CBB",
        "10000000000000000"
      ],
      "transaction": {
        "from": "0x7e8d7bfd6cc6b05d056f2e46860d95038f2e3234",
        "to": "0xd21341536c5cf5eb1bcb58f6723ce26e8d8e90e4",
        "gas": "0x115b5",
        "value": "0x0",
        "input": "0xa9059cbb000000000000000000000000551d4756b06857306f9a96a215dc84273a046cbb000000000000000000000000000000000000000000000000002386f26fc10000",
        "nonce": "0x221",
        "chainId": "0xa869"
      },
      "additionalContracts": [],
      "isFixedGasLimit": false
    },
    {
      "hash": "0xb67e45250728e8e69009911d686957e9bb33b8bbc4536bdaa5191177af850163",
      "transactionType": "CALL",
      "contractName": null,
      "contractAddress": "0x551d4756b06857306f9a96a215dc84273a046cbb",
      "function": "sendMessage(address,uint256,address)",
      "arguments": [
        "0x75042CedFf7Bf041C374A6E83c1d112Fc327C0e4",
        "10000000000000000",
        "0x7E8d7BFd6cc6B05d056f2E46860D95038f2E3234"
      ],
      "transaction": {
        "from": "0x7e8d7bfd6cc6b05d056f2e46860d95038f2e3234",
        "to": "0x551d4756b06857306f9a96a215dc84273a046cbb",
        "gas": "0x60a78",
        "value": "0x0",
        "input": "0x6ad1079200000000000000000000000075042cedff7bf041c374a6e83c1d112fc327c0e4000000000000000000000000000000000000000000000000002386f26fc100000000000000000000000000007e8d7bfd6cc6b05d056f2e46860d95038f2e3234",
        "nonce": "0x222",
        "chainId": "0xa869"
      },
      "additionalContracts": [],
      "isFixedGasLimit": false
    }
  ],
  "receipts": [
    {
      "status": "0x1",
      "cumulativeGasUsed": "0xcaba",
      "logs": [
        {
          "address": "0x0b9d5d9136855f6fec3c0993fee6e9ce8a297846",
          "topics": [
            "0xddf252ad1be2c89b69c2b068fc378daa952ba7f163c4a11628f55a4df523b3ef",
            "0x0000000000000000000000007e8d7bfd6cc6b05d056f2e46860d95038f2e3234",
            "0x000000000000000000000000551d4756b06857306f9a96a215dc84273a046cbb"
          ],
          "data": "0x0000000000000000000000000000000000000000000000004563918244f40000",
          "blockHash": "0x6caed3e00801db2e623dd95cfff3778379567a164b3a7c5c9bb21746b2353776",
          "blockNumber": "0x2293e6f",
          "transactionHash": "0xacd1a5147c9d7a27227c4af4c4972273fcf1525e4975acbfb93bde5c27a64031",
          "transactionIndex": "0x0",
          "logIndex": "0x0",
          "removed": false
        }
      ],
      "logsBloom": "0x01000000000000000000000000000000000000000000000000000000000000000000000000000000800000000000000000000000000000000000000000000000000000004000000000000008000000000000000000801000000000000000000000000000000000000000020000000000000000000000000000000010000000000000000000000000000000000000000000000000000000000000020000000000000000000000000200000000000000000000000000000000000000000000000000000002000000000000000000000000000000000000000800000000000000000000000000000000000000000000000000000000000000000000000000000000",
      "type": "0x2",
      "transactionHash": "0xacd1a5147c9d7a27227c4af4c4972273fcf1525e4975acbfb93bde5c27a64031",
      "transactionIndex": "0x0",
      "blockHash": "0x6caed3e00801db2e623dd95cfff3778379567a164b3a7c5c9bb21746b2353776",
      "blockNumber": "0x2293e6f",
      "gasUsed": "0xcaba",
      "effectiveGasPrice": "0x68a2786d0",
      "from": "0x7e8d7bfd6cc6b05d056f2e46860d95038f2e3234",
      "to": "0x0b9d5d9136855f6fec3c0993fee6e9ce8a297846",
      "contractAddress": null
    },
    {
      "status": "0x1",
      "cumulativeGasUsed": "0x193c9",
      "logs": [
        {
          "address": "0xd21341536c5cf5eb1bcb58f6723ce26e8d8e90e4",
          "topics": [
            "0xddf252ad1be2c89b69c2b068fc378daa952ba7f163c4a11628f55a4df523b3ef",
            "0x0000000000000000000000007e8d7bfd6cc6b05d056f2e46860d95038f2e3234",
            "0x000000000000000000000000551d4756b06857306f9a96a215dc84273a046cbb"
          ],
          "data": "0x000000000000000000000000000000000000000000000000002386f26fc10000",
          "blockHash": "0x6caed3e00801db2e623dd95cfff3778379567a164b3a7c5c9bb21746b2353776",
          "blockNumber": "0x2293e6f",
          "transactionHash": "0x815230562098a263bbb1e6e9ec72d9df7d2db0a2b399c68c1a2ca0a20200745e",
          "transactionIndex": "0x1",
          "logIndex": "0x1",
          "removed": false
        }
      ],
      "logsBloom": "0x00000000000000000000000000000000000000000000000000000000000000000000000000000000800000000000000000000000000000000000000000000000000000004000000000000008000000000000000000801000000000000000000000000000000000000000020000000000000000000000000000000010000000000000000000000000000000000000000000000000000000000000020000000000000000000000000000000000000000000000000000000000000000000000000000000002000000000000000000000000000001000000000000000000000000000000000000000000000000000000000000000000000000400000000000400000",
      "type": "0x2",
      "transactionHash": "0x815230562098a263bbb1e6e9ec72d9df7d2db0a2b399c68c1a2ca0a20200745e",
      "transactionIndex": "0x1",
      "blockHash": "0x6caed3e00801db2e623dd95cfff3778379567a164b3a7c5c9bb21746b2353776",
      "blockNumber": "0x2293e6f",
      "gasUsed": "0xc90f",
      "effectiveGasPrice": "0x68a2786d0",
      "from": "0x7e8d7bfd6cc6b05d056f2e46860d95038f2e3234",
      "to": "0xd21341536c5cf5eb1bcb58f6723ce26e8d8e90e4",
      "contractAddress": null
    },
    {
      "status": "0x1",
      "cumulativeGasUsed": "0x57786",
      "logs": [
        {
          "address": "0x0b9d5d9136855f6fec3c0993fee6e9ce8a297846",
          "topics": [
            "0x8c5be1e5ebec7d5bd14f71427d1e84f3dd0314c0f7b2291e5b200ac8c7c3b925",
            "0x000000000000000000000000551d4756b06857306f9a96a215dc84273a046cbb",
            "0x000000000000000000000000f694e193200268f9a4868e4aa017a0118c9a8177"
          ],
          "data": "0x0000000000000000000000000000000000000000000000000b77cf90880b0ffb",
          "blockHash": "0x432bb2ba2756145dc0c154c803d4ceac6454d642853dc895b73e0a3897a5d14c",
          "blockNumber": "0x2293e70",
          "transactionHash": "0xb67e45250728e8e69009911d686957e9bb33b8bbc4536bdaa5191177af850163",
          "transactionIndex": "0x0",
          "logIndex": "0x0",
          "removed": false
        },
        {
          "address": "0xd21341536c5cf5eb1bcb58f6723ce26e8d8e90e4",
          "topics": [
            "0x8c5be1e5ebec7d5bd14f71427d1e84f3dd0314c0f7b2291e5b200ac8c7c3b925",
            "0x000000000000000000000000551d4756b06857306f9a96a215dc84273a046cbb",
            "0x000000000000000000000000f694e193200268f9a4868e4aa017a0118c9a8177"
          ],
          "data": "0x000000000000000000000000000000000000000000000000002386f26fc10000",
          "blockHash": "0x432bb2ba2756145dc0c154c803d4ceac6454d642853dc895b73e0a3897a5d14c",
          "blockNumber": "0x2293e70",
          "transactionHash": "0xb67e45250728e8e69009911d686957e9bb33b8bbc4536bdaa5191177af850163",
          "transactionIndex": "0x0",
          "logIndex": "0x1",
          "removed": false
        },
        {
          "address": "0x0b9d5d9136855f6fec3c0993fee6e9ce8a297846",
          "topics": [
            "0xddf252ad1be2c89b69c2b068fc378daa952ba7f163c4a11628f55a4df523b3ef",
            "0x000000000000000000000000551d4756b06857306f9a96a215dc84273a046cbb",
            "0x00000000000000000000000075b9a75ee1ffef6be7c4f842a041de7c6153cf4e"
          ],
          "data": "0x0000000000000000000000000000000000000000000000000b77cf90880b0ffb",
          "blockHash": "0x432bb2ba2756145dc0c154c803d4ceac6454d642853dc895b73e0a3897a5d14c",
          "blockNumber": "0x2293e70",
          "transactionHash": "0xb67e45250728e8e69009911d686957e9bb33b8bbc4536bdaa5191177af850163",
          "transactionIndex": "0x0",
          "logIndex": "0x2",
          "removed": false
        },
        {
          "address": "0xd21341536c5cf5eb1bcb58f6723ce26e8d8e90e4",
          "topics": [
            "0x8c5be1e5ebec7d5bd14f71427d1e84f3dd0314c0f7b2291e5b200ac8c7c3b925",
            "0x000000000000000000000000551d4756b06857306f9a96a215dc84273a046cbb",
            "0x000000000000000000000000f694e193200268f9a4868e4aa017a0118c9a8177"
          ],
          "data": "0x0000000000000000000000000000000000000000000000000000000000000000",
          "blockHash": "0x432bb2ba2756145dc0c154c803d4ceac6454d642853dc895b73e0a3897a5d14c",
          "blockNumber": "0x2293e70",
          "transactionHash": "0xb67e45250728e8e69009911d686957e9bb33b8bbc4536bdaa5191177af850163",
          "transactionIndex": "0x0",
          "logIndex": "0x3",
          "removed": false
        },
        {
          "address": "0xd21341536c5cf5eb1bcb58f6723ce26e8d8e90e4",
          "topics": [
            "0xddf252ad1be2c89b69c2b068fc378daa952ba7f163c4a11628f55a4df523b3ef",
            "0x000000000000000000000000551d4756b06857306f9a96a215dc84273a046cbb",
            "0x000000000000000000000000960a399deb6c3475fbc62c16e7588b1bf1f95ae6"
          ],
          "data": "0x000000000000000000000000000000000000000000000000002386f26fc10000",
          "blockHash": "0x432bb2ba2756145dc0c154c803d4ceac6454d642853dc895b73e0a3897a5d14c",
          "blockNumber": "0x2293e70",
          "transactionHash": "0xb67e45250728e8e69009911d686957e9bb33b8bbc4536bdaa5191177af850163",
          "transactionIndex": "0x0",
          "logIndex": "0x4",
          "removed": false
        },
        {
          "address": "0x960a399deb6c3475fbc62c16e7588b1bf1f95ae6",
          "topics": [
            "0x1871cdf8010e63f2eb8384381a68dfa7416dc571a5517e66e88b2d2d0c0a690a"
          ],
          "data": "0x000000000000000000000000000000000000000000000000002386f26fc10000",
          "blockHash": "0x432bb2ba2756145dc0c154c803d4ceac6454d642853dc895b73e0a3897a5d14c",
          "blockNumber": "0x2293e70",
          "transactionHash": "0xb67e45250728e8e69009911d686957e9bb33b8bbc4536bdaa5191177af850163",
          "transactionIndex": "0x0",
          "logIndex": "0x5",
          "removed": false
        },
        {
          "address": "0xd21341536c5cf5eb1bcb58f6723ce26e8d8e90e4",
          "topics": [
            "0xddf252ad1be2c89b69c2b068fc378daa952ba7f163c4a11628f55a4df523b3ef",
            "0x000000000000000000000000960a399deb6c3475fbc62c16e7588b1bf1f95ae6",
            "0x000000000000000000000000ec1062cbdf4fbf31b3a6aac62b6f6f123bb70e12"
          ],
          "data": "0x000000000000000000000000000000000000000000000000002386f26fc10000",
          "blockHash": "0x432bb2ba2756145dc0c154c803d4ceac6454d642853dc895b73e0a3897a5d14c",
          "blockNumber": "0x2293e70",
          "transactionHash": "0xb67e45250728e8e69009911d686957e9bb33b8bbc4536bdaa5191177af850163",
          "transactionIndex": "0x0",
          "logIndex": "0x6",
          "removed": false
        },
        {
          "address": "0xd21341536c5cf5eb1bcb58f6723ce26e8d8e90e4",
          "topics": [
            "0xddf252ad1be2c89b69c2b068fc378daa952ba7f163c4a11628f55a4df523b3ef",
            "0x000000000000000000000000ec1062cbdf4fbf31b3a6aac62b6f6f123bb70e12",
            "0x0000000000000000000000000000000000000000000000000000000000000000"
          ],
          "data": "0x000000000000000000000000000000000000000000000000002386f26fc10000",
          "blockHash": "0x432bb2ba2756145dc0c154c803d4ceac6454d642853dc895b73e0a3897a5d14c",
          "blockNumber": "0x2293e70",
          "transactionHash": "0xb67e45250728e8e69009911d686957e9bb33b8bbc4536bdaa5191177af850163",
          "transactionIndex": "0x0",
          "logIndex": "0x7",
          "removed": false
        },
        {
          "address": "0xec1062cbdf4fbf31b3a6aac62b6f6f123bb70e12",
          "topics": [
            "0x696de425f79f4a40bc6d2122ca50507f0efbeabbff86a84871b7196ab8ea8df7",
            "0x000000000000000000000000960a399deb6c3475fbc62c16e7588b1bf1f95ae6"
          ],
          "data": "0x000000000000000000000000000000000000000000000000002386f26fc10000",
          "blockHash": "0x432bb2ba2756145dc0c154c803d4ceac6454d642853dc895b73e0a3897a5d14c",
          "blockNumber": "0x2293e70",
          "transactionHash": "0xb67e45250728e8e69009911d686957e9bb33b8bbc4536bdaa5191177af850163",
          "transactionIndex": "0x0",
          "logIndex": "0x8",
          "removed": false
        },
        {
          "address": "0x960a399deb6c3475fbc62c16e7588b1bf1f95ae6",
          "topics": [
            "0x696de425f79f4a40bc6d2122ca50507f0efbeabbff86a84871b7196ab8ea8df7",
            "0x00000000000000000000000075b9a75ee1ffef6be7c4f842a041de7c6153cf4e"
          ],
          "data": "0x000000000000000000000000000000000000000000000000002386f26fc10000",
          "blockHash": "0x432bb2ba2756145dc0c154c803d4ceac6454d642853dc895b73e0a3897a5d14c",
          "blockNumber": "0x2293e70",
          "transactionHash": "0xb67e45250728e8e69009911d686957e9bb33b8bbc4536bdaa5191177af850163",
          "transactionIndex": "0x0",
          "logIndex": "0x9",
          "removed": false
        },
        {
          "address": "0x75b9a75ee1ffef6be7c4f842a041de7c6153cf4e",
          "topics": [
            "0xd0c3c799bf9e2639de44391e7f524d229b2b55f5b1ea94b2bf7da42f7243dddd"
          ],
          "data": "0x0000000000000000000000000000000000000000000000000000000000000020000000000000000000000000000000000000000000000000ccf0a31a221f3c9b000000000000000000000000551d4756b06857306f9a96a215dc84273a046cbb00000000000000000000000075042cedff7bf041c374a6e83c1d112fc327c0e4000000000000000000000000000000000000000000000000000000000000005d00000000000000000000000000000000000000000000000000000000000e7ef0000000000000000000000000000000000000000000000000000000000000000000000000000000000000000000000000000000000000000000000000000000010000000000000000000000000b9d5d9136855f6fec3c0993fee6e9ce8a2978460000000000000000000000000000000000000000000000000b77cf90880b0ffb00000000000000000000000000000000000000000000000000000000000001a0000000000000000000000000000000000000000000000000000000000000026000000000000000000000000000000000000000000000000000000000000002c0f30a41bfcff42ff204e243ce47ecfe440c8353e709130646872cdf899d3ec44000000000000000000000000000000000000000000000000000000000000000840fd3c57d0000000000000000000000007e8d7bfd6cc6b05d056f2e46860d95038f2e3234000000000000000000000000000000000000000000000000002386f26fc10000000000000000000000000000551d4756b06857306f9a96a215dc84273a046cbb000000000000000000000000000000000000000000000000ccf0a31a221f3c9b000000000000000000000000000000000000000000000000000000000000000000000000000000000000000000000000000000000000000000000001000000000000000000000000d21341536c5cf5eb1bcb58f6723ce26e8d8e90e4000000000000000000000000000000000000000000000000002386f26fc100000000000000000000000000000000000000000000000000000000000000000001000000000000000000000000000000000000000000000000000000000000002000000000000000000000000000000000000000000000000000000000000001400000000000000000000000000000000000000000000000000000000000000020000000000000000000000000000000000000000000000000000000000000008000000000000000000000000000000000000000000000000000000000000000c000000000000000000000000000000000000000000000000000000000000001000000000000000000000000000000000000000000000000000000000000015f900000000000000000000000000000000000000000000000000000000000000020000000000000000000000000960a399deb6c3475fbc62c16e7588b1bf1f95ae60000000000000000000000000000000000000000000000000000000000000020000000000000000000000000fd57b4ddbf88a4e07ff4e34c487b99af2fe82a050000000000000000000000000000000000000000000000000000000000000000",
          "blockHash": "0x432bb2ba2756145dc0c154c803d4ceac6454d642853dc895b73e0a3897a5d14c",
          "blockNumber": "0x2293e70",
          "transactionHash": "0xb67e45250728e8e69009911d686957e9bb33b8bbc4536bdaa5191177af850163",
          "transactionIndex": "0x0",
          "logIndex": "0xa",
          "removed": false
        }
      ],
      "logsBloom": "0x010000000c0000000001000000000000000000000000000000000000000000000000000010000000802000000000000000000000000000000000000000200000000000000000020000000008000002000000000000000000000000000000000000002000060000000000024000000802040000000008000000000010000000100008000000000000000000000000000000000000000000000000020000000000024000000000000600000000000040000080000400000800000101100000000000000002000000000000000000000000000001000040000800400000000020000010000000000000000000000000000004000200000000400000000100400000",
      "type": "0x2",
      "transactionHash": "0xb67e45250728e8e69009911d686957e9bb33b8bbc4536bdaa5191177af850163",
      "transactionIndex": "0x0",
      "blockHash": "0x432bb2ba2756145dc0c154c803d4ceac6454d642853dc895b73e0a3897a5d14c",
      "blockNumber": "0x2293e70",
      "gasUsed": "0x57786",
      "effectiveGasPrice": "0x68a2786d0",
      "from": "0x7e8d7bfd6cc6b05d056f2e46860d95038f2e3234",
      "to": "0x551d4756b06857306f9a96a215dc84273a046cbb",
      "contractAddress": null
    }
  ],
  "libraries": [],
  "pending": [],
  "returns": {},
  "timestamp": 1728678136,
  "chain": 43113,
  "commit": "90333d4"
}