{
  "transactions": [
    {
      "hash": "0x915f911bc00c96453ede27bb649be4d1662675f5bb4475295fce1568b62e4565",
      "transactionType": "CALL",
      "contractName": null,
      "contractAddress": "0x0b9d5d9136855f6fec3c0993fee6e9ce8a297846",
      "function": "transfer(address,uint256)",
      "arguments": [
        "0x3E7d044D53aACe079F3C4E818DBf65Dd49f9654a",
        "10000000000000000000"
      ],
      "transaction": {
        "from": "0x7e8d7bfd6cc6b05d056f2e46860d95038f2e3234",
        "to": "0x0b9d5d9136855f6fec3c0993fee6e9ce8a297846",
        "gas": "0x1287c",
        "value": "0x0",
        "input": "0xa9059cbb0000000000000000000000003e7d044d53aace079f3c4e818dbf65dd49f9654a0000000000000000000000000000000000000000000000008ac7230489e80000",
        "nonce": "0x201",
        "chainId": "0xa869"
      },
      "additionalContracts": [],
      "isFixedGasLimit": false
    },
    {
      "hash": "0xf8730686459146bed45ce6ce5186393efe5bef6ca8277ba8f733ed94d189027d",
      "transactionType": "CALL",
      "contractName": null,
      "contractAddress": "0x3e7d044d53aace079f3c4e818dbf65dd49f9654a",
      "function": "sendMessage(address,uint256,address)",
      "arguments": [
        "0x74BA1e2139dD920290e9e0C202b1727D8F19716d",
        "100000000000000000",
        "0x7E8d7BFd6cc6B05d056f2E46860D95038f2E3234"
      ],
      "transaction": {
        "from": "0x7e8d7bfd6cc6b05d056f2e46860d95038f2e3234",
        "to": "0x3e7d044d53aace079f3c4e818dbf65dd49f9654a",
        "gas": "0x3fe33",
        "value": "0x0",
        "input": "0x6ad1079200000000000000000000000074ba1e2139dd920290e9e0c202b1727d8f19716d000000000000000000000000000000000000000000000000016345785d8a00000000000000000000000000007e8d7bfd6cc6b05d056f2e46860d95038f2e3234",
        "nonce": "0x202",
        "chainId": "0xa869"
      },
      "additionalContracts": [],
      "isFixedGasLimit": false
    }
  ],
  "receipts": [
    {
      "status": "0x1",
      "cumulativeGasUsed": "0xcaba",
      "logs": [
        {
          "address": "0x0b9d5d9136855f6fec3c0993fee6e9ce8a297846",
          "topics": [
            "0xddf252ad1be2c89b69c2b068fc378daa952ba7f163c4a11628f55a4df523b3ef",
            "0x0000000000000000000000007e8d7bfd6cc6b05d056f2e46860d95038f2e3234",
            "0x0000000000000000000000003e7d044d53aace079f3c4e818dbf65dd49f9654a"
          ],
          "data": "0x0000000000000000000000000000000000000000000000008ac7230489e80000",
          "blockHash": "0x05e13b499324bbc4b76355458783b07b23f5292fe761a7f51fd04acf20d641a5",
          "blockNumber": "0x2293906",
          "transactionHash": "0x915f911bc00c96453ede27bb649be4d1662675f5bb4475295fce1568b62e4565",
          "transactionIndex": "0x0",
          "logIndex": "0x0",
          "removed": false
        }
      ],
      "logsBloom": "0x01000000000000000000000000000000000000000000000000000000000000000000000000000000000000000000000000000000000000000000000000000000000000004000000000000008000000000000000000801000000000000000000000000000000000000000000000000000000000000000008000000010000000000000000000000000000000000000000000000000000000000080000000000000000000000000000200000000000000000000002000000000000000000000000000000002000000000000000000000000000000000000000800000000000000000000000000000000000000000000000000000000000000000000000000000000",
      "type": "0x2",
      "transactionHash": "0x915f911bc00c96453ede27bb649be4d1662675f5bb4475295fce1568b62e4565",
      "transactionIndex": "0x0",
      "blockHash": "0x05e13b499324bbc4b76355458783b07b23f5292fe761a7f51fd04acf20d641a5",
      "blockNumber": "0x2293906",
      "gasUsed": "0xcaba",
      "effectiveGasPrice": "0x6ca5c7278",
      "from": "0x7e8d7bfd6cc6b05d056f2e46860d95038f2e3234",
      "to": "0x0b9d5d9136855f6fec3c0993fee6e9ce8a297846",
      "contractAddress": null
    },
    {
      "status": "0x1",
      "cumulativeGasUsed": "0x3fc85",
      "logs": [
        {
          "address": "0x0b9d5d9136855f6fec3c0993fee6e9ce8a297846",
          "topics": [
            "0x8c5be1e5ebec7d5bd14f71427d1e84f3dd0314c0f7b2291e5b200ac8c7c3b925",
            "0x0000000000000000000000003e7d044d53aace079f3c4e818dbf65dd49f9654a",
            "0x000000000000000000000000f694e193200268f9a4868e4aa017a0118c9a8177"
          ],
          "data": "0x0000000000000000000000000000000000000000000000002813b6c2459ce9f9",
          "blockHash": "0x05e13b499324bbc4b76355458783b07b23f5292fe761a7f51fd04acf20d641a5",
          "blockNumber": "0x2293906",
          "transactionHash": "0xf8730686459146bed45ce6ce5186393efe5bef6ca8277ba8f733ed94d189027d",
          "transactionIndex": "0x1",
          "logIndex": "0x1",
          "removed": false
        },
        {
          "address": "0xd21341536c5cf5eb1bcb58f6723ce26e8d8e90e4",
          "topics": [
            "0x8c5be1e5ebec7d5bd14f71427d1e84f3dd0314c0f7b2291e5b200ac8c7c3b925",
            "0x0000000000000000000000003e7d044d53aace079f3c4e818dbf65dd49f9654a",
            "0x000000000000000000000000f694e193200268f9a4868e4aa017a0118c9a8177"
          ],
          "data": "0x000000000000000000000000000000000000000000000000016345785d8a0000",
          "blockHash": "0x05e13b499324bbc4b76355458783b07b23f5292fe761a7f51fd04acf20d641a5",
          "blockNumber": "0x2293906",
          "transactionHash": "0xf8730686459146bed45ce6ce5186393efe5bef6ca8277ba8f733ed94d189027d",
          "transactionIndex": "0x1",
          "logIndex": "0x2",
          "removed": false
        },
        {
          "address": "0x0b9d5d9136855f6fec3c0993fee6e9ce8a297846",
          "topics": [
            "0xddf252ad1be2c89b69c2b068fc378daa952ba7f163c4a11628f55a4df523b3ef",
            "0x0000000000000000000000003e7d044d53aace079f3c4e818dbf65dd49f9654a",
            "0x00000000000000000000000075b9a75ee1ffef6be7c4f842a041de7c6153cf4e"
          ],
          "data": "0x0000000000000000000000000000000000000000000000002813b6c2459ce9f9",
          "blockHash": "0x05e13b499324bbc4b76355458783b07b23f5292fe761a7f51fd04acf20d641a5",
          "blockNumber": "0x2293906",
          "transactionHash": "0xf8730686459146bed45ce6ce5186393efe5bef6ca8277ba8f733ed94d189027d",
          "transactionIndex": "0x1",
          "logIndex": "0x3",
          "removed": false
        },
        {
          "address": "0x75b9a75ee1ffef6be7c4f842a041de7c6153cf4e",
          "topics": [
            "0xd0c3c799bf9e2639de44391e7f524d229b2b55f5b1ea94b2bf7da42f7243dddd"
          ],
          "data": "0x0000000000000000000000000000000000000000000000000000000000000020000000000000000000000000000000000000000000000000ccf0a31a221f3c9b0000000000000000000000003e7d044d53aace079f3c4e818dbf65dd49f9654a00000000000000000000000074ba1e2139dd920290e9e0c202b1727d8f19716d0000000000000000000000000000000000000000000000000000000000000054000000000000000000000000000000000000000000000000000000000007a120000000000000000000000000000000000000000000000000000000000000000000000000000000000000000000000000000000000000000000000000000000010000000000000000000000000b9d5d9136855f6fec3c0993fee6e9ce8a2978460000000000000000000000000000000000000000000000002813b6c2459ce9f900000000000000000000000000000000000000000000000000000000000001a000000000000000000000000000000000000000000000000000000000000001c000000000000000000000000000000000000000000000000000000000000001e01a5bfc48e6483e90580da275ae6a1953dc198dfd2161486786311e0beb261f3c000000000000000000000000000000000000000000000000000000000000000000000000000000000000000000000000000000000000000000000000000000000000000000000000000000000000000000000000000000000000000000000000",
          "blockHash": "0x05e13b499324bbc4b76355458783b07b23f5292fe761a7f51fd04acf20d641a5",
          "blockNumber": "0x2293906",
          "transactionHash": "0xf8730686459146bed45ce6ce5186393efe5bef6ca8277ba8f733ed94d189027d",
          "transactionIndex": "0x1",
          "logIndex": "0x4",
          "removed": false
        }
      ],
      "logsBloom": "0x01000000000000000001000000000000000000000000000000000000000000000000000000000000000000000000000000000000000000000000000000200000000000000000000000000008000000000000000000000000000000000000000000000000000000000000000000000000000000000008008000000010000000000008000000000000000000000000000000000000000000000080000000000000020000000000000600000000000000000080002000000800000100100000000000000002000000000000000000000000000001000040000800000000000000000010000000000000000000000000000004000200000000400000000100400000",
      "type": "0x2",
      "transactionHash": "0xf8730686459146bed45ce6ce5186393efe5bef6ca8277ba8f733ed94d189027d",
      "transactionIndex": "0x1",
      "blockHash": "0x05e13b499324bbc4b76355458783b07b23f5292fe761a7f51fd04acf20d641a5",
      "blockNumber": "0x2293906",
      "gasUsed": "0x331cb",
      "effectiveGasPrice": "0x6ca5c7278",
      "from": "0x7e8d7bfd6cc6b05d056f2e46860d95038f2e3234",
      "to": "0x3e7d044d53aace079f3c4e818dbf65dd49f9654a",
      "contractAddress": null
    }
  ],
  "libraries": [],
  "pending": [],
  "returns": {},
  "timestamp": 1728667368,
  "chain": 43113,
  "commit": "90333d4"
}