{
  "transactions": [
    {
      "hash": "0xe2bf143670f2fe976eba6dde0924bb72cd5181d5a02d923788d07301a0592679",
      "transactionType": "CALL",
      "contractName": null,
      "contractAddress": "0x0b9d5d9136855f6fec3c0993fee6e9ce8a297846",
      "function": "transfer(address,uint256)",
      "arguments": [
        "0x65247c14fc00fEd939d670bb9ca6C5F391856250",
        "5000000000000000000"
      ],
      "transaction": {
        "from": "0x7e8d7bfd6cc6b05d056f2e46860d95038f2e3234",
        "to": "0x0b9d5d9136855f6fec3c0993fee6e9ce8a297846",
        "gas": "0x117f2",
        "value": "0x0",
        "input": "0xa9059cbb00000000000000000000000065247c14fc00fed939d670bb9ca6c5f3918562500000000000000000000000000000000000000000000000004563918244f40000",
        "nonce": "0x213",
        "chainId": "0xa869"
      },
      "additionalContracts": [],
      "isFixedGasLimit": false
    },
    {
      "hash": "0x7a6cadec643bdf8e4f358d3d265e111d1c3a9d5d3084eba40713e9fef465749e",
      "transactionType": "CALL",
      "contractName": null,
      "contractAddress": "0xd21341536c5cf5eb1bcb58f6723ce26e8d8e90e4",
      "function": "transfer(address,uint256)",
      "arguments": [
        "0x65247c14fc00fEd939d670bb9ca6C5F391856250",
        "10000000000000000"
      ],
      "transaction": {
        "from": "0x7e8d7bfd6cc6b05d056f2e46860d95038f2e3234",
        "to": "0xd21341536c5cf5eb1bcb58f6723ce26e8d8e90e4",
        "gas": "0x125fa",
        "value": "0x0",
        "input": "0xa9059cbb00000000000000000000000065247c14fc00fed939d670bb9ca6c5f391856250000000000000000000000000000000000000000000000000002386f26fc10000",
        "nonce": "0x214",
        "chainId": "0xa869"
      },
      "additionalContracts": [],
      "isFixedGasLimit": false
    },
    {
      "hash": "0x8be44f3664283608097ba33e5cc9a4bcd5eaa832923f0135b38dbf896b12a270",
      "transactionType": "CALL",
      "contractName": null,
      "contractAddress": "0x65247c14fc00fed939d670bb9ca6c5f391856250",
      "function": "sendMessage(address,uint256,address)",
      "arguments": [
        "0x0cd1B5c7BA5e139AA4CA2dEfe0cb3e2541CF67e1",
        "10000000000000000",
        "0x7E8d7BFd6cc6B05d056f2E46860D95038f2E3234"
      ],
      "transaction": {
        "from": "0x7e8d7bfd6cc6b05d056f2e46860d95038f2e3234",
        "to": "0x65247c14fc00fed939d670bb9ca6c5f391856250",
        "gas": "0x6068d",
        "value": "0x0",
        "input": "0x6ad107920000000000000000000000000cd1b5c7ba5e139aa4ca2defe0cb3e2541cf67e1000000000000000000000000000000000000000000000000002386f26fc100000000000000000000000000007e8d7bfd6cc6b05d056f2e46860d95038f2e3234",
        "nonce": "0x215",
        "chainId": "0xa869"
      },
      "additionalContracts": [],
      "isFixedGasLimit": false
    }
  ],
  "receipts": [
    {
      "status": "0x1",
      "cumulativeGasUsed": "0xcaae",
      "logs": [
        {
          "address": "0x0b9d5d9136855f6fec3c0993fee6e9ce8a297846",
          "topics": [
            "0xddf252ad1be2c89b69c2b068fc378daa952ba7f163c4a11628f55a4df523b3ef",
            "0x0000000000000000000000007e8d7bfd6cc6b05d056f2e46860d95038f2e3234",
            "0x00000000000000000000000065247c14fc00fed939d670bb9ca6c5f391856250"
          ],
          "data": "0x0000000000000000000000000000000000000000000000004563918244f40000",
          "blockHash": "0x539b6052b4b7576d23486fc5307b4daeeca3eeb4b2c92d3934eddd0e812ad3f1",
          "blockNumber": "0x2293c67",
          "transactionHash": "0xe2bf143670f2fe976eba6dde0924bb72cd5181d5a02d923788d07301a0592679",
          "transactionIndex": "0x0",
          "logIndex": "0x0",
          "removed": false
        }
      ],
      "logsBloom": "0x01000000000000000000000000000000000000002000000000000000000000000000000000000000000000000000000000000000000000000000000000000000000000004000000000001008000000000000000000801000000000000000000000000000000000000000000000000000000000000000000000000010000000000000000000000000000000000000000000000000000000000000000000000000000000000000000200000000000000000000000000000000000000000000000000000002000000000000000000000000000000000000000800000000000000000000000000000000000200000000000000000000000000000000000000000000",
      "type": "0x2",
      "transactionHash": "0xe2bf143670f2fe976eba6dde0924bb72cd5181d5a02d923788d07301a0592679",
      "transactionIndex": "0x0",
      "blockHash": "0x539b6052b4b7576d23486fc5307b4daeeca3eeb4b2c92d3934eddd0e812ad3f1",
      "blockNumber": "0x2293c67",
      "gasUsed": "0xcaae",
      "effectiveGasPrice": "0x693d4ca80",
      "from": "0x7e8d7bfd6cc6b05d056f2e46860d95038f2e3234",
      "to": "0x0b9d5d9136855f6fec3c0993fee6e9ce8a297846",
      "contractAddress": null
    },
    {
      "status": "0x1",
      "cumulativeGasUsed": "0xc903",
      "logs": [
        {
          "address": "0xd21341536c5cf5eb1bcb58f6723ce26e8d8e90e4",
          "topics": [
            "0xddf252ad1be2c89b69c2b068fc378daa952ba7f163c4a11628f55a4df523b3ef",
            "0x0000000000000000000000007e8d7bfd6cc6b05d056f2e46860d95038f2e3234",
            "0x00000000000000000000000065247c14fc00fed939d670bb9ca6c5f391856250"
          ],
          "data": "0x000000000000000000000000000000000000000000000000002386f26fc10000",
          "blockHash": "0x678543af4ca74535d070c5f35c0b4d0af06107733926ca7745c138b2316fc5a5",
          "blockNumber": "0x2293c68",
          "transactionHash": "0x7a6cadec643bdf8e4f358d3d265e111d1c3a9d5d3084eba40713e9fef465749e",
          "transactionIndex": "0x0",
          "logIndex": "0x0",
          "removed": false
        }
      ],
      "logsBloom": "0x00000000000000000000000000000000000000002000000000000000000000000000000000000000000000000000000000000000000000000000000000000000000000004000000000001008000000000000000000801000000000000000000000000000000000000000000000000000000000000000000000000010000000000000000000000000000000000000000000000000000000000000000000000000000000000000000000000000000000000000000000000000000000000000000000000002000000000000000000000000000001000000000000000000000000000000000000000000000200000000000000000000000000400000000000400000",
      "type": "0x2",
      "transactionHash": "0x7a6cadec643bdf8e4f358d3d265e111d1c3a9d5d3084eba40713e9fef465749e",
      "transactionIndex": "0x0",
      "blockHash": "0x678543af4ca74535d070c5f35c0b4d0af06107733926ca7745c138b2316fc5a5",
      "blockNumber": "0x2293c68",
      "gasUsed": "0xc903",
      "effectiveGasPrice": "0x693d4ca80",
      "from": "0x7e8d7bfd6cc6b05d056f2e46860d95038f2e3234",
      "to": "0xd21341536c5cf5eb1bcb58f6723ce26e8d8e90e4",
      "contractAddress": null
    },
    {
      "status": "0x1",
      "cumulativeGasUsed": "0x63cfd",
      "logs": [
        {
          "address": "0x0b9d5d9136855f6fec3c0993fee6e9ce8a297846",
          "topics": [
            "0x8c5be1e5ebec7d5bd14f71427d1e84f3dd0314c0f7b2291e5b200ac8c7c3b925",
            "0x00000000000000000000000065247c14fc00fed939d670bb9ca6c5f391856250",
            "0x000000000000000000000000f694e193200268f9a4868e4aa017a0118c9a8177"
          ],
          "data": "0x0000000000000000000000000000000000000000000000001a16517d87dde225",
          "blockHash": "0x678543af4ca74535d070c5f35c0b4d0af06107733926ca7745c138b2316fc5a5",
          "blockNumber": "0x2293c68",
          "transactionHash": "0x8be44f3664283608097ba33e5cc9a4bcd5eaa832923f0135b38dbf896b12a270",
          "transactionIndex": "0x1",
          "logIndex": "0x1",
          "removed": false
        },
        {
          "address": "0xd21341536c5cf5eb1bcb58f6723ce26e8d8e90e4",
          "topics": [
            "0x8c5be1e5ebec7d5bd14f71427d1e84f3dd0314c0f7b2291e5b200ac8c7c3b925",
            "0x00000000000000000000000065247c14fc00fed939d670bb9ca6c5f391856250",
            "0x000000000000000000000000f694e193200268f9a4868e4aa017a0118c9a8177"
          ],
          "data": "0x000000000000000000000000000000000000000000000000002386f26fc10000",
          "blockHash": "0x678543af4ca74535d070c5f35c0b4d0af06107733926ca7745c138b2316fc5a5",
          "blockNumber": "0x2293c68",
          "transactionHash": "0x8be44f3664283608097ba33e5cc9a4bcd5eaa832923f0135b38dbf896b12a270",
          "transactionIndex": "0x1",
          "logIndex": "0x2",
          "removed": false
        },
        {
          "address": "0x0b9d5d9136855f6fec3c0993fee6e9ce8a297846",
          "topics": [
            "0xddf252ad1be2c89b69c2b068fc378daa952ba7f163c4a11628f55a4df523b3ef",
            "0x00000000000000000000000065247c14fc00fed939d670bb9ca6c5f391856250",
            "0x00000000000000000000000075b9a75ee1ffef6be7c4f842a041de7c6153cf4e"
          ],
          "data": "0x0000000000000000000000000000000000000000000000001a16517d87dde225",
          "blockHash": "0x678543af4ca74535d070c5f35c0b4d0af06107733926ca7745c138b2316fc5a5",
          "blockNumber": "0x2293c68",
          "transactionHash": "0x8be44f3664283608097ba33e5cc9a4bcd5eaa832923f0135b38dbf896b12a270",
          "transactionIndex": "0x1",
          "logIndex": "0x3",
          "removed": false
        },
        {
          "address": "0xd21341536c5cf5eb1bcb58f6723ce26e8d8e90e4",
          "topics": [
            "0x8c5be1e5ebec7d5bd14f71427d1e84f3dd0314c0f7b2291e5b200ac8c7c3b925",
            "0x00000000000000000000000065247c14fc00fed939d670bb9ca6c5f391856250",
            "0x000000000000000000000000f694e193200268f9a4868e4aa017a0118c9a8177"
          ],
          "data": "0x0000000000000000000000000000000000000000000000000000000000000000",
          "blockHash": "0x678543af4ca74535d070c5f35c0b4d0af06107733926ca7745c138b2316fc5a5",
          "blockNumber": "0x2293c68",
          "transactionHash": "0x8be44f3664283608097ba33e5cc9a4bcd5eaa832923f0135b38dbf896b12a270",
          "transactionIndex": "0x1",
          "logIndex": "0x4",
          "removed": false
        },
        {
          "address": "0xd21341536c5cf5eb1bcb58f6723ce26e8d8e90e4",
          "topics": [
            "0xddf252ad1be2c89b69c2b068fc378daa952ba7f163c4a11628f55a4df523b3ef",
            "0x00000000000000000000000065247c14fc00fed939d670bb9ca6c5f391856250",
            "0x000000000000000000000000960a399deb6c3475fbc62c16e7588b1bf1f95ae6"
          ],
          "data": "0x000000000000000000000000000000000000000000000000002386f26fc10000",
          "blockHash": "0x678543af4ca74535d070c5f35c0b4d0af06107733926ca7745c138b2316fc5a5",
          "blockNumber": "0x2293c68",
          "transactionHash": "0x8be44f3664283608097ba33e5cc9a4bcd5eaa832923f0135b38dbf896b12a270",
          "transactionIndex": "0x1",
          "logIndex": "0x5",
          "removed": false
        },
        {
          "address": "0x960a399deb6c3475fbc62c16e7588b1bf1f95ae6",
          "topics": [
            "0x1871cdf8010e63f2eb8384381a68dfa7416dc571a5517e66e88b2d2d0c0a690a"
          ],
          "data": "0x000000000000000000000000000000000000000000000000002386f26fc10000",
          "blockHash": "0x678543af4ca74535d070c5f35c0b4d0af06107733926ca7745c138b2316fc5a5",
          "blockNumber": "0x2293c68",
          "transactionHash": "0x8be44f3664283608097ba33e5cc9a4bcd5eaa832923f0135b38dbf896b12a270",
          "transactionIndex": "0x1",
          "logIndex": "0x6",
          "removed": false
        },
        {
          "address": "0xd21341536c5cf5eb1bcb58f6723ce26e8d8e90e4",
          "topics": [
            "0xddf252ad1be2c89b69c2b068fc378daa952ba7f163c4a11628f55a4df523b3ef",
            "0x000000000000000000000000960a399deb6c3475fbc62c16e7588b1bf1f95ae6",
            "0x000000000000000000000000ec1062cbdf4fbf31b3a6aac62b6f6f123bb70e12"
          ],
          "data": "0x000000000000000000000000000000000000000000000000002386f26fc10000",
          "blockHash": "0x678543af4ca74535d070c5f35c0b4d0af06107733926ca7745c138b2316fc5a5",
          "blockNumber": "0x2293c68",
          "transactionHash": "0x8be44f3664283608097ba33e5cc9a4bcd5eaa832923f0135b38dbf896b12a270",
          "transactionIndex": "0x1",
          "logIndex": "0x7",
          "removed": false
        },
        {
          "address": "0xd21341536c5cf5eb1bcb58f6723ce26e8d8e90e4",
          "topics": [
            "0xddf252ad1be2c89b69c2b068fc378daa952ba7f163c4a11628f55a4df523b3ef",
            "0x000000000000000000000000ec1062cbdf4fbf31b3a6aac62b6f6f123bb70e12",
            "0x0000000000000000000000000000000000000000000000000000000000000000"
          ],
          "data": "0x000000000000000000000000000000000000000000000000002386f26fc10000",
          "blockHash": "0x678543af4ca74535d070c5f35c0b4d0af06107733926ca7745c138b2316fc5a5",
          "blockNumber": "0x2293c68",
          "transactionHash": "0x8be44f3664283608097ba33e5cc9a4bcd5eaa832923f0135b38dbf896b12a270",
          "transactionIndex": "0x1",
          "logIndex": "0x8",
          "removed": false
        },
        {
          "address": "0xec1062cbdf4fbf31b3a6aac62b6f6f123bb70e12",
          "topics": [
            "0x696de425f79f4a40bc6d2122ca50507f0efbeabbff86a84871b7196ab8ea8df7",
            "0x000000000000000000000000960a399deb6c3475fbc62c16e7588b1bf1f95ae6"
          ],
          "data": "0x000000000000000000000000000000000000000000000000002386f26fc10000",
          "blockHash": "0x678543af4ca74535d070c5f35c0b4d0af06107733926ca7745c138b2316fc5a5",
          "blockNumber": "0x2293c68",
          "transactionHash": "0x8be44f3664283608097ba33e5cc9a4bcd5eaa832923f0135b38dbf896b12a270",
          "transactionIndex": "0x1",
          "logIndex": "0x9",
          "removed": false
        },
        {
          "address": "0x960a399deb6c3475fbc62c16e7588b1bf1f95ae6",
          "topics": [
            "0x696de425f79f4a40bc6d2122ca50507f0efbeabbff86a84871b7196ab8ea8df7",
            "0x00000000000000000000000075b9a75ee1ffef6be7c4f842a041de7c6153cf4e"
          ],
          "data": "0x000000000000000000000000000000000000000000000000002386f26fc10000",
          "blockHash": "0x678543af4ca74535d070c5f35c0b4d0af06107733926ca7745c138b2316fc5a5",
          "blockNumber": "0x2293c68",
          "transactionHash": "0x8be44f3664283608097ba33e5cc9a4bcd5eaa832923f0135b38dbf896b12a270",
          "transactionIndex": "0x1",
          "logIndex": "0xa",
          "removed": false
        },
        {
          "address": "0x75b9a75ee1ffef6be7c4f842a041de7c6153cf4e",
          "topics": [
            "0xd0c3c799bf9e2639de44391e7f524d229b2b55f5b1ea94b2bf7da42f7243dddd"
          ],
          "data": "0x0000000000000000000000000000000000000000000000000000000000000020000000000000000000000000000000000000000000000000ccf0a31a221f3c9b00000000000000000000000065247c14fc00fed939d670bb9ca6c5f3918562500000000000000000000000000cd1b5c7ba5e139aa4ca2defe0cb3e2541cf67e1000000000000000000000000000000000000000000000000000000000000005a00000000000000000000000000000000000000000000000000000000000e7ef0000000000000000000000000000000000000000000000000000000000000000000000000000000000000000000000000000000000000000000000000000000010000000000000000000000000b9d5d9136855f6fec3c0993fee6e9ce8a2978460000000000000000000000000000000000000000000000001a16517d87dde22500000000000000000000000000000000000000000000000000000000000001a0000000000000000000000000000000000000000000000000000000000000024000000000000000000000000000000000000000000000000000000000000002a047564c707d36e4d5b1755f2d7a6eea72e9e911b32cd119f8e3104b3cf66f03b70000000000000000000000000000000000000000000000000000000000000064bbaa3c820000000000000000000000007e8d7bfd6cc6b05d056f2e46860d95038f2e3234000000000000000000000000000000000000000000000000002386f26fc1000000000000000000000000000065247c14fc00fed939d670bb9ca6c5f391856250000000000000000000000000000000000000000000000000000000000000000000000000000000000000000000000000000000000000000000000001000000000000000000000000d21341536c5cf5eb1bcb58f6723ce26e8d8e90e4000000000000000000000000000000000000000000000000002386f26fc100000000000000000000000000000000000000000000000000000000000000000001000000000000000000000000000000000000000000000000000000000000002000000000000000000000000000000000000000000000000000000000000001400000000000000000000000000000000000000000000000000000000000000020000000000000000000000000000000000000000000000000000000000000008000000000000000000000000000000000000000000000000000000000000000c000000000000000000000000000000000000000000000000000000000000001000000000000000000000000000000000000000000000000000000000000015f900000000000000000000000000000000000000000000000000000000000000020000000000000000000000000960a399deb6c3475fbc62c16e7588b1bf1f95ae60000000000000000000000000000000000000000000000000000000000000020000000000000000000000000fd57b4ddbf88a4e07ff4e34c487b99af2fe82a050000000000000000000000000000000000000000000000000000000000000000",
          "blockHash": "0x678543af4ca74535d070c5f35c0b4d0af06107733926ca7745c138b2316fc5a5",
          "blockNumber": "0x2293c68",
          "transactionHash": "0x8be44f3664283608097ba33e5cc9a4bcd5eaa832923f0135b38dbf896b12a270",
          "transactionIndex": "0x1",
          "logIndex": "0xb",
          "removed": false
        }
      ],
      "logsBloom": "0x010000000c0000000001000000000000000000002000000000000000000000000000000010000000002000000000000000000000000000000000000000200000000000000000020000001008000002000000000000000000000000000000000000002000060000000000004000000802040000000008000000000010000000100008000000000000000000000000000000000000000000000000000000000000024000000000000600000000000040000080000400000800000101100000000000000002000000000000000000000000000001000040000800400000000020000010000000000000000200000000000004000200000000400000000100400000",
      "type": "0x2",
      "transactionHash": "0x8be44f3664283608097ba33e5cc9a4bcd5eaa832923f0135b38dbf896b12a270",
      "transactionIndex": "0x1",
      "blockHash": "0x678543af4ca74535d070c5f35c0b4d0af06107733926ca7745c138b2316fc5a5",
      "blockNumber": "0x2293c68",
      "gasUsed": "0x573fa",
      "effectiveGasPrice": "0x693d4ca80",
      "from": "0x7e8d7bfd6cc6b05d056f2e46860d95038f2e3234",
      "to": "0x65247c14fc00fed939d670bb9ca6c5f391856250",
      "contractAddress": null
    }
  ],
  "libraries": [],
  "pending": [],
  "returns": {},
  "timestamp": 1728673503,
  "chain": 43113,
  "commit": "90333d4"
}