{
  "transactions": [
    {
      "hash": "0x2a821b56398e2b24caba1c8aa344bd0f2acc994531947aede44e9877db548bd5",
      "transactionType": "CALL",
      "contractName": null,
      "contractAddress": "0x0b9d5d9136855f6fec3c0993fee6e9ce8a297846",
      "function": "transfer(address,uint256)",
      "arguments": [
        "0x75F53657dfE91c4d1C2729880CA279F890488De0",
        "5000000000000000000"
      ],
      "transaction": {
        "from": "0x7e8d7bfd6cc6b05d056f2e46860d95038f2e3234",
        "to": "0x0b9d5d9136855f6fec3c0993fee6e9ce8a297846",
        "gas": "0x1287c",
        "value": "0x0",
        "input": "0xa9059cbb00000000000000000000000075f53657dfe91c4d1c2729880ca279f890488de00000000000000000000000000000000000000000000000004563918244f40000",
        "nonce": "0x224",
        "chainId": "0xa869"
      },
      "additionalContracts": [],
      "isFixedGasLimit": false
    },
    {
      "hash": "0x25a026d790319cd3cceabe9ec86d8eeae6e6bff4687ff99f540ce8efd1b0c3e8",
      "transactionType": "CALL",
      "contractName": null,
      "contractAddress": "0xd21341536c5cf5eb1bcb58f6723ce26e8d8e90e4",
      "function": "transfer(address,uint256)",
      "arguments": [
        "0x75F53657dfE91c4d1C2729880CA279F890488De0",
        "12000000000000000"
      ],
      "transaction": {
        "from": "0x7e8d7bfd6cc6b05d056f2e46860d95038f2e3234",
        "to": "0xd21341536c5cf5eb1bcb58f6723ce26e8d8e90e4",
        "gas": "0x115b5",
        "value": "0x0",
        "input": "0xa9059cbb00000000000000000000000075f53657dfe91c4d1c2729880ca279f890488de0000000000000000000000000000000000000000000000000002aa1efb94e0000",
        "nonce": "0x225",
        "chainId": "0xa869"
      },
      "additionalContracts": [],
      "isFixedGasLimit": false
    },
    {
      "hash": "0x47bcfde7a0efa1a657da3ffa134e3e86afe0e9958c8c3ebd41f5808a0b5af3b1",
      "transactionType": "CALL",
      "contractName": null,
      "contractAddress": "0x75f53657dfe91c4d1c2729880ca279f890488de0",
      "function": "sendMessage(address,uint256,address)",
      "arguments": [
        "0xC0C6Ad956DF411251431eA139fAEa3a634D99C26",
        "12000000000000000",
        "0x7E8d7BFd6cc6B05d056f2E46860D95038f2E3234"
      ],
      "transaction": {
        "from": "0x7e8d7bfd6cc6b05d056f2e46860d95038f2e3234",
        "to": "0x75f53657dfe91c4d1c2729880ca279f890488de0",
        "gas": "0x60a78",
        "value": "0x0",
        "input": "0x6ad10792000000000000000000000000c0c6ad956df411251431ea139faea3a634d99c26000000000000000000000000000000000000000000000000002aa1efb94e00000000000000000000000000007e8d7bfd6cc6b05d056f2e46860d95038f2e3234",
        "nonce": "0x226",
        "chainId": "0xa869"
      },
      "additionalContracts": [],
      "isFixedGasLimit": false
    }
  ],
  "receipts": [
    {
      "status": "0x1",
      "cumulativeGasUsed": "0xcaba",
      "logs": [
        {
          "address": "0x0b9d5d9136855f6fec3c0993fee6e9ce8a297846",
          "topics": [
            "0xddf252ad1be2c89b69c2b068fc378daa952ba7f163c4a11628f55a4df523b3ef",
            "0x0000000000000000000000007e8d7bfd6cc6b05d056f2e46860d95038f2e3234",
            "0x00000000000000000000000075f53657dfe91c4d1c2729880ca279f890488de0"
          ],
          "data": "0x0000000000000000000000000000000000000000000000004563918244f40000",
          "blockHash": "0xc652efba544d814ecad52411aa493f10507405037d7c358e7d637fdb4bbb7097",
          "blockNumber": "0x2293eab",
          "transactionHash": "0x2a821b56398e2b24caba1c8aa344bd0f2acc994531947aede44e9877db548bd5",
          "transactionIndex": "0x0",
          "logIndex": "0x0",
          "removed": false
        }
      ],
      "logsBloom": "0x01000000000000000000000000000000000000000000008000000000000000000000000000000000000000000000000000000000000000000000000000000000000000004000000000000008000000000000000000801000000000000000000000000000000000000000000000000000000000000000000000000010000000000000000000000000000000000000000000000000000000000000000000000000000000000000000200000000000000000000040000000000000000000000000000000002000000000000000020000000000000000000000800000000000000000000000000000000000000000000000000000000000000000000000000000000",
      "type": "0x2",
      "transactionHash": "0x2a821b56398e2b24caba1c8aa344bd0f2acc994531947aede44e9877db548bd5",
      "transactionIndex": "0x0",
      "blockHash": "0xc652efba544d814ecad52411aa493f10507405037d7c358e7d637fdb4bbb7097",
      "blockNumber": "0x2293eab",
      "gasUsed": "0xcaba",
      "effectiveGasPrice": "0x68a2786d0",
      "from": "0x7e8d7bfd6cc6b05d056f2e46860d95038f2e3234",
      "to": "0x0b9d5d9136855f6fec3c0993fee6e9ce8a297846",
      "contractAddress": null
    },
    {
      "status": "0x1",
      "cumulativeGasUsed": "0x193c9",
      "logs": [
        {
          "address": "0xd21341536c5cf5eb1bcb58f6723ce26e8d8e90e4",
          "topics": [
            "0xddf252ad1be2c89b69c2b068fc378daa952ba7f163c4a11628f55a4df523b3ef",
            "0x0000000000000000000000007e8d7bfd6cc6b05d056f2e46860d95038f2e3234",
            "0x00000000000000000000000075f53657dfe91c4d1c2729880ca279f890488de0"
          ],
          "data": "0x000000000000000000000000000000000000000000000000002aa1efb94e0000",
          "blockHash": "0xc652efba544d814ecad52411aa493f10507405037d7c358e7d637fdb4bbb7097",
          "blockNumber": "0x2293eab",
          "transactionHash": "0x25a026d790319cd3cceabe9ec86d8eeae6e6bff4687ff99f540ce8efd1b0c3e8",
          "transactionIndex": "0x1",
          "logIndex": "0x1",
          "removed": false
        }
      ],
      "logsBloom": "0x00000000000000000000000000000000000000000000008000000000000000000000000000000000000000000000000000000000000000000000000000000000000000004000000000000008000000000000000000801000000000000000000000000000000000000000000000000000000000000000000000000010000000000000000000000000000000000000000000000000000000000000000000000000000000000000000000000000000000000000040000000000000000000000000000000002000000000000000020000000000001000000000000000000000000000000000000000000000000000000000000000000000000400000000000400000",
      "type": "0x2",
      "transactionHash": "0x25a026d790319cd3cceabe9ec86d8eeae6e6bff4687ff99f540ce8efd1b0c3e8",
      "transactionIndex": "0x1",
      "blockHash": "0xc652efba544d814ecad52411aa493f10507405037d7c358e7d637fdb4bbb7097",
      "blockNumber": "0x2293eab",
      "gasUsed": "0xc90f",
      "effectiveGasPrice": "0x68a2786d0",
      "from": "0x7e8d7bfd6cc6b05d056f2e46860d95038f2e3234",
      "to": "0xd21341536c5cf5eb1bcb58f6723ce26e8d8e90e4",
      "contractAddress": null
    },
    {
      "status": "0x1",
      "cumulativeGasUsed": "0x57786",
      "logs": [
        {
          "address": "0x0b9d5d9136855f6fec3c0993fee6e9ce8a297846",
          "topics": [
            "0x8c5be1e5ebec7d5bd14f71427d1e84f3dd0314c0f7b2291e5b200ac8c7c3b925",
            "0x00000000000000000000000075f53657dfe91c4d1c2729880ca279f890488de0",
            "0x000000000000000000000000f694e193200268f9a4868e4aa017a0118c9a8177"
          ],
          "data": "0x0000000000000000000000000000000000000000000000000af396af8e86bfed",
          "blockHash": "0x8b1c010f230554c9c86e504859ddfbd9147ad1adbd34870fbe63d6bce615438e",
          "blockNumber": "0x2293eac",
          "transactionHash": "0x47bcfde7a0efa1a657da3ffa134e3e86afe0e9958c8c3ebd41f5808a0b5af3b1",
          "transactionIndex": "0x0",
          "logIndex": "0x0",
          "removed": false
        },
        {
          "address": "0xd21341536c5cf5eb1bcb58f6723ce26e8d8e90e4",
          "topics": [
            "0x8c5be1e5ebec7d5bd14f71427d1e84f3dd0314c0f7b2291e5b200ac8c7c3b925",
            "0x00000000000000000000000075f53657dfe91c4d1c2729880ca279f890488de0",
            "0x000000000000000000000000f694e193200268f9a4868e4aa017a0118c9a8177"
          ],
          "data": "0x000000000000000000000000000000000000000000000000002aa1efb94e0000",
          "blockHash": "0x8b1c010f230554c9c86e504859ddfbd9147ad1adbd34870fbe63d6bce615438e",
          "blockNumber": "0x2293eac",
          "transactionHash": "0x47bcfde7a0efa1a657da3ffa134e3e86afe0e9958c8c3ebd41f5808a0b5af3b1",
          "transactionIndex": "0x0",
          "logIndex": "0x1",
          "removed": false
        },
        {
          "address": "0x0b9d5d9136855f6fec3c0993fee6e9ce8a297846",
          "topics": [
            "0xddf252ad1be2c89b69c2b068fc378daa952ba7f163c4a11628f55a4df523b3ef",
            "0x00000000000000000000000075f53657dfe91c4d1c2729880ca279f890488de0",
            "0x00000000000000000000000075b9a75ee1ffef6be7c4f842a041de7c6153cf4e"
          ],
          "data": "0x0000000000000000000000000000000000000000000000000af396af8e86bfed",
          "blockHash": "0x8b1c010f230554c9c86e504859ddfbd9147ad1adbd34870fbe63d6bce615438e",
          "blockNumber": "0x2293eac",
          "transactionHash": "0x47bcfde7a0efa1a657da3ffa134e3e86afe0e9958c8c3ebd41f5808a0b5af3b1",
          "transactionIndex": "0x0",
          "logIndex": "0x2",
          "removed": false
        },
        {
          "address": "0xd21341536c5cf5eb1bcb58f6723ce26e8d8e90e4",
          "topics": [
            "0x8c5be1e5ebec7d5bd14f71427d1e84f3dd0314c0f7b2291e5b200ac8c7c3b925",
            "0x00000000000000000000000075f53657dfe91c4d1c2729880ca279f890488de0",
            "0x000000000000000000000000f694e193200268f9a4868e4aa017a0118c9a8177"
          ],
          "data": "0x0000000000000000000000000000000000000000000000000000000000000000",
          "blockHash": "0x8b1c010f230554c9c86e504859ddfbd9147ad1adbd34870fbe63d6bce615438e",
          "blockNumber": "0x2293eac",
          "transactionHash": "0x47bcfde7a0efa1a657da3ffa134e3e86afe0e9958c8c3ebd41f5808a0b5af3b1",
          "transactionIndex": "0x0",
          "logIndex": "0x3",
          "removed": false
        },
        {
          "address": "0xd21341536c5cf5eb1bcb58f6723ce26e8d8e90e4",
          "topics": [
            "0xddf252ad1be2c89b69c2b068fc378daa952ba7f163c4a11628f55a4df523b3ef",
            "0x00000000000000000000000075f53657dfe91c4d1c2729880ca279f890488de0",
            "0x000000000000000000000000960a399deb6c3475fbc62c16e7588b1bf1f95ae6"
          ],
          "data": "0x000000000000000000000000000000000000000000000000002aa1efb94e0000",
          "blockHash": "0x8b1c010f230554c9c86e504859ddfbd9147ad1adbd34870fbe63d6bce615438e",
          "blockNumber": "0x2293eac",
          "transactionHash": "0x47bcfde7a0efa1a657da3ffa134e3e86afe0e9958c8c3ebd41f5808a0b5af3b1",
          "transactionIndex": "0x0",
          "logIndex": "0x4",
          "removed": false
        },
        {
          "address": "0x960a399deb6c3475fbc62c16e7588b1bf1f95ae6",
          "topics": [
            "0x1871cdf8010e63f2eb8384381a68dfa7416dc571a5517e66e88b2d2d0c0a690a"
          ],
          "data": "0x000000000000000000000000000000000000000000000000002aa1efb94e0000",
          "blockHash": "0x8b1c010f230554c9c86e504859ddfbd9147ad1adbd34870fbe63d6bce615438e",
          "blockNumber": "0x2293eac",
          "transactionHash": "0x47bcfde7a0efa1a657da3ffa134e3e86afe0e9958c8c3ebd41f5808a0b5af3b1",
          "transactionIndex": "0x0",
          "logIndex": "0x5",
          "removed": false
        },
        {
          "address": "0xd21341536c5cf5eb1bcb58f6723ce26e8d8e90e4",
          "topics": [
            "0xddf252ad1be2c89b69c2b068fc378daa952ba7f163c4a11628f55a4df523b3ef",
            "0x000000000000000000000000960a399deb6c3475fbc62c16e7588b1bf1f95ae6",
            "0x000000000000000000000000ec1062cbdf4fbf31b3a6aac62b6f6f123bb70e12"
          ],
          "data": "0x000000000000000000000000000000000000000000000000002aa1efb94e0000",
          "blockHash": "0x8b1c010f230554c9c86e504859ddfbd9147ad1adbd34870fbe63d6bce615438e",
          "blockNumber": "0x2293eac",
          "transactionHash": "0x47bcfde7a0efa1a657da3ffa134e3e86afe0e9958c8c3ebd41f5808a0b5af3b1",
          "transactionIndex": "0x0",
          "logIndex": "0x6",
          "removed": false
        },
        {
          "address": "0xd21341536c5cf5eb1bcb58f6723ce26e8d8e90e4",
          "topics": [
            "0xddf252ad1be2c89b69c2b068fc378daa952ba7f163c4a11628f55a4df523b3ef",
            "0x000000000000000000000000ec1062cbdf4fbf31b3a6aac62b6f6f123bb70e12",
            "0x0000000000000000000000000000000000000000000000000000000000000000"
          ],
          "data": "0x000000000000000000000000000000000000000000000000002aa1efb94e0000",
          "blockHash": "0x8b1c010f230554c9c86e504859ddfbd9147ad1adbd34870fbe63d6bce615438e",
          "blockNumber": "0x2293eac",
          "transactionHash": "0x47bcfde7a0efa1a657da3ffa134e3e86afe0e9958c8c3ebd41f5808a0b5af3b1",
          "transactionIndex": "0x0",
          "logIndex": "0x7",
          "removed": false
        },
        {
          "address": "0xec1062cbdf4fbf31b3a6aac62b6f6f123bb70e12",
          "topics": [
            "0x696de425f79f4a40bc6d2122ca50507f0efbeabbff86a84871b7196ab8ea8df7",
            "0x000000000000000000000000960a399deb6c3475fbc62c16e7588b1bf1f95ae6"
          ],
          "data": "0x000000000000000000000000000000000000000000000000002aa1efb94e0000",
          "blockHash": "0x8b1c010f230554c9c86e504859ddfbd9147ad1adbd34870fbe63d6bce615438e",
          "blockNumber": "0x2293eac",
          "transactionHash": "0x47bcfde7a0efa1a657da3ffa134e3e86afe0e9958c8c3ebd41f5808a0b5af3b1",
          "transactionIndex": "0x0",
          "logIndex": "0x8",
          "removed": false
        },
        {
          "address": "0x960a399deb6c3475fbc62c16e7588b1bf1f95ae6",
          "topics": [
            "0x696de425f79f4a40bc6d2122ca50507f0efbeabbff86a84871b7196ab8ea8df7",
            "0x00000000000000000000000075b9a75ee1ffef6be7c4f842a041de7c6153cf4e"
          ],
          "data": "0x000000000000000000000000000000000000000000000000002aa1efb94e0000",
          "blockHash": "0x8b1c010f230554c9c86e504859ddfbd9147ad1adbd34870fbe63d6bce615438e",
          "blockNumber": "0x2293eac",
          "transactionHash": "0x47bcfde7a0efa1a657da3ffa134e3e86afe0e9958c8c3ebd41f5808a0b5af3b1",
          "transactionIndex": "0x0",
          "logIndex": "0x9",
          "removed": false
        },
        {
          "address": "0x75b9a75ee1ffef6be7c4f842a041de7c6153cf4e",
          "topics": [
            "0xd0c3c799bf9e2639de44391e7f524d229b2b55f5b1ea94b2bf7da42f7243dddd"
          ],
          "data": "0x0000000000000000000000000000000000000000000000000000000000000020000000000000000000000000000000000000000000000000ccf0a31a221f3c9b00000000000000000000000075f53657dfe91c4d1c2729880ca279f890488de0000000000000000000000000c0c6ad956df411251431ea139faea3a634d99c26000000000000000000000000000000000000000000000000000000000000005e00000000000000000000000000000000000000000000000000000000000e7ef0000000000000000000000000000000000000000000000000000000000000000000000000000000000000000000000000000000000000000000000000000000010000000000000000000000000b9d5d9136855f6fec3c0993fee6e9ce8a2978460000000000000000000000000000000000000000000000000af396af8e86bfed00000000000000000000000000000000000000000000000000000000000001a0000000000000000000000000000000000000000000000000000000000000026000000000000000000000000000000000000000000000000000000000000002c02fba902cabe7c636c2ad58d8e5cc06cde3a92a8f11ea6f1061b7c38919fab57d00000000000000000000000000000000000000000000000000000000000000840fd3c57d0000000000000000000000007e8d7bfd6cc6b05d056f2e46860d95038f2e3234000000000000000000000000000000000000000000000000002aa1efb94e000000000000000000000000000075f53657dfe91c4d1c2729880ca279f890488de0000000000000000000000000000000000000000000000000ccf0a31a221f3c9b000000000000000000000000000000000000000000000000000000000000000000000000000000000000000000000000000000000000000000000001000000000000000000000000d21341536c5cf5eb1bcb58f6723ce26e8d8e90e4000000000000000000000000000000000000000000000000002aa1efb94e00000000000000000000000000000000000000000000000000000000000000000001000000000000000000000000000000000000000000000000000000000000002000000000000000000000000000000000000000000000000000000000000001400000000000000000000000000000000000000000000000000000000000000020000000000000000000000000000000000000000000000000000000000000008000000000000000000000000000000000000000000000000000000000000000c000000000000000000000000000000000000000000000000000000000000001000000000000000000000000000000000000000000000000000000000000015f900000000000000000000000000000000000000000000000000000000000000020000000000000000000000000960a399deb6c3475fbc62c16e7588b1bf1f95ae60000000000000000000000000000000000000000000000000000000000000020000000000000000000000000fd57b4ddbf88a4e07ff4e34c487b99af2fe82a050000000000000000000000000000000000000000000000000000000000000000",
          "blockHash": "0x8b1c010f230554c9c86e504859ddfbd9147ad1adbd34870fbe63d6bce615438e",
          "blockNumber": "0x2293eac",
          "transactionHash": "0x47bcfde7a0efa1a657da3ffa134e3e86afe0e9958c8c3ebd41f5808a0b5af3b1",
          "transactionIndex": "0x0",
          "logIndex": "0xa",
          "removed": false
        }
      ],
      "logsBloom": "0x010000000c0000000001000000000000000000000000008000000000000000000000000010000000002000000000000000000000000000000000000000200000000000000000020000000008000002000000000000000000000000000000000000002000060000000000004000000802040000000008000000000010000000100008000000000000000000000000000000000000000000000000000000000000024000000000000600000000000040000080040400000800000101100000000000000002000000000000000020000000000001000040000800400000000020000010000000000000000000000000000004000200000000400000000100400000",
      "type": "0x2",
      "transactionHash": "0x47bcfde7a0efa1a657da3ffa134e3e86afe0e9958c8c3ebd41f5808a0b5af3b1",
      "transactionIndex": "0x0",
      "blockHash": "0x8b1c010f230554c9c86e504859ddfbd9147ad1adbd34870fbe63d6bce615438e",
      "blockNumber": "0x2293eac",
      "gasUsed": "0x57786",
      "effectiveGasPrice": "0x68a2786d0",
      "from": "0x7e8d7bfd6cc6b05d056f2e46860d95038f2e3234",
      "to": "0x75f53657dfe91c4d1c2729880ca279f890488de0",
      "contractAddress": null
    }
  ],
  "libraries": [],
  "pending": [],
  "returns": {},
  "timestamp": 1728679017,
  "chain": 43113,
  "commit": "90333d4"
}