{
  "transactions": [
    {
      "hash": "0xdc325044988ef4989798be7b0149e9e2be0bb59c3c2a44e68bb3be97d8e74dd9",
      "transactionType": "CALL",
      "contractName": null,
      "contractAddress": "0x0b9d5d9136855f6fec3c0993fee6e9ce8a297846",
      "function": "transfer(address,uint256)",
      "arguments": [
        "0x92d326eDd86229CEEeedf014656c5D0d08A29B6D",
        "6000000000000000000"
      ],
      "transaction": {
        "from": "0x7e8d7bfd6cc6b05d056f2e46860d95038f2e3234",
        "to": "0x0b9d5d9136855f6fec3c0993fee6e9ce8a297846",
        "gas": "0x1287c",
        "value": "0x0",
        "input": "0xa9059cbb00000000000000000000000092d326edd86229ceeeedf014656c5d0d08a29b6d00000000000000000000000000000000000000000000000053444835ec580000",
        "nonce": "0x204",
        "chainId": "0xa869"
      },
      "additionalContracts": [],
      "isFixedGasLimit": false
    },
    {
      "hash": "0x31ec5069728fe61e867e702e6893e520de66d2352fb89b57047f17afb3677306",
      "transactionType": "CALL",
      "contractName": null,
      "contractAddress": "0xd21341536c5cf5eb1bcb58f6723ce26e8d8e90e4",
      "function": "transfer(address,uint256)",
      "arguments": [
        "0x92d326eDd86229CEEeedf014656c5D0d08A29B6D",
        "100000000000000000"
      ],
      "transaction": {
        "from": "0x7e8d7bfd6cc6b05d056f2e46860d95038f2e3234",
        "to": "0xd21341536c5cf5eb1bcb58f6723ce26e8d8e90e4",
        "gas": "0x1261d",
        "value": "0x0",
        "input": "0xa9059cbb00000000000000000000000092d326edd86229ceeeedf014656c5d0d08a29b6d000000000000000000000000000000000000000000000000016345785d8a0000",
        "nonce": "0x205",
        "chainId": "0xa869"
      },
      "additionalContracts": [],
      "isFixedGasLimit": false
    },
    {
      "hash": "0x62cc06baa4c638b9896ac483c0eb93aae8afdbea2e7b8e1b8ca66b18f998b409",
      "transactionType": "CALL",
      "contractName": null,
      "contractAddress": "0x92d326edd86229ceeeedf014656c5d0d08a29b6d",
      "function": "sendMessage(address,uint256,address)",
      "arguments": [
        "0x06343Dfc271C6d2c40437B908a648281a1104C48",
        "100000000000000000",
        "0x7E8d7BFd6cc6B05d056f2E46860D95038f2E3234"
      ],
      "transaction": {
        "from": "0x7e8d7bfd6cc6b05d056f2e46860d95038f2e3234",
        "to": "0x92d326edd86229ceeeedf014656c5d0d08a29b6d",
        "gas": "0x66159",
        "value": "0x0",
        "input": "0x6ad1079200000000000000000000000006343dfc271c6d2c40437b908a648281a1104c48000000000000000000000000000000000000000000000000016345785d8a00000000000000000000000000007e8d7bfd6cc6b05d056f2e46860d95038f2e3234",
        "nonce": "0x206",
        "chainId": "0xa869"
      },
      "additionalContracts": [],
      "isFixedGasLimit": false
    }
  ],
  "receipts": [
    {
      "status": "0x1",
      "cumulativeGasUsed": "0xcaba",
      "logs": [
        {
          "address": "0x0b9d5d9136855f6fec3c0993fee6e9ce8a297846",
          "topics": [
            "0xddf252ad1be2c89b69c2b068fc378daa952ba7f163c4a11628f55a4df523b3ef",
            "0x0000000000000000000000007e8d7bfd6cc6b05d056f2e46860d95038f2e3234",
            "0x00000000000000000000000092d326edd86229ceeeedf014656c5d0d08a29b6d"
          ],
          "data": "0x00000000000000000000000000000000000000000000000053444835ec580000",
          "blockHash": "0x804d1d10c2ab6a7111a70d6eab10a38528b3e893d44f905dadfb106e56a3f7dd",
          "blockNumber": "0x22939c2",
          "transactionHash": "0xdc325044988ef4989798be7b0149e9e2be0bb59c3c2a44e68bb3be97d8e74dd9",
          "transactionIndex": "0x0",
          "logIndex": "0x0",
          "removed": false
        }
      ],
      "logsBloom": "0x01000000000000000000000000000000000000000000000000000000000000000000000000000000000000000000000000000000000000000000000000000000000000004000000000000008000000000000000000801000000000800000000000000000000000000000000000000000000000000000000000000010000000000000000000000000000000000000000000000000000000000000000000000000020000000000000200000000000000000000000000000000000000000000000000000002000000000000000000000000000000000000000800000000000000000000000000000000000000000000000000000100000000000000000000000000",
      "type": "0x2",
      "transactionHash": "0xdc325044988ef4989798be7b0149e9e2be0bb59c3c2a44e68bb3be97d8e74dd9",
      "transactionIndex": "0x0",
      "blockHash": "0x804d1d10c2ab6a7111a70d6eab10a38528b3e893d44f905dadfb106e56a3f7dd",
      "blockNumber": "0x22939c2",
      "gasUsed": "0xcaba",
      "effectiveGasPrice": "0x65e6fd0b0",
      "from": "0x7e8d7bfd6cc6b05d056f2e46860d95038f2e3234",
      "to": "0x0b9d5d9136855f6fec3c0993fee6e9ce8a297846",
      "contractAddress": null
    },
    {
      "status": "0x1",
      "cumulativeGasUsed": "0x193d5",
      "logs": [
        {
          "address": "0xd21341536c5cf5eb1bcb58f6723ce26e8d8e90e4",
          "topics": [
            "0xddf252ad1be2c89b69c2b068fc378daa952ba7f163c4a11628f55a4df523b3ef",
            "0x0000000000000000000000007e8d7bfd6cc6b05d056f2e46860d95038f2e3234",
            "0x00000000000000000000000092d326edd86229ceeeedf014656c5d0d08a29b6d"
          ],
          "data": "0x000000000000000000000000000000000000000000000000016345785d8a0000",
          "blockHash": "0x804d1d10c2ab6a7111a70d6eab10a38528b3e893d44f905dadfb106e56a3f7dd",
          "blockNumber": "0x22939c2",
          "transactionHash": "0x31ec5069728fe61e867e702e6893e520de66d2352fb89b57047f17afb3677306",
          "transactionIndex": "0x1",
          "logIndex": "0x1",
          "removed": false
        }
      ],
      "logsBloom": "0x00000000000000000000000000000000000000000000000000000000000000000000000000000000000000000000000000000000000000000000000000000000000000004000000000000008000000000000000000801000000000800000000000000000000000000000000000000000000000000000000000000010000000000000000000000000000000000000000000000000000000000000000000000000020000000000000000000000000000000000000000000000000000000000000000000002000000000000000000000000000001000000000000000000000000000000000000000000000000000000000000000100000000400000000000400000",
      "type": "0x2",
      "transactionHash": "0x31ec5069728fe61e867e702e6893e520de66d2352fb89b57047f17afb3677306",
      "transactionIndex": "0x1",
      "blockHash": "0x804d1d10c2ab6a7111a70d6eab10a38528b3e893d44f905dadfb106e56a3f7dd",
      "blockNumber": "0x22939c2",
      "gasUsed": "0xc91b",
      "effectiveGasPrice": "0x65e6fd0b0",
      "from": "0x7e8d7bfd6cc6b05d056f2e46860d95038f2e3234",
      "to": "0xd21341536c5cf5eb1bcb58f6723ce26e8d8e90e4",
      "contractAddress": null
    },
    {
      "status": "0x1",
      "cumulativeGasUsed": "0x707db",
      "logs": [
        {
          "address": "0x0b9d5d9136855f6fec3c0993fee6e9ce8a297846",
          "topics": [
            "0x8c5be1e5ebec7d5bd14f71427d1e84f3dd0314c0f7b2291e5b200ac8c7c3b925",
            "0x00000000000000000000000092d326edd86229ceeeedf014656c5d0d08a29b6d",
            "0x000000000000000000000000f694e193200268f9a4868e4aa017a0118c9a8177"
          ],
          "data": "0x0000000000000000000000000000000000000000000000004ac8b1b1162a94e2",
          "blockHash": "0x804d1d10c2ab6a7111a70d6eab10a38528b3e893d44f905dadfb106e56a3f7dd",
          "blockNumber": "0x22939c2",
          "transactionHash": "0x62cc06baa4c638b9896ac483c0eb93aae8afdbea2e7b8e1b8ca66b18f998b409",
          "transactionIndex": "0x2",
          "logIndex": "0x2",
          "removed": false
        },
        {
          "address": "0xd21341536c5cf5eb1bcb58f6723ce26e8d8e90e4",
          "topics": [
            "0x8c5be1e5ebec7d5bd14f71427d1e84f3dd0314c0f7b2291e5b200ac8c7c3b925",
            "0x00000000000000000000000092d326edd86229ceeeedf014656c5d0d08a29b6d",
            "0x000000000000000000000000f694e193200268f9a4868e4aa017a0118c9a8177"
          ],
          "data": "0x000000000000000000000000000000000000000000000000016345785d8a0000",
          "blockHash": "0x804d1d10c2ab6a7111a70d6eab10a38528b3e893d44f905dadfb106e56a3f7dd",
          "blockNumber": "0x22939c2",
          "transactionHash": "0x62cc06baa4c638b9896ac483c0eb93aae8afdbea2e7b8e1b8ca66b18f998b409",
          "transactionIndex": "0x2",
          "logIndex": "0x3",
          "removed": false
        },
        {
          "address": "0x0b9d5d9136855f6fec3c0993fee6e9ce8a297846",
          "topics": [
            "0xddf252ad1be2c89b69c2b068fc378daa952ba7f163c4a11628f55a4df523b3ef",
            "0x00000000000000000000000092d326edd86229ceeeedf014656c5d0d08a29b6d",
            "0x00000000000000000000000075b9a75ee1ffef6be7c4f842a041de7c6153cf4e"
          ],
          "data": "0x0000000000000000000000000000000000000000000000004ac8b1b1162a94e2",
          "blockHash": "0x804d1d10c2ab6a7111a70d6eab10a38528b3e893d44f905dadfb106e56a3f7dd",
          "blockNumber": "0x22939c2",
          "transactionHash": "0x62cc06baa4c638b9896ac483c0eb93aae8afdbea2e7b8e1b8ca66b18f998b409",
          "transactionIndex": "0x2",
          "logIndex": "0x4",
          "removed": false
        },
        {
          "address": "0xd21341536c5cf5eb1bcb58f6723ce26e8d8e90e4",
          "topics": [
            "0x8c5be1e5ebec7d5bd14f71427d1e84f3dd0314c0f7b2291e5b200ac8c7c3b925",
            "0x00000000000000000000000092d326edd86229ceeeedf014656c5d0d08a29b6d",
            "0x000000000000000000000000f694e193200268f9a4868e4aa017a0118c9a8177"
          ],
          "data": "0x0000000000000000000000000000000000000000000000000000000000000000",
          "blockHash": "0x804d1d10c2ab6a7111a70d6eab10a38528b3e893d44f905dadfb106e56a3f7dd",
          "blockNumber": "0x22939c2",
          "transactionHash": "0x62cc06baa4c638b9896ac483c0eb93aae8afdbea2e7b8e1b8ca66b18f998b409",
          "transactionIndex": "0x2",
          "logIndex": "0x5",
          "removed": false
        },
        {
          "address": "0xd21341536c5cf5eb1bcb58f6723ce26e8d8e90e4",
          "topics": [
            "0xddf252ad1be2c89b69c2b068fc378daa952ba7f163c4a11628f55a4df523b3ef",
            "0x00000000000000000000000092d326edd86229ceeeedf014656c5d0d08a29b6d",
            "0x000000000000000000000000960a399deb6c3475fbc62c16e7588b1bf1f95ae6"
          ],
          "data": "0x000000000000000000000000000000000000000000000000016345785d8a0000",
          "blockHash": "0x804d1d10c2ab6a7111a70d6eab10a38528b3e893d44f905dadfb106e56a3f7dd",
          "blockNumber": "0x22939c2",
          "transactionHash": "0x62cc06baa4c638b9896ac483c0eb93aae8afdbea2e7b8e1b8ca66b18f998b409",
          "transactionIndex": "0x2",
          "logIndex": "0x6",
          "removed": false
        },
        {
          "address": "0x960a399deb6c3475fbc62c16e7588b1bf1f95ae6",
          "topics": [
            "0x1871cdf8010e63f2eb8384381a68dfa7416dc571a5517e66e88b2d2d0c0a690a"
          ],
          "data": "0x000000000000000000000000000000000000000000000000016345785d8a0000",
          "blockHash": "0x804d1d10c2ab6a7111a70d6eab10a38528b3e893d44f905dadfb106e56a3f7dd",
          "blockNumber": "0x22939c2",
          "transactionHash": "0x62cc06baa4c638b9896ac483c0eb93aae8afdbea2e7b8e1b8ca66b18f998b409",
          "transactionIndex": "0x2",
          "logIndex": "0x7",
          "removed": false
        },
        {
          "address": "0xd21341536c5cf5eb1bcb58f6723ce26e8d8e90e4",
          "topics": [
            "0xddf252ad1be2c89b69c2b068fc378daa952ba7f163c4a11628f55a4df523b3ef",
            "0x000000000000000000000000960a399deb6c3475fbc62c16e7588b1bf1f95ae6",
            "0x000000000000000000000000ec1062cbdf4fbf31b3a6aac62b6f6f123bb70e12"
          ],
          "data": "0x000000000000000000000000000000000000000000000000016345785d8a0000",
          "blockHash": "0x804d1d10c2ab6a7111a70d6eab10a38528b3e893d44f905dadfb106e56a3f7dd",
          "blockNumber": "0x22939c2",
          "transactionHash": "0x62cc06baa4c638b9896ac483c0eb93aae8afdbea2e7b8e1b8ca66b18f998b409",
          "transactionIndex": "0x2",
          "logIndex": "0x8",
          "removed": false
        },
        {
          "address": "0xd21341536c5cf5eb1bcb58f6723ce26e8d8e90e4",
          "topics": [
            "0xddf252ad1be2c89b69c2b068fc378daa952ba7f163c4a11628f55a4df523b3ef",
            "0x000000000000000000000000ec1062cbdf4fbf31b3a6aac62b6f6f123bb70e12",
            "0x0000000000000000000000000000000000000000000000000000000000000000"
          ],
          "data": "0x000000000000000000000000000000000000000000000000016345785d8a0000",
          "blockHash": "0x804d1d10c2ab6a7111a70d6eab10a38528b3e893d44f905dadfb106e56a3f7dd",
          "blockNumber": "0x22939c2",
          "transactionHash": "0x62cc06baa4c638b9896ac483c0eb93aae8afdbea2e7b8e1b8ca66b18f998b409",
          "transactionIndex": "0x2",
          "logIndex": "0x9",
          "removed": false
        },
        {
          "address": "0xec1062cbdf4fbf31b3a6aac62b6f6f123bb70e12",
          "topics": [
            "0x696de425f79f4a40bc6d2122ca50507f0efbeabbff86a84871b7196ab8ea8df7",
            "0x000000000000000000000000960a399deb6c3475fbc62c16e7588b1bf1f95ae6"
          ],
          "data": "0x000000000000000000000000000000000000000000000000016345785d8a0000",
          "blockHash": "0x804d1d10c2ab6a7111a70d6eab10a38528b3e893d44f905dadfb106e56a3f7dd",
          "blockNumber": "0x22939c2",
          "transactionHash": "0x62cc06baa4c638b9896ac483c0eb93aae8afdbea2e7b8e1b8ca66b18f998b409",
          "transactionIndex": "0x2",
          "logIndex": "0xa",
          "removed": false
        },
        {
          "address": "0x960a399deb6c3475fbc62c16e7588b1bf1f95ae6",
          "topics": [
            "0x696de425f79f4a40bc6d2122ca50507f0efbeabbff86a84871b7196ab8ea8df7",
            "0x00000000000000000000000075b9a75ee1ffef6be7c4f842a041de7c6153cf4e"
          ],
          "data": "0x000000000000000000000000000000000000000000000000016345785d8a0000",
          "blockHash": "0x804d1d10c2ab6a7111a70d6eab10a38528b3e893d44f905dadfb106e56a3f7dd",
          "blockNumber": "0x22939c2",
          "transactionHash": "0x62cc06baa4c638b9896ac483c0eb93aae8afdbea2e7b8e1b8ca66b18f998b409",
          "transactionIndex": "0x2",
          "logIndex": "0xb",
          "removed": false
        },
        {
          "address": "0x75b9a75ee1ffef6be7c4f842a041de7c6153cf4e",
          "topics": [
            "0xd0c3c799bf9e2639de44391e7f524d229b2b55f5b1ea94b2bf7da42f7243dddd"
          ],
          "data": "0x0000000000000000000000000000000000000000000000000000000000000020000000000000000000000000000000000000000000000000ccf0a31a221f3c9b00000000000000000000000092d326edd86229ceeeedf014656c5d0d08a29b6d00000000000000000000000006343dfc271c6d2c40437b908a648281a1104c48000000000000000000000000000000000000000000000000000000000000005600000000000000000000000000000000000000000000000000000000000aae60000000000000000000000000000000000000000000000000000000000000000000000000000000000000000000000000000000000000000000000000000000010000000000000000000000000b9d5d9136855f6fec3c0993fee6e9ce8a2978460000000000000000000000000000000000000000000000004ac8b1b1162a94e200000000000000000000000000000000000000000000000000000000000001a0000000000000000000000000000000000000000000000000000000000000024000000000000000000000000000000000000000000000000000000000000002a0352ba9fdc46724fc4b013909f4ebc5302064562da46fe468fbd006ba1a0cc2600000000000000000000000000000000000000000000000000000000000000064bbaa3c820000000000000000000000007e8d7bfd6cc6b05d056f2e46860d95038f2e3234000000000000000000000000000000000000000000000000016345785d8a000000000000000000000000000092d326edd86229ceeeedf014656c5d0d08a29b6d000000000000000000000000000000000000000000000000000000000000000000000000000000000000000000000000000000000000000000000001000000000000000000000000d21341536c5cf5eb1bcb58f6723ce26e8d8e90e4000000000000000000000000000000000000000000000000016345785d8a00000000000000000000000000000000000000000000000000000000000000000001000000000000000000000000000000000000000000000000000000000000002000000000000000000000000000000000000000000000000000000000000001400000000000000000000000000000000000000000000000000000000000000020000000000000000000000000000000000000000000000000000000000000008000000000000000000000000000000000000000000000000000000000000000c000000000000000000000000000000000000000000000000000000000000001000000000000000000000000000000000000000000000000000000000000015f900000000000000000000000000000000000000000000000000000000000000020000000000000000000000000960a399deb6c3475fbc62c16e7588b1bf1f95ae60000000000000000000000000000000000000000000000000000000000000020000000000000000000000000fd57b4ddbf88a4e07ff4e34c487b99af2fe82a050000000000000000000000000000000000000000000000000000000000000000",
          "blockHash": "0x804d1d10c2ab6a7111a70d6eab10a38528b3e893d44f905dadfb106e56a3f7dd",
          "blockNumber": "0x22939c2",
          "transactionHash": "0x62cc06baa4c638b9896ac483c0eb93aae8afdbea2e7b8e1b8ca66b18f998b409",
          "transactionIndex": "0x2",
          "logIndex": "0xc",
          "removed": false
        }
      ],
      "logsBloom": "0x010000000c0000000001000000000000000000000000000000000000000000000000000010000000002000000000000000000000000000000000000000200000000000000000020000000008000002000000000000000000000000800000000000002000060000000000004000000802040000000008000000000010000000100008000000000000000000000000000000000000000000000000000000000000024000000000000600000000000040000080000400000800000101100000000000000002000000000000000000000000000001000040000800400000000020000010000000000000000000000000000004000300000000400000000100400000",
      "type": "0x2",
      "transactionHash": "0x62cc06baa4c638b9896ac483c0eb93aae8afdbea2e7b8e1b8ca66b18f998b409",
      "transactionIndex": "0x2",
      "blockHash": "0x804d1d10c2ab6a7111a70d6eab10a38528b3e893d44f905dadfb106e56a3f7dd",
      "blockNumber": "0x22939c2",
      "gasUsed": "0x57406",
      "effectiveGasPrice": "0x65e6fd0b0",
      "from": "0x7e8d7bfd6cc6b05d056f2e46860d95038f2e3234",
      "to": "0x92d326edd86229ceeeedf014656c5d0d08a29b6d",
      "contractAddress": null
    }
  ],
  "libraries": [],
  "pending": [],
  "returns": {},
  "timestamp": 1728668118,
  "chain": 43113,
  "commit": "90333d4"
}