{
  "transactions": [
    {
      "hash": "0x239a2e413fce278d1ba5f5149ce3672df22608ae6d6bc9aa9ae0f0d9f3245c9f",
      "transactionType": "CALL",
      "contractName": null,
      "contractAddress": "0x0b9d5d9136855f6fec3c0993fee6e9ce8a297846",
      "function": "transfer(address,uint256)",
      "arguments": [
        "0xA8758E05861547d9598Ec023ad013333dc636DcD",
        "3000000000000000000"
      ],
      "transaction": {
        "from": "0x7e8d7bfd6cc6b05d056f2e46860d95038f2e3234",
        "to": "0x0b9d5d9136855f6fec3c0993fee6e9ce8a297846",
        "gas": "0x1287c",
        "value": "0x0",
        "input": "0xa9059cbb000000000000000000000000a8758e05861547d9598ec023ad013333dc636dcd00000000000000000000000000000000000000000000000029a2241af62c0000",
        "nonce": "0x208",
        "chainId": "0xa869"
      },
      "additionalContracts": [],
      "isFixedGasLimit": false
    },
    {
      "hash": "0xe5178c9ff860ee7364d8d46a719f4f5f9c3bd5e77dfd2b0405c87df2a1887673",
      "transactionType": "CALL",
      "contractName": null,
      "contractAddress": "0xd21341536c5cf5eb1bcb58f6723ce26e8d8e90e4",
      "function": "transfer(address,uint256)",
      "arguments": [
        "0xA8758E05861547d9598Ec023ad013333dc636DcD",
        "100000000000000000"
      ],
      "transaction": {
        "from": "0x7e8d7bfd6cc6b05d056f2e46860d95038f2e3234",
        "to": "0xd21341536c5cf5eb1bcb58f6723ce26e8d8e90e4",
        "gas": "0x1261d",
        "value": "0x0",
        "input": "0xa9059cbb000000000000000000000000a8758e05861547d9598ec023ad013333dc636dcd000000000000000000000000000000000000000000000000016345785d8a0000",
        "nonce": "0x209",
        "chainId": "0xa869"
      },
      "additionalContracts": [],
      "isFixedGasLimit": false
    },
    {
      "hash": "0x3eabbf77a19045056f0f118b0d8e8b7e2c7e6268fe203f46cc6e9ed9bedd9de4",
      "transactionType": "CALL",
      "contractName": null,
      "contractAddress": "0xa8758e05861547d9598ec023ad013333dc636dcd",
      "function": "sendMessage(address,uint256,address)",
      "arguments": [
        "0x270831C0550ac9c5619E26238Ac9BFA02e2392Eb",
        "100000000000000000",
        "0x7E8d7BFd6cc6B05d056f2E46860D95038f2E3234"
      ],
      "transaction": {
        "from": "0x7e8d7bfd6cc6b05d056f2e46860d95038f2e3234",
        "to": "0xa8758e05861547d9598ec023ad013333dc636dcd",
        "gas": "0x66159",
        "value": "0x0",
        "input": "0x6ad10792000000000000000000000000270831c0550ac9c5619e26238ac9bfa02e2392eb000000000000000000000000000000000000000000000000016345785d8a00000000000000000000000000007e8d7bfd6cc6b05d056f2e46860d95038f2e3234",
        "nonce": "0x20a",
        "chainId": "0xa869"
      },
      "additionalContracts": [],
      "isFixedGasLimit": false
    }
  ],
  "receipts": [
    {
      "status": "0x1",
      "cumulativeGasUsed": "0xcaba",
      "logs": [
        {
          "address": "0x0b9d5d9136855f6fec3c0993fee6e9ce8a297846",
          "topics": [
            "0xddf252ad1be2c89b69c2b068fc378daa952ba7f163c4a11628f55a4df523b3ef",
            "0x0000000000000000000000007e8d7bfd6cc6b05d056f2e46860d95038f2e3234",
            "0x000000000000000000000000a8758e05861547d9598ec023ad013333dc636dcd"
          ],
          "data": "0x00000000000000000000000000000000000000000000000029a2241af62c0000",
          "blockHash": "0xc99441d0b1e534062dd657f5bc00a39055456cc35b8346e04953eb9a2b159f39",
          "blockNumber": "0x2293bb1",
          "transactionHash": "0x239a2e413fce278d1ba5f5149ce3672df22608ae6d6bc9aa9ae0f0d9f3245c9f",
          "transactionIndex": "0x0",
          "logIndex": "0x0",
          "removed": false
        }
      ],
      "logsBloom": "0x01000000000000000200000000000000000000000000000000000000000000000000000000000000000000000000000000000000000000000000000000000000000000004000000000000008000000000000000000801000000000000000000000000000000000000000000000000000000000000000000000000010000000000000000000000000000000000000000000000000000000000000000000000200040000000000000200000000000000000000000000000000000000000000000000000002000000000000000000000000000000000000000800000000000000000000000000000000000000000000000000000000000000000000000000000000",
      "type": "0x2",
      "transactionHash": "0x239a2e413fce278d1ba5f5149ce3672df22608ae6d6bc9aa9ae0f0d9f3245c9f",
      "transactionIndex": "0x0",
      "blockHash": "0xc99441d0b1e534062dd657f5bc00a39055456cc35b8346e04953eb9a2b159f39",
      "blockNumber": "0x2293bb1",
      "gasUsed": "0xcaba",
      "effectiveGasPrice": "0x62b85e900",
      "from": "0x7e8d7bfd6cc6b05d056f2e46860d95038f2e3234",
      "to": "0x0b9d5d9136855f6fec3c0993fee6e9ce8a297846",
      "contractAddress": null
    },
    {
      "status": "0x1",
      "cumulativeGasUsed": "0xc91b",
      "logs": [
        {
          "address": "0xd21341536c5cf5eb1bcb58f6723ce26e8d8e90e4",
          "topics": [
            "0xddf252ad1be2c89b69c2b068fc378daa952ba7f163c4a11628f55a4df523b3ef",
            "0x0000000000000000000000007e8d7bfd6cc6b05d056f2e46860d95038f2e3234",
            "0x000000000000000000000000a8758e05861547d9598ec023ad013333dc636dcd"
          ],
          "data": "0x000000000000000000000000000000000000000000000000016345785d8a0000",
          "blockHash": "0x46337e6064b3bbaad20f60a3cb4452db72bacba6d21d86256f2b5d48563b728d",
          "blockNumber": "0x2293bb2",
          "transactionHash": "0xe5178c9ff860ee7364d8d46a719f4f5f9c3bd5e77dfd2b0405c87df2a1887673",
          "transactionIndex": "0x0",
          "logIndex": "0x0",
          "removed": false
        }
      ],
      "logsBloom": "0x00000000000000000200000000000000000000000000000000000000000000000000000000000000000000000000000000000000000000000000000000000000000000004000000000000008000000000000000000801000000000000000000000000000000000000000000000000000000000000000000000000010000000000000000000000000000000000000000000000000000000000000000000000200040000000000000000000000000000000000000000000000000000000000000000000002000000000000000000000000000001000000000000000000000000000000000000000000000000000000000000000000000000400000000000400000",
      "type": "0x2",
      "transactionHash": "0xe5178c9ff860ee7364d8d46a719f4f5f9c3bd5e77dfd2b0405c87df2a1887673",
      "transactionIndex": "0x0",
      "blockHash": "0x46337e6064b3bbaad20f60a3cb4452db72bacba6d21d86256f2b5d48563b728d",
      "blockNumber": "0x2293bb2",
      "gasUsed": "0xc91b",
      "effectiveGasPrice": "0x62b85e900",
      "from": "0x7e8d7bfd6cc6b05d056f2e46860d95038f2e3234",
      "to": "0xd21341536c5cf5eb1bcb58f6723ce26e8d8e90e4",
      "contractAddress": null
    },
    {
      "status": "0x1",
      "cumulativeGasUsed": "0x63d21",
      "logs": [
        {
          "address": "0x0b9d5d9136855f6fec3c0993fee6e9ce8a297846",
          "topics": [
            "0x8c5be1e5ebec7d5bd14f71427d1e84f3dd0314c0f7b2291e5b200ac8c7c3b925",
            "0x000000000000000000000000a8758e05861547d9598ec023ad013333dc636dcd",
            "0x000000000000000000000000f694e193200268f9a4868e4aa017a0118c9a8177"
          ],
          "data": "0x00000000000000000000000000000000000000000000000019a3a90be93d0037",
          "blockHash": "0x46337e6064b3bbaad20f60a3cb4452db72bacba6d21d86256f2b5d48563b728d",
          "blockNumber": "0x2293bb2",
          "transactionHash": "0x3eabbf77a19045056f0f118b0d8e8b7e2c7e6268fe203f46cc6e9ed9bedd9de4",
          "transactionIndex": "0x1",
          "logIndex": "0x1",
          "removed": false
        },
        {
          "address": "0xd21341536c5cf5eb1bcb58f6723ce26e8d8e90e4",
          "topics": [
            "0x8c5be1e5ebec7d5bd14f71427d1e84f3dd0314c0f7b2291e5b200ac8c7c3b925",
            "0x000000000000000000000000a8758e05861547d9598ec023ad013333dc636dcd",
            "0x000000000000000000000000f694e193200268f9a4868e4aa017a0118c9a8177"
          ],
          "data": "0x000000000000000000000000000000000000000000000000016345785d8a0000",
          "blockHash": "0x46337e6064b3bbaad20f60a3cb4452db72bacba6d21d86256f2b5d48563b728d",
          "blockNumber": "0x2293bb2",
          "transactionHash": "0x3eabbf77a19045056f0f118b0d8e8b7e2c7e6268fe203f46cc6e9ed9bedd9de4",
          "transactionIndex": "0x1",
          "logIndex": "0x2",
          "removed": false
        },
        {
          "address": "0x0b9d5d9136855f6fec3c0993fee6e9ce8a297846",
          "topics": [
            "0xddf252ad1be2c89b69c2b068fc378daa952ba7f163c4a11628f55a4df523b3ef",
            "0x000000000000000000000000a8758e05861547d9598ec023ad013333dc636dcd",
            "0x00000000000000000000000075b9a75ee1ffef6be7c4f842a041de7c6153cf4e"
          ],
          "data": "0x00000000000000000000000000000000000000000000000019a3a90be93d0037",
          "blockHash": "0x46337e6064b3bbaad20f60a3cb4452db72bacba6d21d86256f2b5d48563b728d",
          "blockNumber": "0x2293bb2",
          "transactionHash": "0x3eabbf77a19045056f0f118b0d8e8b7e2c7e6268fe203f46cc6e9ed9bedd9de4",
          "transactionIndex": "0x1",
          "logIndex": "0x3",
          "removed": false
        },
        {
          "address": "0xd21341536c5cf5eb1bcb58f6723ce26e8d8e90e4",
          "topics": [
            "0x8c5be1e5ebec7d5bd14f71427d1e84f3dd0314c0f7b2291e5b200ac8c7c3b925",
            "0x000000000000000000000000a8758e05861547d9598ec023ad013333dc636dcd",
            "0x000000000000000000000000f694e193200268f9a4868e4aa017a0118c9a8177"
          ],
          "data": "0x0000000000000000000000000000000000000000000000000000000000000000",
          "blockHash": "0x46337e6064b3bbaad20f60a3cb4452db72bacba6d21d86256f2b5d48563b728d",
          "blockNumber": "0x2293bb2",
          "transactionHash": "0x3eabbf77a19045056f0f118b0d8e8b7e2c7e6268fe203f46cc6e9ed9bedd9de4",
          "transactionIndex": "0x1",
          "logIndex": "0x4",
          "removed": false
        },
        {
          "address": "0xd21341536c5cf5eb1bcb58f6723ce26e8d8e90e4",
          "topics": [
            "0xddf252ad1be2c89b69c2b068fc378daa952ba7f163c4a11628f55a4df523b3ef",
            "0x000000000000000000000000a8758e05861547d9598ec023ad013333dc636dcd",
            "0x000000000000000000000000960a399deb6c3475fbc62c16e7588b1bf1f95ae6"
          ],
          "data": "0x000000000000000000000000000000000000000000000000016345785d8a0000",
          "blockHash": "0x46337e6064b3bbaad20f60a3cb4452db72bacba6d21d86256f2b5d48563b728d",
          "blockNumber": "0x2293bb2",
          "transactionHash": "0x3eabbf77a19045056f0f118b0d8e8b7e2c7e6268fe203f46cc6e9ed9bedd9de4",
          "transactionIndex": "0x1",
          "logIndex": "0x5",
          "removed": false
        },
        {
          "address": "0x960a399deb6c3475fbc62c16e7588b1bf1f95ae6",
          "topics": [
            "0x1871cdf8010e63f2eb8384381a68dfa7416dc571a5517e66e88b2d2d0c0a690a"
          ],
          "data": "0x000000000000000000000000000000000000000000000000016345785d8a0000",
          "blockHash": "0x46337e6064b3bbaad20f60a3cb4452db72bacba6d21d86256f2b5d48563b728d",
          "blockNumber": "0x2293bb2",
          "transactionHash": "0x3eabbf77a19045056f0f118b0d8e8b7e2c7e6268fe203f46cc6e9ed9bedd9de4",
          "transactionIndex": "0x1",
          "logIndex": "0x6",
          "removed": false
        },
        {
          "address": "0xd21341536c5cf5eb1bcb58f6723ce26e8d8e90e4",
          "topics": [
            "0xddf252ad1be2c89b69c2b068fc378daa952ba7f163c4a11628f55a4df523b3ef",
            "0x000000000000000000000000960a399deb6c3475fbc62c16e7588b1bf1f95ae6",
            "0x000000000000000000000000ec1062cbdf4fbf31b3a6aac62b6f6f123bb70e12"
          ],
          "data": "0x000000000000000000000000000000000000000000000000016345785d8a0000",
          "blockHash": "0x46337e6064b3bbaad20f60a3cb4452db72bacba6d21d86256f2b5d48563b728d",
          "blockNumber": "0x2293bb2",
          "transactionHash": "0x3eabbf77a19045056f0f118b0d8e8b7e2c7e6268fe203f46cc6e9ed9bedd9de4",
          "transactionIndex": "0x1",
          "logIndex": "0x7",
          "removed": false
        },
        {
          "address": "0xd21341536c5cf5eb1bcb58f6723ce26e8d8e90e4",
          "topics": [
            "0xddf252ad1be2c89b69c2b068fc378daa952ba7f163c4a11628f55a4df523b3ef",
            "0x000000000000000000000000ec1062cbdf4fbf31b3a6aac62b6f6f123bb70e12",
            "0x0000000000000000000000000000000000000000000000000000000000000000"
          ],
          "data": "0x000000000000000000000000000000000000000000000000016345785d8a0000",
          "blockHash": "0x46337e6064b3bbaad20f60a3cb4452db72bacba6d21d86256f2b5d48563b728d",
          "blockNumber": "0x2293bb2",
          "transactionHash": "0x3eabbf77a19045056f0f118b0d8e8b7e2c7e6268fe203f46cc6e9ed9bedd9de4",
          "transactionIndex": "0x1",
          "logIndex": "0x8",
          "removed": false
        },
        {
          "address": "0xec1062cbdf4fbf31b3a6aac62b6f6f123bb70e12",
          "topics": [
            "0x696de425f79f4a40bc6d2122ca50507f0efbeabbff86a84871b7196ab8ea8df7",
            "0x000000000000000000000000960a399deb6c3475fbc62c16e7588b1bf1f95ae6"
          ],
          "data": "0x000000000000000000000000000000000000000000000000016345785d8a0000",
          "blockHash": "0x46337e6064b3bbaad20f60a3cb4452db72bacba6d21d86256f2b5d48563b728d",
          "blockNumber": "0x2293bb2",
          "transactionHash": "0x3eabbf77a19045056f0f118b0d8e8b7e2c7e6268fe203f46cc6e9ed9bedd9de4",
          "transactionIndex": "0x1",
          "logIndex": "0x9",
          "removed": false
        },
        {
          "address": "0x960a399deb6c3475fbc62c16e7588b1bf1f95ae6",
          "topics": [
            "0x696de425f79f4a40bc6d2122ca50507f0efbeabbff86a84871b7196ab8ea8df7",
            "0x00000000000000000000000075b9a75ee1ffef6be7c4f842a041de7c6153cf4e"
          ],
          "data": "0x000000000000000000000000000000000000000000000000016345785d8a0000",
          "blockHash": "0x46337e6064b3bbaad20f60a3cb4452db72bacba6d21d86256f2b5d48563b728d",
          "blockNumber": "0x2293bb2",
          "transactionHash": "0x3eabbf77a19045056f0f118b0d8e8b7e2c7e6268fe203f46cc6e9ed9bedd9de4",
          "transactionIndex": "0x1",
          "logIndex": "0xa",
          "removed": false
        },
        {
          "address": "0x75b9a75ee1ffef6be7c4f842a041de7c6153cf4e",
          "topics": [
            "0xd0c3c799bf9e2639de44391e7f524d229b2b55f5b1ea94b2bf7da42f7243dddd"
          ],
          "data": "0x0000000000000000000000000000000000000000000000000000000000000020000000000000000000000000000000000000000000000000ccf0a31a221f3c9b000000000000000000000000a8758e05861547d9598ec023ad013333dc636dcd000000000000000000000000270831c0550ac9c5619e26238ac9bfa02e2392eb000000000000000000000000000000000000000000000000000000000000005700000000000000000000000000000000000000000000000000000000000aae60000000000000000000000000000000000000000000000000000000000000000000000000000000000000000000000000000000000000000000000000000000010000000000000000000000000b9d5d9136855f6fec3c0993fee6e9ce8a29784600000000000000000000000000000000000000000000000019a3a90be93d003700000000000000000000000000000000000000000000000000000000000001a0000000000000000000000000000000000000000000000000000000000000024000000000000000000000000000000000000000000000000000000000000002a05cd30105a0afe453bc8ef703d5a0545a215927a656c846092a6854c67dcf702a0000000000000000000000000000000000000000000000000000000000000064bbaa3c820000000000000000000000007e8d7bfd6cc6b05d056f2e46860d95038f2e3234000000000000000000000000000000000000000000000000016345785d8a0000000000000000000000000000a8758e05861547d9598ec023ad013333dc636dcd000000000000000000000000000000000000000000000000000000000000000000000000000000000000000000000000000000000000000000000001000000000000000000000000d21341536c5cf5eb1bcb58f6723ce26e8d8e90e4000000000000000000000000000000000000000000000000016345785d8a00000000000000000000000000000000000000000000000000000000000000000001000000000000000000000000000000000000000000000000000000000000002000000000000000000000000000000000000000000000000000000000000001400000000000000000000000000000000000000000000000000000000000000020000000000000000000000000000000000000000000000000000000000000008000000000000000000000000000000000000000000000000000000000000000c000000000000000000000000000000000000000000000000000000000000001000000000000000000000000000000000000000000000000000000000000015f900000000000000000000000000000000000000000000000000000000000000020000000000000000000000000960a399deb6c3475fbc62c16e7588b1bf1f95ae60000000000000000000000000000000000000000000000000000000000000020000000000000000000000000fd57b4ddbf88a4e07ff4e34c487b99af2fe82a050000000000000000000000000000000000000000000000000000000000000000",
          "blockHash": "0x46337e6064b3bbaad20f60a3cb4452db72bacba6d21d86256f2b5d48563b728d",
          "blockNumber": "0x2293bb2",
          "transactionHash": "0x3eabbf77a19045056f0f118b0d8e8b7e2c7e6268fe203f46cc6e9ed9bedd9de4",
          "transactionIndex": "0x1",
          "logIndex": "0xb",
          "removed": false
        }
      ],
      "logsBloom": "0x010000000c0000000201000000000000000000000000000000000000000000000000000010000000002000000000000000000000000000000000000000200000000000000000020000000008000002000000000000000000000000000000000000002000060000000000004000000802040000000008000000000010000000100008000000000000000000000000000000000000000000000000000000000200064000000000000600000000000040000080000400000800000101100000000000000002000000000000000000000000000001000040000800400000000020000010000000000000000000000000000004000200000000400000000100400000",
      "type": "0x2",
      "transactionHash": "0x3eabbf77a19045056f0f118b0d8e8b7e2c7e6268fe203f46cc6e9ed9bedd9de4",
      "transactionIndex": "0x1",
      "blockHash": "0x46337e6064b3bbaad20f60a3cb4452db72bacba6d21d86256f2b5d48563b728d",
      "blockNumber": "0x2293bb2",
      "gasUsed": "0x57406",
      "effectiveGasPrice": "0x62b85e900",
      "from": "0x7e8d7bfd6cc6b05d056f2e46860d95038f2e3234",
      "to": "0xa8758e05861547d9598ec023ad013333dc636dcd",
      "contractAddress": null
    }
  ],
  "libraries": [],
  "pending": [],
  "returns": {},
  "timestamp": 1728671655,
  "chain": 43113,
  "commit": "90333d4"
}