{
  "transactions": [
    {
      "hash": "0x9f66d4178c1a7033e38fd8d5b5d3b055352aaaaa9525db9247ceb0f6cecbb0b7",
      "transactionType": "CREATE",
      "contractName": "Sender",
      "contractAddress": "0x80c9d2245595bc18f60b04dc5368a29fde23ccbd",
      "function": null,
      "arguments": null,
      "transaction": {
        "from": "0x7e8d7bfd6cc6b05d056f2e46860d95038f2e3234",
        "gas": "0xa63ec",
        "value": "0x0",
        "input": "0x6080604052600080547bde41ba4fc9d91ad9f694e193200268f9a4868e4aa017a0118c9a81776001600160e01b0319909116179055600180546001600160a01b0319908116730b9d5d9136855f6fec3c0993fee6e9ce8a297846179091556002805490911673d21341536c5cf5eb1bcb58f6723ce26e8d8e90e4179055348015608757600080fd5b50600380546001600160a01b031916331790556106df806100a96000396000f3fe608060405234801561001057600080fd5b50600436106100415760003560e01c80636ad10792146100465780638da5cb5b1461006c578063f887ea4014610097575b600080fd5b6100596100543660046104f2565b6100aa565b6040519081526020015b60405180910390f35b60035461007f906001600160a01b031681565b6040516001600160a01b039091168152602001610063565b60005461007f906001600160a01b031681565b604080516001808252818301909252600091829190816020015b60408051808201909152600080825260208201528152602001906001900390816100c4575050604080518082019091526002546001600160a01b031681526020810186905281519192509082906000906101205761012061052e565b60209081029190910101526040805160a081019091526001600160a01b03861660c08201526000908060e0810160408051808303601f19018152918152908252516001600160a01b03871660248201526044810188905230606482015260209091019060840160408051601f19818403018152918152602080830180516001600160e01b0316635dd51e4160e11b1790529183528282018690526001546001600160a01b03168382015280519182019052620dbba0815260609091019061021e9060408051915160248084019190915281518084039091018152604490920190526020810180516001600160e01b03166397a657c960e01b17905290565b905260025460005460405163d73dd62360e01b81526001600160a01b03918216600482015260248101899052929350169063d73dd62390604401600060405180830381600087803b15801561027257600080fd5b505af1158015610286573d6000803e3d6000fd5b505060015460005460405163095ea7b360e01b81526001600160a01b039182166004820152602481018a90529116925063095ea7b391506044016020604051808303816000875af11580156102df573d6000803e3d6000fd5b505050506040513d601f19601f820116820180604052508101906103039190610544565b50600080546040516320487ded60e01b81526001600160a01b038216916320487ded9161034691600160a01b900467ffffffffffffffff169086906004016105b3565b602060405180830381865afa158015610363573d6000803e3d6000fd5b505050506040513d601f19601f820116820180604052508101906103879190610690565b6001546040516370a0823160e01b81523060048201529192506001600160a01b0316906370a0823190602401602060405180830381865afa1580156103d0573d6000803e3d6000fd5b505050506040513d601f19601f820116820180604052508101906103f49190610690565b8111156104475760405162461bcd60e51b815260206004820152601d60248201527f496e73756666696369656e742066656520746f6b656e20616d6f756e74000000604482015260640160405180910390fd5b6000546040516396f4e9f960e01b81526001600160a01b038216916396f4e9f99161048891600160a01b900467ffffffffffffffff169086906004016105b3565b6020604051808303816000875af11580156104a7573d6000803e3d6000fd5b505050506040513d601f19601f820116820180604052508101906104cb9190610690565b979650505050505050565b80356001600160a01b03811681146104ed57600080fd5b919050565b60008060006060848603121561050757600080fd5b610510846104d6565b925060208401359150610525604085016104d6565b90509250925092565b634e487b7160e01b600052603260045260246000fd5b60006020828403121561055657600080fd5b8151801515811461056657600080fd5b9392505050565b6000815180845260005b8181101561059357602081850181015186830182015201610577565b506000602082860101526020601f19601f83011685010191505092915050565b6000604067ffffffffffffffff851683526020604081850152845160a060408601526105e260e086018261056d565b905081860151603f19808784030160608801526105ff838361056d565b6040890151888203830160808a01528051808352908601945060009350908501905b8084101561065357845180516001600160a01b0316835286015186830152938501936001939093019290860190610621565b5060608901516001600160a01b031660a08901526080890151888203830160c08a01529550610682818761056d565b9a9950505050505050505050565b6000602082840312156106a257600080fd5b505191905056fea2646970667358221220a68cc3135dc09aafea1ae20c4c9e8f61a318d3949e498997c8e107260c6bea1a64736f6c63430008190033",
        "nonce": "0x1e1",
        "chainId": "0xa869"
      },
      "additionalContracts": [],
      "isFixedGasLimit": false
    },
    {
      "hash": "0xece5f860eaaabf1ba79093a6f810d600e7b78ed5e824e5a4d6cc7d7b22343254",
      "transactionType": "CALL",
      "contractName": null,
      "contractAddress": "0x0b9d5d9136855f6fec3c0993fee6e9ce8a297846",
      "function": "transfer(address,uint256)",
      "arguments": [
        "0x80C9D2245595bc18f60b04dc5368A29fde23ccBd",
        "2000000000000000000"
      ],
      "transaction": {
        "from": "0x7e8d7bfd6cc6b05d056f2e46860d95038f2e3234",
        "to": "0x0b9d5d9136855f6fec3c0993fee6e9ce8a297846",
        "gas": "0x1287c",
        "value": "0x0",
        "input": "0xa9059cbb00000000000000000000000080c9d2245595bc18f60b04dc5368a29fde23ccbd0000000000000000000000000000000000000000000000001bc16d674ec80000",
        "nonce": "0x1e2",
        "chainId": "0xa869"
      },
      "additionalContracts": [],
      "isFixedGasLimit": false
    },
    {
      "hash": "0x240f78447522bf47eaf284d73c2dbe1d8278da9e9c288ad0a2d6ab8708cdb943",
      "transactionType": "CALL",
      "contractName": null,
      "contractAddress": "0xd21341536c5cf5eb1bcb58f6723ce26e8d8e90e4",
      "function": "transfer(address,uint256)",
      "arguments": [
        "0x80C9D2245595bc18f60b04dc5368A29fde23ccBd",
        "100000000000000000"
      ],
      "transaction": {
        "from": "0x7e8d7bfd6cc6b05d056f2e46860d95038f2e3234",
        "to": "0xd21341536c5cf5eb1bcb58f6723ce26e8d8e90e4",
        "gas": "0x1261d",
        "value": "0x0",
        "input": "0xa9059cbb00000000000000000000000080c9d2245595bc18f60b04dc5368a29fde23ccbd000000000000000000000000000000000000000000000000016345785d8a0000",
        "nonce": "0x1e3",
        "chainId": "0xa869"
      },
      "additionalContracts": [],
      "isFixedGasLimit": false
    }
  ],
  "receipts": [
    {
      "status": "0x1",
      "cumulativeGasUsed": "0x7fe92",
      "logs": [],
      "logsBloom": "0x00000000000000000000000000000000000000000000000000000000000000000000000000000000000000000000000000000000000000000000000000000000000000000000000000000000000000000000000000000000000000000000000000000000000000000000000000000000000000000000000000000000000000000000000000000000000000000000000000000000000000000000000000000000000000000000000000000000000000000000000000000000000000000000000000000000000000000000000000000000000000000000000000000000000000000000000000000000000000000000000000000000000000000000000000000000",
      "type": "0x2",
      "transactionHash": "0x9f66d4178c1a7033e38fd8d5b5d3b055352aaaaa9525db9247ceb0f6cecbb0b7",
      "transactionIndex": "0x0",
      "blockHash": "0x333cff44f2655e166c17c8ba214e0bc8ca0032abd35e94b2e87cf63d1ea6c502",
      "blockNumber": "0x22922d2",
      "gasUsed": "0x7fe92",
      "effectiveGasPrice": "0x62b85e900",
      "from": "0x7e8d7bfd6cc6b05d056f2e46860d95038f2e3234",
      "to": null,
      "contractAddress": "0x80c9d2245595bc18f60b04dc5368a29fde23ccbd"
    },
    {
      "status": "0x1",
      "cumulativeGasUsed": "0xcaba",
      "logs": [
        {
          "address": "0x0b9d5d9136855f6fec3c0993fee6e9ce8a297846",
          "topics": [
            "0xddf252ad1be2c89b69c2b068fc378daa952ba7f163c4a11628f55a4df523b3ef",
            "0x0000000000000000000000007e8d7bfd6cc6b05d056f2e46860d95038f2e3234",
            "0x00000000000000000000000080c9d2245595bc18f60b04dc5368a29fde23ccbd"
          ],
          "data": "0x0000000000000000000000000000000000000000000000001bc16d674ec80000",
          "blockHash": "0x74a6d12e84c7c2065516090c8656bc35e83e9ffe2c0e7d2a3c79087f5a8aa64b",
          "blockNumber": "0x22922d3",
          "transactionHash": "0xece5f860eaaabf1ba79093a6f810d600e7b78ed5e824e5a4d6cc7d7b22343254",
          "transactionIndex": "0x0",
          "logIndex": "0x0",
          "removed": false
        }
      ],
      "logsBloom": "0x01000000000000000000000000000000000000000040000000000000000000000000000000000000100000000000000000000000000000000000000000000000000000004000000000000008000000000000000000801000002000000000000000000000000000000000000000000000000000000000000000000010000000000000000000000000000000000000000000000000000000000000000000000000000000000000000200000000000000000000000000000000000000000000000000000002000000000000000000000000000000000000000800000000000000000000000000000000000000000000000000000000000000000000000000000000",
      "type": "0x2",
      "transactionHash": "0xece5f860eaaabf1ba79093a6f810d600e7b78ed5e824e5a4d6cc7d7b22343254",
      "transactionIndex": "0x0",
      "blockHash": "0x74a6d12e84c7c2065516090c8656bc35e83e9ffe2c0e7d2a3c79087f5a8aa64b",
      "blockNumber": "0x22922d3",
      "gasUsed": "0xcaba",
      "effectiveGasPrice": "0x62b85e900",
      "from": "0x7e8d7bfd6cc6b05d056f2e46860d95038f2e3234",
      "to": "0x0b9d5d9136855f6fec3c0993fee6e9ce8a297846",
      "contractAddress": null
    },
    {
      "status": "0x1",
      "cumulativeGasUsed": "0x193d5",
      "logs": [
        {
          "address": "0xd21341536c5cf5eb1bcb58f6723ce26e8d8e90e4",
          "topics": [
            "0xddf252ad1be2c89b69c2b068fc378daa952ba7f163c4a11628f55a4df523b3ef",
            "0x0000000000000000000000007e8d7bfd6cc6b05d056f2e46860d95038f2e3234",
            "0x00000000000000000000000080c9d2245595bc18f60b04dc5368a29fde23ccbd"
          ],
          "data": "0x000000000000000000000000000000000000000000000000016345785d8a0000",
          "blockHash": "0x74a6d12e84c7c2065516090c8656bc35e83e9ffe2c0e7d2a3c79087f5a8aa64b",
          "blockNumber": "0x22922d3",
          "transactionHash": "0x240f78447522bf47eaf284d73c2dbe1d8278da9e9c288ad0a2d6ab8708cdb943",
          "transactionIndex": "0x1",
          "logIndex": "0x1",
          "removed": false
        }
      ],
      "logsBloom": "0x00000000000000000000000000000000000000000040000000000000000000000000000000000000100000000000000000000000000000000000000000000000000000004000000000000008000000000000000000801000002000000000000000000000000000000000000000000000000000000000000000000010000000000000000000000000000000000000000000000000000000000000000000000000000000000000000000000000000000000000000000000000000000000000000000000002000000000000000000000000000001000000000000000000000000000000000000000000000000000000000000000000000000400000000000400000",
      "type": "0x2",
      "transactionHash": "0x240f78447522bf47eaf284d73c2dbe1d8278da9e9c288ad0a2d6ab8708cdb943",
      "transactionIndex": "0x1",
      "blockHash": "0x74a6d12e84c7c2065516090c8656bc35e83e9ffe2c0e7d2a3c79087f5a8aa64b",
      "blockNumber": "0x22922d3",
      "gasUsed": "0xc91b",
      "effectiveGasPrice": "0x62b85e900",
      "from": "0x7e8d7bfd6cc6b05d056f2e46860d95038f2e3234",
      "to": "0xd21341536c5cf5eb1bcb58f6723ce26e8d8e90e4",
      "contractAddress": null
    }
  ],
  "libraries": [],
  "pending": [],
  "returns": {},
  "timestamp": 1728626499,
  "chain": 43113,
  "commit": "90333d4"
}