{
  "transactions": [
    {
      "hash": "0xb12335556eaeea4ad5801db84f4f402d879c77fc839cfb820b8eeb70fb1e7d97",
      "transactionType": "CALL",
      "contractName": null,
      "contractAddress": "0x0b9d5d9136855f6fec3c0993fee6e9ce8a297846",
      "function": "transfer(address,uint256)",
      "arguments": [
        "0xc8432a6268c9d539f62c227eD8ddAA3eAac92d37",
        "3000000000000000000"
      ],
      "transaction": {
        "from": "0x7e8d7bfd6cc6b05d056f2e46860d95038f2e3234",
        "to": "0x0b9d5d9136855f6fec3c0993fee6e9ce8a297846",
        "gas": "0x1287c",
        "value": "0x0",
        "input": "0xa9059cbb000000000000000000000000c8432a6268c9d539f62c227ed8ddaa3eaac92d3700000000000000000000000000000000000000000000000029a2241af62c0000",
        "nonce": "0x1e7",
        "chainId": "0xa869"
      },
      "additionalContracts": [],
      "isFixedGasLimit": false
    },
    {
      "hash": "0x3a96110f9fadaea2d1b4310af14a1f82c93bd7ae2bf27c4ad8a0cd7bbe2778f0",
      "transactionType": "CALL",
      "contractName": null,
      "contractAddress": "0xd21341536c5cf5eb1bcb58f6723ce26e8d8e90e4",
      "function": "transfer(address,uint256)",
      "arguments": [
        "0xc8432a6268c9d539f62c227eD8ddAA3eAac92d37",
        "100000000000000000"
      ],
      "transaction": {
        "from": "0x7e8d7bfd6cc6b05d056f2e46860d95038f2e3234",
        "to": "0xd21341536c5cf5eb1bcb58f6723ce26e8d8e90e4",
        "gas": "0x1261d",
        "value": "0x0",
        "input": "0xa9059cbb000000000000000000000000c8432a6268c9d539f62c227ed8ddaa3eaac92d37000000000000000000000000000000000000000000000000016345785d8a0000",
        "nonce": "0x1e8",
        "chainId": "0xa869"
      },
      "additionalContracts": [],
      "isFixedGasLimit": false
    }
  ],
  "receipts": [
    {
      "status": "0x1",
      "cumulativeGasUsed": "0xcaba",
      "logs": [
        {
          "address": "0x0b9d5d9136855f6fec3c0993fee6e9ce8a297846",
          "topics": [
            "0xddf252ad1be2c89b69c2b068fc378daa952ba7f163c4a11628f55a4df523b3ef",
            "0x0000000000000000000000007e8d7bfd6cc6b05d056f2e46860d95038f2e3234",
            "0x000000000000000000000000c8432a6268c9d539f62c227ed8ddaa3eaac92d37"
          ],
          "data": "0x00000000000000000000000000000000000000000000000029a2241af62c0000",
          "blockHash": "0xb1808e08b80c52f0fe0d734fa93a59dce1a8d51ed72a090cd37a8f26854a3af2",
          "blockNumber": "0x229240f",
          "transactionHash": "0xb12335556eaeea4ad5801db84f4f402d879c77fc839cfb820b8eeb70fb1e7d97",
          "transactionIndex": "0x0",
          "logIndex": "0x0",
          "removed": false
        }
      ],
      "logsBloom": "0x21000000000000000000000000000000000000000000004000000000000000000000000000000000000000000000000000000000000000000000000000000000000000004000000000000008000000000000000000801000000000000000000000000000000000000000000000000000000000000000000000000010000000000000000000000000000000000000000000000000000000000000000000000000000000000000000201000000000000000000000000000000000000000000000000000002000000000000000000000000000000000000000800000000000000000000000000000000000000000000000000000000000000000000000000000000",
      "type": "0x2",
      "transactionHash": "0xb12335556eaeea4ad5801db84f4f402d879c77fc839cfb820b8eeb70fb1e7d97",
      "transactionIndex": "0x0",
      "blockHash": "0xb1808e08b80c52f0fe0d734fa93a59dce1a8d51ed72a090cd37a8f26854a3af2",
      "blockNumber": "0x229240f",
      "gasUsed": "0xcaba",
      "effectiveGasPrice": "0x5d21dba01",
      "from": "0x7e8d7bfd6cc6b05d056f2e46860d95038f2e3234",
      "to": "0x0b9d5d9136855f6fec3c0993fee6e9ce8a297846",
      "contractAddress": null
    },
    {
      "status": "0x1",
      "cumulativeGasUsed": "0xc91b",
      "logs": [
        {
          "address": "0xd21341536c5cf5eb1bcb58f6723ce26e8d8e90e4",
          "topics": [
            "0xddf252ad1be2c89b69c2b068fc378daa952ba7f163c4a11628f55a4df523b3ef",
            "0x0000000000000000000000007e8d7bfd6cc6b05d056f2e46860d95038f2e3234",
            "0x000000000000000000000000c8432a6268c9d539f62c227ed8ddaa3eaac92d37"
          ],
          "data": "0x000000000000000000000000000000000000000000000000016345785d8a0000",
          "blockHash": "0x6977cb27b175ef5d8386b4baff611d945cfc1a8a7666ef54a1ba406e86d59a95",
          "blockNumber": "0x2292410",
          "transactionHash": "0x3a96110f9fadaea2d1b4310af14a1f82c93bd7ae2bf27c4ad8a0cd7bbe2778f0",
          "transactionIndex": "0x0",
          "logIndex": "0x0",
          "removed": false
        }
      ],
      "logsBloom": "0x20000000000000000000000000000000000000000000004000000000000000000000000000000000000000000000000000000000000000000000000000000000000000004000000000000008000000000000000000801000000000000000000000000000000000000000000000000000000000000000000000000010000000000000000000000000000000000000000000000000000000000000000000000000000000000000000001000000000000000000000000000000000000000000000000000002000000000000000000000000000001000000000000000000000000000000000000000000000000000000000000000000000000400000000000400000",
      "type": "0x2",
      "transactionHash": "0x3a96110f9fadaea2d1b4310af14a1f82c93bd7ae2bf27c4ad8a0cd7bbe2778f0",
      "transactionIndex": "0x0",
      "blockHash": "0x6977cb27b175ef5d8386b4baff611d945cfc1a8a7666ef54a1ba406e86d59a95",
      "blockNumber": "0x2292410",
      "gasUsed": "0xc91b",
      "effectiveGasPrice": "0x5d21dba01",
      "from": "0x7e8d7bfd6cc6b05d056f2e46860d95038f2e3234",
      "to": "0xd21341536c5cf5eb1bcb58f6723ce26e8d8e90e4",
      "contractAddress": null
    }
  ],
  "libraries": [],
  "pending": [],
  "returns": {},
  "timestamp": 1728628466,
  "chain": 43113,
  "commit": "90333d4"
}