{
  "transactions": [
    {
      "hash": "0x66d2219163c7a5eb5abf24e142a32a17044285ce0ce35b738671ae08de421f27",
      "transactionType": "CALL",
      "contractName": null,
      "contractAddress": "0x0b9d5d9136855f6fec3c0993fee6e9ce8a297846",
      "function": "transfer(address,uint256)",
      "arguments": [
        "0x21f11eCE3D50aFA4963944Cb38D824447E006704",
        "7500000000000000000"
      ],
      "transaction": {
        "from": "0x7e8d7bfd6cc6b05d056f2e46860d95038f2e3234",
        "to": "0x0b9d5d9136855f6fec3c0993fee6e9ce8a297846",
        "gas": "0x117f2",
        "value": "0x0",
        "input": "0xa9059cbb00000000000000000000000021f11ece3d50afa4963944cb38d824447e00670400000000000000000000000000000000000000000000000068155a43676e0000",
        "nonce": "0x1f5",
        "chainId": "0xa869"
      },
      "additionalContracts": [],
      "isFixedGasLimit": false
    },
    {
      "hash": "0x50720a04b5c67cd53b09e61169000fb66b91b2bf17781869a436bc0326c1948c",
      "transactionType": "CALL",
      "contractName": null,
      "contractAddress": "0xd21341536c5cf5eb1bcb58f6723ce26e8d8e90e4",
      "function": "transfer(address,uint256)",
      "arguments": [
        "0x21f11eCE3D50aFA4963944Cb38D824447E006704",
        "100000000000000000"
      ],
      "transaction": {
        "from": "0x7e8d7bfd6cc6b05d056f2e46860d95038f2e3234",
        "to": "0xd21341536c5cf5eb1bcb58f6723ce26e8d8e90e4",
        "gas": "0x115b5",
        "value": "0x0",
        "input": "0xa9059cbb00000000000000000000000021f11ece3d50afa4963944cb38d824447e006704000000000000000000000000000000000000000000000000016345785d8a0000",
        "nonce": "0x1f6",
        "chainId": "0xa869"
      },
      "additionalContracts": [],
      "isFixedGasLimit": false
    },
    {
      "hash": "0xec8ee539c797827a4bd3003eeda1642a04e0e301c96d79620a26471f2ba225a4",
      "transactionType": "CALL",
      "contractName": null,
      "contractAddress": "0x21f11ece3d50afa4963944cb38d824447e006704",
      "function": "sendMessage(address,uint256,address)",
      "arguments": [
        "0x3BFEF5cbFFfaA18A6ACF4e3dB96376E2ffc420ce",
        "100000000000000000",
        "0x7E8d7BFd6cc6B05d056f2E46860D95038f2E3234"
      ],
      "transaction": {
        "from": "0x7e8d7bfd6cc6b05d056f2e46860d95038f2e3234",
        "to": "0x21f11ece3d50afa4963944cb38d824447e006704",
        "gas": "0x66159",
        "value": "0x0",
        "input": "0x6ad107920000000000000000000000003bfef5cbfffaa18a6acf4e3db96376e2ffc420ce000000000000000000000000000000000000000000000000016345785d8a00000000000000000000000000007e8d7bfd6cc6b05d056f2e46860d95038f2e3234",
        "nonce": "0x1f7",
        "chainId": "0xa869"
      },
      "additionalContracts": [],
      "isFixedGasLimit": false
    }
  ],
  "receipts": [
    {
      "status": "0x1",
      "cumulativeGasUsed": "0xcaae",
      "logs": [
        {
          "address": "0x0b9d5d9136855f6fec3c0993fee6e9ce8a297846",
          "topics": [
            "0xddf252ad1be2c89b69c2b068fc378daa952ba7f163c4a11628f55a4df523b3ef",
            "0x0000000000000000000000007e8d7bfd6cc6b05d056f2e46860d95038f2e3234",
            "0x00000000000000000000000021f11ece3d50afa4963944cb38d824447e006704"
          ],
          "data": "0x00000000000000000000000000000000000000000000000068155a43676e0000",
          "blockHash": "0x7c8b49193d99ac03c7881794b7e7833dc4ce3aa39d78b131aed3c9009158ecf1",
          "blockNumber": "0x229272a",
          "transactionHash": "0x66d2219163c7a5eb5abf24e142a32a17044285ce0ce35b738671ae08de421f27",
          "transactionIndex": "0x0",
          "logIndex": "0x0",
          "removed": false
        }
      ],
      "logsBloom": "0x01000000000000000000000000000000008000000000000000000000000000000000000000000000000000000000000000000000000000000000000000000000000000004000000000000008000000000000000000801000000000000000000000000000000000000000000000000000000000000000000000000010000000000000000000000000000000000000000000000000000000000000000000000000000000000000000200000100000000000000000000000000000000000000000000000002000000000000000000000000000000000000000800000000000000000000000000000000000000000400000000000000000000000000000000000000",
      "type": "0x2",
      "transactionHash": "0x66d2219163c7a5eb5abf24e142a32a17044285ce0ce35b738671ae08de421f27",
      "transactionIndex": "0x0",
      "blockHash": "0x7c8b49193d99ac03c7881794b7e7833dc4ce3aa39d78b131aed3c9009158ecf1",
      "blockNumber": "0x229272a",
      "gasUsed": "0xcaae",
      "effectiveGasPrice": "0x6fc23ac00",
      "from": "0x7e8d7bfd6cc6b05d056f2e46860d95038f2e3234",
      "to": "0x0b9d5d9136855f6fec3c0993fee6e9ce8a297846",
      "contractAddress": null
    },
    {
      "status": "0x1",
      "cumulativeGasUsed": "0x193bd",
      "logs": [
        {
          "address": "0xd21341536c5cf5eb1bcb58f6723ce26e8d8e90e4",
          "topics": [
            "0xddf252ad1be2c89b69c2b068fc378daa952ba7f163c4a11628f55a4df523b3ef",
            "0x0000000000000000000000007e8d7bfd6cc6b05d056f2e46860d95038f2e3234",
            "0x00000000000000000000000021f11ece3d50afa4963944cb38d824447e006704"
          ],
          "data": "0x000000000000000000000000000000000000000000000000016345785d8a0000",
          "blockHash": "0x7c8b49193d99ac03c7881794b7e7833dc4ce3aa39d78b131aed3c9009158ecf1",
          "blockNumber": "0x229272a",
          "transactionHash": "0x50720a04b5c67cd53b09e61169000fb66b91b2bf17781869a436bc0326c1948c",
          "transactionIndex": "0x1",
          "logIndex": "0x1",
          "removed": false
        }
      ],
      "logsBloom": "0x00000000000000000000000000000000008000000000000000000000000000000000000000000000000000000000000000000000000000000000000000000000000000004000000000000008000000000000000000801000000000000000000000000000000000000000000000000000000000000000000000000010000000000000000000000000000000000000000000000000000000000000000000000000000000000000000000000100000000000000000000000000000000000000000000000002000000000000000000000000000001000000000000000000000000000000000000000000000000000400000000000000000000400000000000400000",
      "type": "0x2",
      "transactionHash": "0x50720a04b5c67cd53b09e61169000fb66b91b2bf17781869a436bc0326c1948c",
      "transactionIndex": "0x1",
      "blockHash": "0x7c8b49193d99ac03c7881794b7e7833dc4ce3aa39d78b131aed3c9009158ecf1",
      "blockNumber": "0x229272a",
      "gasUsed": "0xc90f",
      "effectiveGasPrice": "0x6fc23ac00",
      "from": "0x7e8d7bfd6cc6b05d056f2e46860d95038f2e3234",
      "to": "0xd21341536c5cf5eb1bcb58f6723ce26e8d8e90e4",
      "contractAddress": null
    },
    {
      "status": "0x1",
      "cumulativeGasUsed": "0x707c3",
      "logs": [
        {
          "address": "0x0b9d5d9136855f6fec3c0993fee6e9ce8a297846",
          "topics": [
            "0x8c5be1e5ebec7d5bd14f71427d1e84f3dd0314c0f7b2291e5b200ac8c7c3b925",
            "0x00000000000000000000000021f11ece3d50afa4963944cb38d824447e006704",
            "0x000000000000000000000000f694e193200268f9a4868e4aa017a0118c9a8177"
          ],
          "data": "0x00000000000000000000000000000000000000000000000058ec4b08b95b997f",
          "blockHash": "0x7c8b49193d99ac03c7881794b7e7833dc4ce3aa39d78b131aed3c9009158ecf1",
          "blockNumber": "0x229272a",
          "transactionHash": "0xec8ee539c797827a4bd3003eeda1642a04e0e301c96d79620a26471f2ba225a4",
          "transactionIndex": "0x2",
          "logIndex": "0x2",
          "removed": false
        },
        {
          "address": "0xd21341536c5cf5eb1bcb58f6723ce26e8d8e90e4",
          "topics": [
            "0x8c5be1e5ebec7d5bd14f71427d1e84f3dd0314c0f7b2291e5b200ac8c7c3b925",
            "0x00000000000000000000000021f11ece3d50afa4963944cb38d824447e006704",
            "0x000000000000000000000000f694e193200268f9a4868e4aa017a0118c9a8177"
          ],
          "data": "0x000000000000000000000000000000000000000000000000016345785d8a0000",
          "blockHash": "0x7c8b49193d99ac03c7881794b7e7833dc4ce3aa39d78b131aed3c9009158ecf1",
          "blockNumber": "0x229272a",
          "transactionHash": "0xec8ee539c797827a4bd3003eeda1642a04e0e301c96d79620a26471f2ba225a4",
          "transactionIndex": "0x2",
          "logIndex": "0x3",
          "removed": false
        },
        {
          "address": "0x0b9d5d9136855f6fec3c0993fee6e9ce8a297846",
          "topics": [
            "0xddf252ad1be2c89b69c2b068fc378daa952ba7f163c4a11628f55a4df523b3ef",
            "0x00000000000000000000000021f11ece3d50afa4963944cb38d824447e006704",
            "0x00000000000000000000000075b9a75ee1ffef6be7c4f842a041de7c6153cf4e"
          ],
          "data": "0x00000000000000000000000000000000000000000000000058ec4b08b95b997f",
          "blockHash": "0x7c8b49193d99ac03c7881794b7e7833dc4ce3aa39d78b131aed3c9009158ecf1",
          "blockNumber": "0x229272a",
          "transactionHash": "0xec8ee539c797827a4bd3003eeda1642a04e0e301c96d79620a26471f2ba225a4",
          "transactionIndex": "0x2",
          "logIndex": "0x4",
          "removed": false
        },
        {
          "address": "0xd21341536c5cf5eb1bcb58f6723ce26e8d8e90e4",
          "topics": [
            "0x8c5be1e5ebec7d5bd14f71427d1e84f3dd0314c0f7b2291e5b200ac8c7c3b925",
            "0x00000000000000000000000021f11ece3d50afa4963944cb38d824447e006704",
            "0x000000000000000000000000f694e193200268f9a4868e4aa017a0118c9a8177"
          ],
          "data": "0x0000000000000000000000000000000000000000000000000000000000000000",
          "blockHash": "0x7c8b49193d99ac03c7881794b7e7833dc4ce3aa39d78b131aed3c9009158ecf1",
          "blockNumber": "0x229272a",
          "transactionHash": "0xec8ee539c797827a4bd3003eeda1642a04e0e301c96d79620a26471f2ba225a4",
          "transactionIndex": "0x2",
          "logIndex": "0x5",
          "removed": false
        },
        {
          "address": "0xd21341536c5cf5eb1bcb58f6723ce26e8d8e90e4",
          "topics": [
            "0xddf252ad1be2c89b69c2b068fc378daa952ba7f163c4a11628f55a4df523b3ef",
            "0x00000000000000000000000021f11ece3d50afa4963944cb38d824447e006704",
            "0x000000000000000000000000960a399deb6c3475fbc62c16e7588b1bf1f95ae6"
          ],
          "data": "0x000000000000000000000000000000000000000000000000016345785d8a0000",
          "blockHash": "0x7c8b49193d99ac03c7881794b7e7833dc4ce3aa39d78b131aed3c9009158ecf1",
          "blockNumber": "0x229272a",
          "transactionHash": "0xec8ee539c797827a4bd3003eeda1642a04e0e301c96d79620a26471f2ba225a4",
          "transactionIndex": "0x2",
          "logIndex": "0x6",
          "removed": false
        },
        {
          "address": "0x960a399deb6c3475fbc62c16e7588b1bf1f95ae6",
          "topics": [
            "0x1871cdf8010e63f2eb8384381a68dfa7416dc571a5517e66e88b2d2d0c0a690a"
          ],
          "data": "0x000000000000000000000000000000000000000000000000016345785d8a0000",
          "blockHash": "0x7c8b49193d99ac03c7881794b7e7833dc4ce3aa39d78b131aed3c9009158ecf1",
          "blockNumber": "0x229272a",
          "transactionHash": "0xec8ee539c797827a4bd3003eeda1642a04e0e301c96d79620a26471f2ba225a4",
          "transactionIndex": "0x2",
          "logIndex": "0x7",
          "removed": false
        },
        {
          "address": "0xd21341536c5cf5eb1bcb58f6723ce26e8d8e90e4",
          "topics": [
            "0xddf252ad1be2c89b69c2b068fc378daa952ba7f163c4a11628f55a4df523b3ef",
            "0x000000000000000000000000960a399deb6c3475fbc62c16e7588b1bf1f95ae6",
            "0x000000000000000000000000ec1062cbdf4fbf31b3a6aac62b6f6f123bb70e12"
          ],
          "data": "0x000000000000000000000000000000000000000000000000016345785d8a0000",
          "blockHash": "0x7c8b49193d99ac03c7881794b7e7833dc4ce3aa39d78b131aed3c9009158ecf1",
          "blockNumber": "0x229272a",
          "transactionHash": "0xec8ee539c797827a4bd3003eeda1642a04e0e301c96d79620a26471f2ba225a4",
          "transactionIndex": "0x2",
          "logIndex": "0x8",
          "removed": false
        },
        {
          "address": "0xd21341536c5cf5eb1bcb58f6723ce26e8d8e90e4",
          "topics": [
            "0xddf252ad1be2c89b69c2b068fc378daa952ba7f163c4a11628f55a4df523b3ef",
            "0x000000000000000000000000ec1062cbdf4fbf31b3a6aac62b6f6f123bb70e12",
            "0x0000000000000000000000000000000000000000000000000000000000000000"
          ],
          "data": "0x000000000000000000000000000000000000000000000000016345785d8a0000",
          "blockHash": "0x7c8b49193d99ac03c7881794b7e7833dc4ce3aa39d78b131aed3c9009158ecf1",
          "blockNumber": "0x229272a",
          "transactionHash": "0xec8ee539c797827a4bd3003eeda1642a04e0e301c96d79620a26471f2ba225a4",
          "transactionIndex": "0x2",
          "logIndex": "0x9",
          "removed": false
        },
        {
          "address": "0xec1062cbdf4fbf31b3a6aac62b6f6f123bb70e12",
          "topics": [
            "0x696de425f79f4a40bc6d2122ca50507f0efbeabbff86a84871b7196ab8ea8df7",
            "0x000000000000000000000000960a399deb6c3475fbc62c16e7588b1bf1f95ae6"
          ],
          "data": "0x000000000000000000000000000000000000000000000000016345785d8a0000",
          "blockHash": "0x7c8b49193d99ac03c7881794b7e7833dc4ce3aa39d78b131aed3c9009158ecf1",
          "blockNumber": "0x229272a",
          "transactionHash": "0xec8ee539c797827a4bd3003eeda1642a04e0e301c96d79620a26471f2ba225a4",
          "transactionIndex": "0x2",
          "logIndex": "0xa",
          "removed": false
        },
        {
          "address": "0x960a399deb6c3475fbc62c16e7588b1bf1f95ae6",
          "topics": [
            "0x696de425f79f4a40bc6d2122ca50507f0efbeabbff86a84871b7196ab8ea8df7",
            "0x00000000000000000000000075b9a75ee1ffef6be7c4f842a041de7c6153cf4e"
          ],
          "data": "0x000000000000000000000000000000000000000000000000016345785d8a0000",
          "blockHash": "0x7c8b49193d99ac03c7881794b7e7833dc4ce3aa39d78b131aed3c9009158ecf1",
          "blockNumber": "0x229272a",
          "transactionHash": "0xec8ee539c797827a4bd3003eeda1642a04e0e301c96d79620a26471f2ba225a4",
          "transactionIndex": "0x2",
          "logIndex": "0xb",
          "removed": false
        },
        {
          "address": "0x75b9a75ee1ffef6be7c4f842a041de7c6153cf4e",
          "topics": [
            "0xd0c3c799bf9e2639de44391e7f524d229b2b55f5b1ea94b2bf7da42f7243dddd"
          ],
          "data": "0x0000000000000000000000000000000000000000000000000000000000000020000000000000000000000000000000000000000000000000ccf0a31a221f3c9b00000000000000000000000021f11ece3d50afa4963944cb38d824447e0067040000000000000000000000003bfef5cbfffaa18a6acf4e3db96376e2ffc420ce000000000000000000000000000000000000000000000000000000000000004d00000000000000000000000000000000000000000000000000000000000dbba0000000000000000000000000000000000000000000000000000000000000000000000000000000000000000000000000000000000000000000000000000000010000000000000000000000000b9d5d9136855f6fec3c0993fee6e9ce8a29784600000000000000000000000000000000000000000000000058ec4b08b95b997f00000000000000000000000000000000000000000000000000000000000001a0000000000000000000000000000000000000000000000000000000000000024000000000000000000000000000000000000000000000000000000000000002a07441470cc1a545bbbf3bc348e380c957e8765380f931b62d9754e78242f8f5360000000000000000000000000000000000000000000000000000000000000064bbaa3c820000000000000000000000007e8d7bfd6cc6b05d056f2e46860d95038f2e3234000000000000000000000000000000000000000000000000016345785d8a000000000000000000000000000021f11ece3d50afa4963944cb38d824447e006704000000000000000000000000000000000000000000000000000000000000000000000000000000000000000000000000000000000000000000000001000000000000000000000000d21341536c5cf5eb1bcb58f6723ce26e8d8e90e4000000000000000000000000000000000000000000000000016345785d8a00000000000000000000000000000000000000000000000000000000000000000001000000000000000000000000000000000000000000000000000000000000002000000000000000000000000000000000000000000000000000000000000001400000000000000000000000000000000000000000000000000000000000000020000000000000000000000000000000000000000000000000000000000000008000000000000000000000000000000000000000000000000000000000000000c000000000000000000000000000000000000000000000000000000000000001000000000000000000000000000000000000000000000000000000000000015f900000000000000000000000000000000000000000000000000000000000000020000000000000000000000000960a399deb6c3475fbc62c16e7588b1bf1f95ae60000000000000000000000000000000000000000000000000000000000000020000000000000000000000000fd57b4ddbf88a4e07ff4e34c487b99af2fe82a050000000000000000000000000000000000000000000000000000000000000000",
          "blockHash": "0x7c8b49193d99ac03c7881794b7e7833dc4ce3aa39d78b131aed3c9009158ecf1",
          "blockNumber": "0x229272a",
          "transactionHash": "0xec8ee539c797827a4bd3003eeda1642a04e0e301c96d79620a26471f2ba225a4",
          "transactionIndex": "0x2",
          "logIndex": "0xc",
          "removed": false
        }
      ],
      "logsBloom": "0x010000000c0000000001000000000000008000000000000000000000000000000000000010000000002000000000000000000000000000000000000000200000000000000000020000000008000002000000000000000000000000000000000000002000060000000000004000000802040000000008000000000010000000100008000000000000000000000000000000000000000000000000000000000000024000000000000600000100000040000080000400000800000101100000000000000002000000000000000000000000000001000040000800400000000020000010000000000000000000000400000004000200000000400000000100400000",
      "type": "0x2",
      "transactionHash": "0xec8ee539c797827a4bd3003eeda1642a04e0e301c96d79620a26471f2ba225a4",
      "transactionIndex": "0x2",
      "blockHash": "0x7c8b49193d99ac03c7881794b7e7833dc4ce3aa39d78b131aed3c9009158ecf1",
      "blockNumber": "0x229272a",
      "gasUsed": "0x57406",
      "effectiveGasPrice": "0x6fc23ac00",
      "from": "0x7e8d7bfd6cc6b05d056f2e46860d95038f2e3234",
      "to": "0x21f11ece3d50afa4963944cb38d824447e006704",
      "contractAddress": null
    }
  ],
  "libraries": [],
  "pending": [],
  "returns": {},
  "timestamp": 1728633744,
  "chain": 43113,
  "commit": "90333d4"
}