{
  "transactions": [
    {
      "hash": "0xbecc7fad1fb482a4c7b9b0e6fa1729cc26f846d1077caee97d25e5cc1f913f4d",
      "transactionType": "CALL",
      "contractName": null,
      "contractAddress": "0x0b9d5d9136855f6fec3c0993fee6e9ce8a297846",
      "function": "transfer(address,uint256)",
      "arguments": [
        "0x75b9E829e41AB16A49C7D6B93086dBa4a080c4B4",
        "5000000000000000000"
      ],
      "transaction": {
        "from": "0x7e8d7bfd6cc6b05d056f2e46860d95038f2e3234",
        "to": "0x0b9d5d9136855f6fec3c0993fee6e9ce8a297846",
        "gas": "0x1287c",
        "value": "0x0",
        "input": "0xa9059cbb00000000000000000000000075b9e829e41ab16a49c7d6b93086dba4a080c4b40000000000000000000000000000000000000000000000004563918244f40000",
        "nonce": "0x217",
        "chainId": "0xa869"
      },
      "additionalContracts": [],
      "isFixedGasLimit": false
    },
    {
      "hash": "0x68d7122cf54a7286e800cde51a4a3e899b7853fbd30b6b19af6ff57fc9ccb41c",
      "transactionType": "CALL",
      "contractName": null,
      "contractAddress": "0xd21341536c5cf5eb1bcb58f6723ce26e8d8e90e4",
      "function": "transfer(address,uint256)",
      "arguments": [
        "0x75b9E829e41AB16A49C7D6B93086dBa4a080c4B4",
        "10000000000000000"
      ],
      "transaction": {
        "from": "0x7e8d7bfd6cc6b05d056f2e46860d95038f2e3234",
        "to": "0xd21341536c5cf5eb1bcb58f6723ce26e8d8e90e4",
        "gas": "0x115b5",
        "value": "0x0",
        "input": "0xa9059cbb00000000000000000000000075b9e829e41ab16a49c7d6b93086dba4a080c4b4000000000000000000000000000000000000000000000000002386f26fc10000",
        "nonce": "0x218",
        "chainId": "0xa869"
      },
      "additionalContracts": [],
      "isFixedGasLimit": false
    },
    {
      "hash": "0xafebc5711d15169d1efbe72982d1138dd88d5b1a53e82797be04ea8c1226b65f",
      "transactionType": "CALL",
      "contractName": null,
      "contractAddress": "0x75b9e829e41ab16a49c7d6b93086dba4a080c4b4",
      "function": "sendMessage(address,uint256,address)",
      "arguments": [
        "0x339CF0551e9763DB3adf22AedbDb8616e78F79e1",
        "10000000000000000",
        "0x7E8d7BFd6cc6B05d056f2E46860D95038f2E3234"
      ],
      "transaction": {
        "from": "0x7e8d7bfd6cc6b05d056f2e46860d95038f2e3234",
        "to": "0x75b9e829e41ab16a49c7d6b93086dba4a080c4b4",
        "gas": "0x6068d",
        "value": "0x0",
        "input": "0x6ad10792000000000000000000000000339cf0551e9763db3adf22aedbdb8616e78f79e1000000000000000000000000000000000000000000000000002386f26fc100000000000000000000000000007e8d7bfd6cc6b05d056f2e46860d95038f2e3234",
        "nonce": "0x219",
        "chainId": "0xa869"
      },
      "additionalContracts": [],
      "isFixedGasLimit": false
    }
  ],
  "receipts": [
    {
      "status": "0x1",
      "cumulativeGasUsed": "0xcaba",
      "logs": [
        {
          "address": "0x0b9d5d9136855f6fec3c0993fee6e9ce8a297846",
          "topics": [
            "0xddf252ad1be2c89b69c2b068fc378daa952ba7f163c4a11628f55a4df523b3ef",
            "0x0000000000000000000000007e8d7bfd6cc6b05d056f2e46860d95038f2e3234",
            "0x00000000000000000000000075b9e829e41ab16a49c7d6b93086dba4a080c4b4"
          ],
          "data": "0x0000000000000000000000000000000000000000000000004563918244f40000",
          "blockHash": "0x6b4ae906875f6b24732d2ab1b510202279d2919f2086de6c67aa5387325dcaba",
          "blockNumber": "0x2293d15",
          "transactionHash": "0xbecc7fad1fb482a4c7b9b0e6fa1729cc26f846d1077caee97d25e5cc1f913f4d",
          "transactionIndex": "0x0",
          "logIndex": "0x0",
          "removed": false
        }
      ],
      "logsBloom": "0x01000000000000000000000000000000000000000000000000000000000000000000000000000000000000000000000000000000000000000000000000000000000000004000000000000008000000000000000000801000000000000000000000000000000000000000000000000000000000000000000000000010000000000000000000000000000000000000000000000000000000000000000000000000000000000000000200000000000000000000000000000000000000000000000000000002000000000000000000001000000000000000000800080000000000000000000000000000040000000000000000000000000000000000000000000000",
      "type": "0x2",
      "transactionHash": "0xbecc7fad1fb482a4c7b9b0e6fa1729cc26f846d1077caee97d25e5cc1f913f4d",
      "transactionIndex": "0x0",
      "blockHash": "0x6b4ae906875f6b24732d2ab1b510202279d2919f2086de6c67aa5387325dcaba",
      "blockNumber": "0x2293d15",
      "gasUsed": "0xcaba",
      "effectiveGasPrice": "0x62b85e900",
      "from": "0x7e8d7bfd6cc6b05d056f2e46860d95038f2e3234",
      "to": "0x0b9d5d9136855f6fec3c0993fee6e9ce8a297846",
      "contractAddress": null
    },
    {
      "status": "0x1",
      "cumulativeGasUsed": "0x193c9",
      "logs": [
        {
          "address": "0xd21341536c5cf5eb1bcb58f6723ce26e8d8e90e4",
          "topics": [
            "0xddf252ad1be2c89b69c2b068fc378daa952ba7f163c4a11628f55a4df523b3ef",
            "0x0000000000000000000000007e8d7bfd6cc6b05d056f2e46860d95038f2e3234",
            "0x00000000000000000000000075b9e829e41ab16a49c7d6b93086dba4a080c4b4"
          ],
          "data": "0x000000000000000000000000000000000000000000000000002386f26fc10000",
          "blockHash": "0x6b4ae906875f6b24732d2ab1b510202279d2919f2086de6c67aa5387325dcaba",
          "blockNumber": "0x2293d15",
          "transactionHash": "0x68d7122cf54a7286e800cde51a4a3e899b7853fbd30b6b19af6ff57fc9ccb41c",
          "transactionIndex": "0x1",
          "logIndex": "0x1",
          "removed": false
        }
      ],
      "logsBloom": "0x00000000000000000000000000000000000000000000000000000000000000000000000000000000000000000000000000000000000000000000000000000000000000004000000000000008000000000000000000801000000000000000000000000000000000000000000000000000000000000000000000000010000000000000000000000000000000000000000000000000000000000000000000000000000000000000000000000000000000000000000000000000000000000000000000000002000000000000000000001000000001000000000000080000000000000000000000000000040000000000000000000000000000400000000000400000",
      "type": "0x2",
      "transactionHash": "0x68d7122cf54a7286e800cde51a4a3e899b7853fbd30b6b19af6ff57fc9ccb41c",
      "transactionIndex": "0x1",
      "blockHash": "0x6b4ae906875f6b24732d2ab1b510202279d2919f2086de6c67aa5387325dcaba",
      "blockNumber": "0x2293d15",
      "gasUsed": "0xc90f",
      "effectiveGasPrice": "0x62b85e900",
      "from": "0x7e8d7bfd6cc6b05d056f2e46860d95038f2e3234",
      "to": "0xd21341536c5cf5eb1bcb58f6723ce26e8d8e90e4",
      "contractAddress": null
    },
    {
      "status": "0x1",
      "cumulativeGasUsed": "0x707c3",
      "logs": [
        {
          "address": "0x0b9d5d9136855f6fec3c0993fee6e9ce8a297846",
          "topics": [
            "0x8c5be1e5ebec7d5bd14f71427d1e84f3dd0314c0f7b2291e5b200ac8c7c3b925",
            "0x00000000000000000000000075b9e829e41ab16a49c7d6b93086dba4a080c4b4",
            "0x000000000000000000000000f694e193200268f9a4868e4aa017a0118c9a8177"
          ],
          "data": "0x0000000000000000000000000000000000000000000000001188322f3cc542e4",
          "blockHash": "0x6b4ae906875f6b24732d2ab1b510202279d2919f2086de6c67aa5387325dcaba",
          "blockNumber": "0x2293d15",
          "transactionHash": "0xafebc5711d15169d1efbe72982d1138dd88d5b1a53e82797be04ea8c1226b65f",
          "transactionIndex": "0x2",
          "logIndex": "0x2",
          "removed": false
        },
        {
          "address": "0xd21341536c5cf5eb1bcb58f6723ce26e8d8e90e4",
          "topics": [
            "0x8c5be1e5ebec7d5bd14f71427d1e84f3dd0314c0f7b2291e5b200ac8c7c3b925",
            "0x00000000000000000000000075b9e829e41ab16a49c7d6b93086dba4a080c4b4",
            "0x000000000000000000000000f694e193200268f9a4868e4aa017a0118c9a8177"
          ],
          "data": "0x000000000000000000000000000000000000000000000000002386f26fc10000",
          "blockHash": "0x6b4ae906875f6b24732d2ab1b510202279d2919f2086de6c67aa5387325dcaba",
          "blockNumber": "0x2293d15",
          "transactionHash": "0xafebc5711d15169d1efbe72982d1138dd88d5b1a53e82797be04ea8c1226b65f",
          "transactionIndex": "0x2",
          "logIndex": "0x3",
          "removed": false
        },
        {
          "address": "0x0b9d5d9136855f6fec3c0993fee6e9ce8a297846",
          "topics": [
            "0xddf252ad1be2c89b69c2b068fc378daa952ba7f163c4a11628f55a4df523b3ef",
            "0x00000000000000000000000075b9e829e41ab16a49c7d6b93086dba4a080c4b4",
            "0x00000000000000000000000075b9a75ee1ffef6be7c4f842a041de7c6153cf4e"
          ],
          "data": "0x0000000000000000000000000000000000000000000000001188322f3cc542e4",
          "blockHash": "0x6b4ae906875f6b24732d2ab1b510202279d2919f2086de6c67aa5387325dcaba",
          "blockNumber": "0x2293d15",
          "transactionHash": "0xafebc5711d15169d1efbe72982d1138dd88d5b1a53e82797be04ea8c1226b65f",
          "transactionIndex": "0x2",
          "logIndex": "0x4",
          "removed": false
        },
        {
          "address": "0xd21341536c5cf5eb1bcb58f6723ce26e8d8e90e4",
          "topics": [
            "0x8c5be1e5ebec7d5bd14f71427d1e84f3dd0314c0f7b2291e5b200ac8c7c3b925",
            "0x00000000000000000000000075b9e829e41ab16a49c7d6b93086dba4a080c4b4",
            "0x000000000000000000000000f694e193200268f9a4868e4aa017a0118c9a8177"
          ],
          "data": "0x0000000000000000000000000000000000000000000000000000000000000000",
          "blockHash": "0x6b4ae906875f6b24732d2ab1b510202279d2919f2086de6c67aa5387325dcaba",
          "blockNumber": "0x2293d15",
          "transactionHash": "0xafebc5711d15169d1efbe72982d1138dd88d5b1a53e82797be04ea8c1226b65f",
          "transactionIndex": "0x2",
          "logIndex": "0x5",
          "removed": false
        },
        {
          "address": "0xd21341536c5cf5eb1bcb58f6723ce26e8d8e90e4",
          "topics": [
            "0xddf252ad1be2c89b69c2b068fc378daa952ba7f163c4a11628f55a4df523b3ef",
            "0x00000000000000000000000075b9e829e41ab16a49c7d6b93086dba4a080c4b4",
            "0x000000000000000000000000960a399deb6c3475fbc62c16e7588b1bf1f95ae6"
          ],
          "data": "0x000000000000000000000000000000000000000000000000002386f26fc10000",
          "blockHash": "0x6b4ae906875f6b24732d2ab1b510202279d2919f2086de6c67aa5387325dcaba",
          "blockNumber": "0x2293d15",
          "transactionHash": "0xafebc5711d15169d1efbe72982d1138dd88d5b1a53e82797be04ea8c1226b65f",
          "transactionIndex": "0x2",
          "logIndex": "0x6",
          "removed": false
        },
        {
          "address": "0x960a399deb6c3475fbc62c16e7588b1bf1f95ae6",
          "topics": [
            "0x1871cdf8010e63f2eb8384381a68dfa7416dc571a5517e66e88b2d2d0c0a690a"
          ],
          "data": "0x000000000000000000000000000000000000000000000000002386f26fc10000",
          "blockHash": "0x6b4ae906875f6b24732d2ab1b510202279d2919f2086de6c67aa5387325dcaba",
          "blockNumber": "0x2293d15",
          "transactionHash": "0xafebc5711d15169d1efbe72982d1138dd88d5b1a53e82797be04ea8c1226b65f",
          "transactionIndex": "0x2",
          "logIndex": "0x7",
          "removed": false
        },
        {
          "address": "0xd21341536c5cf5eb1bcb58f6723ce26e8d8e90e4",
          "topics": [
            "0xddf252ad1be2c89b69c2b068fc378daa952ba7f163c4a11628f55a4df523b3ef",
            "0x000000000000000000000000960a399deb6c3475fbc62c16e7588b1bf1f95ae6",
            "0x000000000000000000000000ec1062cbdf4fbf31b3a6aac62b6f6f123bb70e12"
          ],
          "data": "0x000000000000000000000000000000000000000000000000002386f26fc10000",
          "blockHash": "0x6b4ae906875f6b24732d2ab1b510202279d2919f2086de6c67aa5387325dcaba",
          "blockNumber": "0x2293d15",
          "transactionHash": "0xafebc5711d15169d1efbe72982d1138dd88d5b1a53e82797be04ea8c1226b65f",
          "transactionIndex": "0x2",
          "logIndex": "0x8",
          "removed": false
        },
        {
          "address": "0xd21341536c5cf5eb1bcb58f6723ce26e8d8e90e4",
          "topics": [
            "0xddf252ad1be2c89b69c2b068fc378daa952ba7f163c4a11628f55a4df523b3ef",
            "0x000000000000000000000000ec1062cbdf4fbf31b3a6aac62b6f6f123bb70e12",
            "0x0000000000000000000000000000000000000000000000000000000000000000"
          ],
          "data": "0x000000000000000000000000000000000000000000000000002386f26fc10000",
          "blockHash": "0x6b4ae906875f6b24732d2ab1b510202279d2919f2086de6c67aa5387325dcaba",
          "blockNumber": "0x2293d15",
          "transactionHash": "0xafebc5711d15169d1efbe72982d1138dd88d5b1a53e82797be04ea8c1226b65f",
          "transactionIndex": "0x2",
          "logIndex": "0x9",
          "removed": false
        },
        {
          "address": "0xec1062cbdf4fbf31b3a6aac62b6f6f123bb70e12",
          "topics": [
            "0x696de425f79f4a40bc6d2122ca50507f0efbeabbff86a84871b7196ab8ea8df7",
            "0x000000000000000000000000960a399deb6c3475fbc62c16e7588b1bf1f95ae6"
          ],
          "data": "0x000000000000000000000000000000000000000000000000002386f26fc10000",
          "blockHash": "0x6b4ae906875f6b24732d2ab1b510202279d2919f2086de6c67aa5387325dcaba",
          "blockNumber": "0x2293d15",
          "transactionHash": "0xafebc5711d15169d1efbe72982d1138dd88d5b1a53e82797be04ea8c1226b65f",
          "transactionIndex": "0x2",
          "logIndex": "0xa",
          "removed": false
        },
        {
          "address": "0x960a399deb6c3475fbc62c16e7588b1bf1f95ae6",
          "topics": [
            "0x696de425f79f4a40bc6d2122ca50507f0efbeabbff86a84871b7196ab8ea8df7",
            "0x00000000000000000000000075b9a75ee1ffef6be7c4f842a041de7c6153cf4e"
          ],
          "data": "0x000000000000000000000000000000000000000000000000002386f26fc10000",
          "blockHash": "0x6b4ae906875f6b24732d2ab1b510202279d2919f2086de6c67aa5387325dcaba",
          "blockNumber": "0x2293d15",
          "transactionHash": "0xafebc5711d15169d1efbe72982d1138dd88d5b1a53e82797be04ea8c1226b65f",
          "transactionIndex": "0x2",
          "logIndex": "0xb",
          "removed": false
        },
        {
          "address": "0x75b9a75ee1ffef6be7c4f842a041de7c6153cf4e",
          "topics": [
            "0xd0c3c799bf9e2639de44391e7f524d229b2b55f5b1ea94b2bf7da42f7243dddd"
          ],
          "data": "0x0000000000000000000000000000000000000000000000000000000000000020000000000000000000000000000000000000000000000000ccf0a31a221f3c9b00000000000000000000000075b9e829e41ab16a49c7d6b93086dba4a080c4b4000000000000000000000000339cf0551e9763db3adf22aedbdb8616e78f79e1000000000000000000000000000000000000000000000000000000000000005b00000000000000000000000000000000000000000000000000000000000e7ef0000000000000000000000000000000000000000000000000000000000000000000000000000000000000000000000000000000000000000000000000000000010000000000000000000000000b9d5d9136855f6fec3c0993fee6e9ce8a2978460000000000000000000000000000000000000000000000001188322f3cc542e400000000000000000000000000000000000000000000000000000000000001a0000000000000000000000000000000000000000000000000000000000000024000000000000000000000000000000000000000000000000000000000000002a07845995c9053c434e2f95c95cb57f8020b8c3516fb6fa20a41cdf77356547e840000000000000000000000000000000000000000000000000000000000000064bbaa3c820000000000000000000000007e8d7bfd6cc6b05d056f2e46860d95038f2e3234000000000000000000000000000000000000000000000000002386f26fc1000000000000000000000000000075b9e829e41ab16a49c7d6b93086dba4a080c4b4000000000000000000000000000000000000000000000000000000000000000000000000000000000000000000000000000000000000000000000001000000000000000000000000d21341536c5cf5eb1bcb58f6723ce26e8d8e90e4000000000000000000000000000000000000000000000000002386f26fc100000000000000000000000000000000000000000000000000000000000000000001000000000000000000000000000000000000000000000000000000000000002000000000000000000000000000000000000000000000000000000000000001400000000000000000000000000000000000000000000000000000000000000020000000000000000000000000000000000000000000000000000000000000008000000000000000000000000000000000000000000000000000000000000000c000000000000000000000000000000000000000000000000000000000000001000000000000000000000000000000000000000000000000000000000000015f900000000000000000000000000000000000000000000000000000000000000020000000000000000000000000960a399deb6c3475fbc62c16e7588b1bf1f95ae60000000000000000000000000000000000000000000000000000000000000020000000000000000000000000fd57b4ddbf88a4e07ff4e34c487b99af2fe82a050000000000000000000000000000000000000000000000000000000000000000",
          "blockHash": "0x6b4ae906875f6b24732d2ab1b510202279d2919f2086de6c67aa5387325dcaba",
          "blockNumber": "0x2293d15",
          "transactionHash": "0xafebc5711d15169d1efbe72982d1138dd88d5b1a53e82797be04ea8c1226b65f",
          "transactionIndex": "0x2",
          "logIndex": "0xc",
          "removed": false
        }
      ],
      "logsBloom": "0x010000000c0000000001000000000000000000000000000000000000000000000000000010000000002000000000000000000000000000000000000000200000000000000000020000000008000002000000000000000000000000000000000000002000060000000000004000000802040000000008000000000010000000100008000000000000000000000000000000000000000000000000000000000000024000000000000600000000000040000080000400000800000101100000000000000002000000000000000000001000000001000040000800480000000020000010000000000000040000000000000004000200000000400000000100400000",
      "type": "0x2",
      "transactionHash": "0xafebc5711d15169d1efbe72982d1138dd88d5b1a53e82797be04ea8c1226b65f",
      "transactionIndex": "0x2",
      "blockHash": "0x6b4ae906875f6b24732d2ab1b510202279d2919f2086de6c67aa5387325dcaba",
      "blockNumber": "0x2293d15",
      "gasUsed": "0x573fa",
      "effectiveGasPrice": "0x62b85e900",
      "from": "0x7e8d7bfd6cc6b05d056f2e46860d95038f2e3234",
      "to": "0x75b9e829e41ab16a49c7d6b93086dba4a080c4b4",
      "contractAddress": null
    }
  ],
  "libraries": [],
  "pending": [],
  "returns": {},
  "timestamp": 1728674384,
  "chain": 43113,
  "commit": "90333d4"
}