{
  "transactions": [
    {
      "hash": "0x00051ee001ab8f9689c8d02ca9ae2e4a0ccac680ec9918ec98f4a08c2e1f719d",
      "transactionType": "CALL",
      "contractName": null,
      "contractAddress": "0x0b9d5d9136855f6fec3c0993fee6e9ce8a297846",
      "function": "transfer(address,uint256)",
      "arguments": [
        "0x97A4b56a292C2Da415f145D5c47012Be7A4aF620",
        "12000000000000000000"
      ],
      "transaction": {
        "from": "0x7e8d7bfd6cc6b05d056f2e46860d95038f2e3234",
        "to": "0x0b9d5d9136855f6fec3c0993fee6e9ce8a297846",
        "gas": "0x1287c",
        "value": "0x0",
        "input": "0xa9059cbb00000000000000000000000097a4b56a292c2da415f145d5c47012be7a4af620000000000000000000000000000000000000000000000000a688906bd8b00000",
        "nonce": "0x1fd",
        "chainId": "0xa869"
      },
      "additionalContracts": [],
      "isFixedGasLimit": false
    },
    {
      "hash": "0xbb3cc354e0ec4f1e3fbe473bb915c6ecd1331e28966a05c71092b6fb2a19394c",
      "transactionType": "CALL",
      "contractName": null,
      "contractAddress": "0xd21341536c5cf5eb1bcb58f6723ce26e8d8e90e4",
      "function": "transfer(address,uint256)",
      "arguments": [
        "0x97A4b56a292C2Da415f145D5c47012Be7A4aF620",
        "100000000000000000"
      ],
      "transaction": {
        "from": "0x7e8d7bfd6cc6b05d056f2e46860d95038f2e3234",
        "to": "0xd21341536c5cf5eb1bcb58f6723ce26e8d8e90e4",
        "gas": "0x1261d",
        "value": "0x0",
        "input": "0xa9059cbb00000000000000000000000097a4b56a292c2da415f145d5c47012be7a4af620000000000000000000000000000000000000000000000000016345785d8a0000",
        "nonce": "0x1fe",
        "chainId": "0xa869"
      },
      "additionalContracts": [],
      "isFixedGasLimit": false
    },
    {
      "hash": "0x690d7de981fbe1a2f9cedfdfd2e553b762ba0d7860b3f74bd9ca2a39f2d6b815",
      "transactionType": "CALL",
      "contractName": null,
      "contractAddress": "0x97a4b56a292c2da415f145d5c47012be7a4af620",
      "function": "sendMessage(address,uint256,address)",
      "arguments": [
        "0x842f70cCbE2E79d7c9280507a22592D059afC6ea",
        "100000000000000000",
        "0x7E8d7BFd6cc6B05d056f2E46860D95038f2E3234"
      ],
      "transaction": {
        "from": "0x7e8d7bfd6cc6b05d056f2e46860d95038f2e3234",
        "to": "0x97a4b56a292c2da415f145d5c47012be7a4af620",
        "gas": "0x40ec2",
        "value": "0x0",
        "input": "0x6ad10792000000000000000000000000842f70ccbe2e79d7c9280507a22592d059afc6ea000000000000000000000000000000000000000000000000016345785d8a00000000000000000000000000007e8d7bfd6cc6b05d056f2e46860d95038f2e3234",
        "nonce": "0x1ff",
        "chainId": "0xa869"
      },
      "additionalContracts": [],
      "isFixedGasLimit": false
    }
  ],
  "receipts": [
    {
      "status": "0x1",
      "cumulativeGasUsed": "0xcaba",
      "logs": [
        {
          "address": "0x0b9d5d9136855f6fec3c0993fee6e9ce8a297846",
          "topics": [
            "0xddf252ad1be2c89b69c2b068fc378daa952ba7f163c4a11628f55a4df523b3ef",
            "0x0000000000000000000000007e8d7bfd6cc6b05d056f2e46860d95038f2e3234",
            "0x00000000000000000000000097a4b56a292c2da415f145d5c47012be7a4af620"
          ],
          "data": "0x000000000000000000000000000000000000000000000000a688906bd8b00000",
          "blockHash": "0x787a69d76ecf943076c533461e6ea8ee5e55fcf47ccbe6f8333adb93c3dc09f4",
          "blockNumber": "0x22938aa",
          "transactionHash": "0x00051ee001ab8f9689c8d02ca9ae2e4a0ccac680ec9918ec98f4a08c2e1f719d",
          "transactionIndex": "0x0",
          "logIndex": "0x0",
          "removed": false
        }
      ],
      "logsBloom": "0x01000000000000000000000000000000000000000000000000000000000001000000000000000000000000000000000000000000000000000000000000000000000000004000000000000008000000000000000000801000000000000000000000000000000000000000000000000000000000000000000000000010000000000000000000000000000000000000000000000000000000000000000000000000000000000000000200000000000000000000000000000000000000000001000000000002000000000000000000000000000000000000000800000000000000000000000000000000000000000000000000000000000000000000000000000100",
      "type": "0x2",
      "transactionHash": "0x00051ee001ab8f9689c8d02ca9ae2e4a0ccac680ec9918ec98f4a08c2e1f719d",
      "transactionIndex": "0x0",
      "blockHash": "0x787a69d76ecf943076c533461e6ea8ee5e55fcf47ccbe6f8333adb93c3dc09f4",
      "blockNumber": "0x22938aa",
      "gasUsed": "0xcaba",
      "effectiveGasPrice": "0x662a84a40",
      "from": "0x7e8d7bfd6cc6b05d056f2e46860d95038f2e3234",
      "to": "0x0b9d5d9136855f6fec3c0993fee6e9ce8a297846",
      "contractAddress": null
    },
    {
      "status": "0x1",
      "cumulativeGasUsed": "0xc91b",
      "logs": [
        {
          "address": "0xd21341536c5cf5eb1bcb58f6723ce26e8d8e90e4",
          "topics": [
            "0xddf252ad1be2c89b69c2b068fc378daa952ba7f163c4a11628f55a4df523b3ef",
            "0x0000000000000000000000007e8d7bfd6cc6b05d056f2e46860d95038f2e3234",
            "0x00000000000000000000000097a4b56a292c2da415f145d5c47012be7a4af620"
          ],
          "data": "0x000000000000000000000000000000000000000000000000016345785d8a0000",
          "blockHash": "0x2b95006694e18ffb19f3f8ffdad31770ae294dd503e0231e85a454e3c35046c3",
          "blockNumber": "0x22938ab",
          "transactionHash": "0xbb3cc354e0ec4f1e3fbe473bb915c6ecd1331e28966a05c71092b6fb2a19394c",
          "transactionIndex": "0x0",
          "logIndex": "0x0",
          "removed": false
        }
      ],
      "logsBloom": "0x00000000000000000000000000000000000000000000000000000000000001000000000000000000000000000000000000000000000000000000000000000000000000004000000000000008000000000000000000801000000000000000000000000000000000000000000000000000000000000000000000000010000000000000000000000000000000000000000000000000000000000000000000000000000000000000000000000000000000000000000000000000000000000001000000000002000000000000000000000000000001000000000000000000000000000000000000000000000000000000000000000000000000400000000000400100",
      "type": "0x2",
      "transactionHash": "0xbb3cc354e0ec4f1e3fbe473bb915c6ecd1331e28966a05c71092b6fb2a19394c",
      "transactionIndex": "0x0",
      "blockHash": "0x2b95006694e18ffb19f3f8ffdad31770ae294dd503e0231e85a454e3c35046c3",
      "blockNumber": "0x22938ab",
      "gasUsed": "0xc91b",
      "effectiveGasPrice": "0x662a84a40",
      "from": "0x7e8d7bfd6cc6b05d056f2e46860d95038f2e3234",
      "to": "0xd21341536c5cf5eb1bcb58f6723ce26e8d8e90e4",
      "contractAddress": null
    },
    {
      "status": "0x1",
      "cumulativeGasUsed": "0x406e3",
      "logs": [
        {
          "address": "0x0b9d5d9136855f6fec3c0993fee6e9ce8a297846",
          "topics": [
            "0x8c5be1e5ebec7d5bd14f71427d1e84f3dd0314c0f7b2291e5b200ac8c7c3b925",
            "0x00000000000000000000000097a4b56a292c2da415f145d5c47012be7a4af620",
            "0x000000000000000000000000f694e193200268f9a4868e4aa017a0118c9a8177"
          ],
          "data": "0x0000000000000000000000000000000000000000000000008750d34bd9a95504",
          "blockHash": "0x2b95006694e18ffb19f3f8ffdad31770ae294dd503e0231e85a454e3c35046c3",
          "blockNumber": "0x22938ab",
          "transactionHash": "0x690d7de981fbe1a2f9cedfdfd2e553b762ba0d7860b3f74bd9ca2a39f2d6b815",
          "transactionIndex": "0x1",
          "logIndex": "0x1",
          "removed": false
        },
        {
          "address": "0xd21341536c5cf5eb1bcb58f6723ce26e8d8e90e4",
          "topics": [
            "0x8c5be1e5ebec7d5bd14f71427d1e84f3dd0314c0f7b2291e5b200ac8c7c3b925",
            "0x00000000000000000000000097a4b56a292c2da415f145d5c47012be7a4af620",
            "0x000000000000000000000000f694e193200268f9a4868e4aa017a0118c9a8177"
          ],
          "data": "0x000000000000000000000000000000000000000000000000016345785d8a0000",
          "blockHash": "0x2b95006694e18ffb19f3f8ffdad31770ae294dd503e0231e85a454e3c35046c3",
          "blockNumber": "0x22938ab",
          "transactionHash": "0x690d7de981fbe1a2f9cedfdfd2e553b762ba0d7860b3f74bd9ca2a39f2d6b815",
          "transactionIndex": "0x1",
          "logIndex": "0x2",
          "removed": false
        },
        {
          "address": "0x0b9d5d9136855f6fec3c0993fee6e9ce8a297846",
          "topics": [
            "0xddf252ad1be2c89b69c2b068fc378daa952ba7f163c4a11628f55a4df523b3ef",
            "0x00000000000000000000000097a4b56a292c2da415f145d5c47012be7a4af620",
            "0x00000000000000000000000075b9a75ee1ffef6be7c4f842a041de7c6153cf4e"
          ],
          "data": "0x0000000000000000000000000000000000000000000000008750d34bd9a95504",
          "blockHash": "0x2b95006694e18ffb19f3f8ffdad31770ae294dd503e0231e85a454e3c35046c3",
          "blockNumber": "0x22938ab",
          "transactionHash": "0x690d7de981fbe1a2f9cedfdfd2e553b762ba0d7860b3f74bd9ca2a39f2d6b815",
          "transactionIndex": "0x1",
          "logIndex": "0x3",
          "removed": false
        },
        {
          "address": "0x75b9a75ee1ffef6be7c4f842a041de7c6153cf4e",
          "topics": [
            "0xd0c3c799bf9e2639de44391e7f524d229b2b55f5b1ea94b2bf7da42f7243dddd"
          ],
          "data": "0x0000000000000000000000000000000000000000000000000000000000000020000000000000000000000000000000000000000000000000ccf0a31a221f3c9b00000000000000000000000097a4b56a292c2da415f145d5c47012be7a4af620000000000000000000000000842f70ccbe2e79d7c9280507a22592d059afc6ea000000000000000000000000000000000000000000000000000000000000005300000000000000000000000000000000000000000000000000000000000c3500000000000000000000000000000000000000000000000000000000000000000000000000000000000000000000000000000000000000000000000000000000010000000000000000000000000b9d5d9136855f6fec3c0993fee6e9ce8a2978460000000000000000000000000000000000000000000000008750d34bd9a9550400000000000000000000000000000000000000000000000000000000000001a000000000000000000000000000000000000000000000000000000000000002400000000000000000000000000000000000000000000000000000000000000260c8a05363d8fda8fa3451115795b7a90d991ef3d271bb95206f52a7fa9eca2a830000000000000000000000000000000000000000000000000000000000000064bbaa3c820000000000000000000000007e8d7bfd6cc6b05d056f2e46860d95038f2e3234000000000000000000000000000000000000000000000000016345785d8a000000000000000000000000000097a4b56a292c2da415f145d5c47012be7a4af6200000000000000000000000000000000000000000000000000000000000000000000000000000000000000000000000000000000000000000000000000000000000000000000000000000000000000000000000000000000000000000",
          "blockHash": "0x2b95006694e18ffb19f3f8ffdad31770ae294dd503e0231e85a454e3c35046c3",
          "blockNumber": "0x22938ab",
          "transactionHash": "0x690d7de981fbe1a2f9cedfdfd2e553b762ba0d7860b3f74bd9ca2a39f2d6b815",
          "transactionIndex": "0x1",
          "logIndex": "0x4",
          "removed": false
        }
      ],
      "logsBloom": "0x01000000000000000001000000000000000000000000000000000000000001000000000000000000000000000000000000000000000000000000000000200000000000000000000000000008000000000000000000000000000000000000000000000000000000000000000000000000000000000008000000000010000000000008000000000000000000000000000000000000000000000000000000000000020000000000000600000000000000000080000000000800000100100001000000000002000000000000000000000000000001000040000800000000000000000010000000000000000000000000000004000200000000400000000100400100",
      "type": "0x2",
      "transactionHash": "0x690d7de981fbe1a2f9cedfdfd2e553b762ba0d7860b3f74bd9ca2a39f2d6b815",
      "transactionIndex": "0x1",
      "blockHash": "0x2b95006694e18ffb19f3f8ffdad31770ae294dd503e0231e85a454e3c35046c3",
      "blockNumber": "0x22938ab",
      "gasUsed": "0x33dc8",
      "effectiveGasPrice": "0x662a84a40",
      "from": "0x7e8d7bfd6cc6b05d056f2e46860d95038f2e3234",
      "to": "0x97a4b56a292c2da415f145d5c47012be7a4af620",
      "contractAddress": null
    }
  ],
  "libraries": [],
  "pending": [],
  "returns": {},
  "timestamp": 1728666665,
  "chain": 43113,
  "commit": "90333d4"
}