{
  "transactions": [
    {
      "hash": "0xf230d3d1200c7b726a26b188838267ca94c7439bee1073e33bb66564fc90eda1",
      "transactionType": "CALL",
      "contractName": null,
      "contractAddress": "0x339cf0551e9763db3adf22aedbdb8616e78f79e1",
      "function": "setAllowedChain(uint64,bool)",
      "arguments": [
        "14767482510784806043",
        "true"
      ],
      "transaction": {
        "from": "0x7e8d7bfd6cc6b05d056f2e46860d95038f2e3234",
        "to": "0x339cf0551e9763db3adf22aedbdb8616e78f79e1",
        "gas": "0xf976",
        "value": "0x0",
        "input": "0x944eadff000000000000000000000000000000000000000000000000ccf0a31a221f3c9b0000000000000000000000000000000000000000000000000000000000000001",
        "nonce": "0x24d",
        "chainId": "0xaa36a7"
      },
      "additionalContracts": [],
      "isFixedGasLimit": false
    },
    {
      "hash": "0x7671be6a1705700b4bbc02a32ddc3d9b77fe9d00ff5f3c6d4afeaa824e49dc4e",
      "transactionType": "CALL",
      "contractName": null,
      "contractAddress": "0x339cf0551e9763db3adf22aedbdb8616e78f79e1",
      "function": "setAllowedContract(address,bool)",
      "arguments": [
        "0x75b9E829e41AB16A49C7D6B93086dBa4a080c4B4",
        "true"
      ],
      "transaction": {
        "from": "0x7e8d7bfd6cc6b05d056f2e46860d95038f2e3234",
        "to": "0x339cf0551e9763db3adf22aedbdb8616e78f79e1",
        "gas": "0xfa7a",
        "value": "0x0",
        "input": "0x55de1faf00000000000000000000000075b9e829e41ab16a49c7d6b93086dba4a080c4b40000000000000000000000000000000000000000000000000000000000000001",
        "nonce": "0x24e",
        "chainId": "0xaa36a7"
      },
      "additionalContracts": [],
      "isFixedGasLimit": false
    }
  ],
  "receipts": [
    {
      "status": "0x1",
      "cumulativeGasUsed": "0xfcd342",
      "logs": [],
      "logsBloom": "0x00000000000000000000000000000000000000000000000000000000000000000000000000000000000000000000000000000000000000000000000000000000000000000000000000000000000000000000000000000000000000000000000000000000000000000000000000000000000000000000000000000000000000000000000000000000000000000000000000000000000000000000000000000000000000000000000000000000000000000000000000000000000000000000000000000000000000000000000000000000000000000000000000000000000000000000000000000000000000000000000000000000000000000000000000000000",
      "type": "0x2",
      "transactionHash": "0xf230d3d1200c7b726a26b188838267ca94c7439bee1073e33bb66564fc90eda1",
      "transactionIndex": "0x63",
      "blockHash": "0xd6ff740ee412c8fde5a01f0fe6365efabfb2d78057e5b20a907d4bb8805aa134",
      "blockNumber": "0x68a4f5",
      "gasUsed": "0xb49c",
      "effectiveGasPrice": "0x85eb4b65",
      "from": "0x7e8d7bfd6cc6b05d056f2e46860d95038f2e3234",
      "to": "0x339cf0551e9763db3adf22aedbdb8616e78f79e1",
      "contractAddress": null
    },
    {
      "status": "0x1",
      "cumulativeGasUsed": "0xfd889a",
      "logs": [],
      "logsBloom": "0x00000000000000000000000000000000000000000000000000000000000000000000000000000000000000000000000000000000000000000000000000000000000000000000000000000000000000000000000000000000000000000000000000000000000000000000000000000000000000000000000000000000000000000000000000000000000000000000000000000000000000000000000000000000000000000000000000000000000000000000000000000000000000000000000000000000000000000000000000000000000000000000000000000000000000000000000000000000000000000000000000000000000000000000000000000000",
      "type": "0x2",
      "transactionHash": "0x7671be6a1705700b4bbc02a32ddc3d9b77fe9d00ff5f3c6d4afeaa824e49dc4e",
      "transactionIndex": "0x64",
      "blockHash": "0xd6ff740ee412c8fde5a01f0fe6365efabfb2d78057e5b20a907d4bb8805aa134",
      "blockNumber": "0x68a4f5",
      "gasUsed": "0xb558",
      "effectiveGasPrice": "0x85eb4b65",
      "from": "0x7e8d7bfd6cc6b05d056f2e46860d95038f2e3234",
      "to": "0x339cf0551e9763db3adf22aedbdb8616e78f79e1",
      "contractAddress": null
    }
  ],
  "libraries": [],
  "pending": [],
  "returns": {},
  "timestamp": 1728674335,
  "chain": 11155111,
  "commit": "90333d4"
}