{
  "transactions": [
    {
      "hash": "0xf0d231a3de31bb8a37349998dcfc5600a990805bf90c0f12092aca48322fe527",
      "transactionType": "CALL",
      "contractName": null,
      "contractAddress": "0x75042cedff7bf041c374a6e83c1d112fc327c0e4",
      "function": "setAllowedChain(uint64,bool)",
      "arguments": [
        "14767482510784806043",
        "true"
      ],
      "transaction": {
        "from": "0x7e8d7bfd6cc6b05d056f2e46860d95038f2e3234",
        "to": "0x75042cedff7bf041c374a6e83c1d112fc327c0e4",
        "gas": "0x10844",
        "value": "0x0",
        "input": "0x944eadff000000000000000000000000000000000000000000000000ccf0a31a221f3c9b0000000000000000000000000000000000000000000000000000000000000001",
        "nonce": "0x257",
        "chainId": "0xaa36a7"
      },
      "additionalContracts": [],
      "isFixedGasLimit": false
    },
    {
      "hash": "0x18209ac68ba7c333b04a396e489bee7b3d2d778b3fad0afec4f724830044ca41",
      "transactionType": "CALL",
      "contractName": null,
      "contractAddress": "0x75042cedff7bf041c374a6e83c1d112fc327c0e4",
      "function": "setAllowedContract(address,bool)",
      "arguments": [
        "0x551d4756b06857306f9A96A215Dc84273a046CBB",
        "true"
      ],
      "transaction": {
        "from": "0x7e8d7bfd6cc6b05d056f2e46860d95038f2e3234",
        "to": "0x75042cedff7bf041c374a6e83c1d112fc327c0e4",
        "gas": "0xfa98",
        "value": "0x0",
        "input": "0x55de1faf000000000000000000000000551d4756b06857306f9a96a215dc84273a046cbb0000000000000000000000000000000000000000000000000000000000000001",
        "nonce": "0x258",
        "chainId": "0xaa36a7"
      },
      "additionalContracts": [],
      "isFixedGasLimit": false
    }
  ],
  "receipts": [
    {
      "status": "0x1",
      "cumulativeGasUsed": "0x870120",
      "logs": [],
      "logsBloom": "0x00000000000000000000000000000000000000000000000000000000000000000000000000000000000000000000000000000000000000000000000000000000000000000000000000000000000000000000000000000000000000000000000000000000000000000000000000000000000000000000000000000000000000000000000000000000000000000000000000000000000000000000000000000000000000000000000000000000000000000000000000000000000000000000000000000000000000000000000000000000000000000000000000000000000000000000000000000000000000000000000000000000000000000000000000000000",
      "type": "0x2",
      "transactionHash": "0xf0d231a3de31bb8a37349998dcfc5600a990805bf90c0f12092aca48322fe527",
      "transactionIndex": "0x34",
      "blockHash": "0xe1b40d50b30a30a4a26ee574121d02120e614347c1f69768abc64dedc77968cf",
      "blockNumber": "0x68a607",
      "gasUsed": "0xb4b2",
      "effectiveGasPrice": "0x68f32f7d",
      "from": "0x7e8d7bfd6cc6b05d056f2e46860d95038f2e3234",
      "to": "0x75042cedff7bf041c374a6e83c1d112fc327c0e4",
      "contractAddress": null
    },
    {
      "status": "0x1",
      "cumulativeGasUsed": "0x87b68e",
      "logs": [],
      "logsBloom": "0x00000000000000000000000000000000000000000000000000000000000000000000000000000000000000000000000000000000000000000000000000000000000000000000000000000000000000000000000000000000000000000000000000000000000000000000000000000000000000000000000000000000000000000000000000000000000000000000000000000000000000000000000000000000000000000000000000000000000000000000000000000000000000000000000000000000000000000000000000000000000000000000000000000000000000000000000000000000000000000000000000000000000000000000000000000000",
      "type": "0x2",
      "transactionHash": "0x18209ac68ba7c333b04a396e489bee7b3d2d778b3fad0afec4f724830044ca41",
      "transactionIndex": "0x35",
      "blockHash": "0xe1b40d50b30a30a4a26ee574121d02120e614347c1f69768abc64dedc77968cf",
      "blockNumber": "0x68a607",
      "gasUsed": "0xb56e",
      "effectiveGasPrice": "0x68f32f7d",
      "from": "0x7e8d7bfd6cc6b05d056f2e46860d95038f2e3234",
      "to": "0x75042cedff7bf041c374a6e83c1d112fc327c0e4",
      "contractAddress": null
    }
  ],
  "libraries": [],
  "pending": [],
  "returns": {},
  "timestamp": 1728678086,
  "chain": 11155111,
  "commit": "90333d4"
}