{
  "transactions": [
    {
      "hash": "0xf859f1a1c2e9f23df7b2956af2f3a82d80777c50d79b488de9ed5237650b22de",
      "transactionType": "CALL",
      "contractName": null,
      "contractAddress": "0x270831c0550ac9c5619e26238ac9bfa02e2392eb",
      "function": "setAllowedChain(uint64,bool)",
      "arguments": [
        "14767482510784806043",
        "true"
      ],
      "transaction": {
        "from": "0x7e8d7bfd6cc6b05d056f2e46860d95038f2e3234",
        "to": "0x270831c0550ac9c5619e26238ac9bfa02e2392eb",
        "gas": "0xf976",
        "value": "0x0",
        "input": "0x944eadff000000000000000000000000000000000000000000000000ccf0a31a221f3c9b0000000000000000000000000000000000000000000000000000000000000001",
        "nonce": "0x246",
        "chainId": "0xaa36a7"
      },
      "additionalContracts": [],
      "isFixedGasLimit": false
    },
    {
      "hash": "0xc8eee6e2e287ef5a46be664e0d6d07cb19a7a91fc8cb9c1e215acdab3b51ab42",
      "transactionType": "CALL",
      "contractName": null,
      "contractAddress": "0x270831c0550ac9c5619e26238ac9bfa02e2392eb",
      "function": "setAllowedContract(address,bool)",
      "arguments": [
        "0xA8758E05861547d9598Ec023ad013333dc636DcD",
        "true"
      ],
      "transaction": {
        "from": "0x7e8d7bfd6cc6b05d056f2e46860d95038f2e3234",
        "to": "0x270831c0550ac9c5619e26238ac9bfa02e2392eb",
        "gas": "0xfa7a",
        "value": "0x0",
        "input": "0x55de1faf000000000000000000000000a8758e05861547d9598ec023ad013333dc636dcd0000000000000000000000000000000000000000000000000000000000000001",
        "nonce": "0x247",
        "chainId": "0xaa36a7"
      },
      "additionalContracts": [],
      "isFixedGasLimit": false
    }
  ],
  "receipts": [
    {
      "status": "0x1",
      "cumulativeGasUsed": "0xf67a67",
      "logs": [],
      "logsBloom": "0x00000000000000000000000000000000000000000000000000000000000000000000000000000000000000000000000000000000000000000000000000000000000000000000000000000000000000000000000000000000000000000000000000000000000000000000000000000000000000000000000000000000000000000000000000000000000000000000000000000000000000000000000000000000000000000000000000000000000000000000000000000000000000000000000000000000000000000000000000000000000000000000000000000000000000000000000000000000000000000000000000000000000000000000000000000000",
      "type": "0x2",
      "transactionHash": "0xf859f1a1c2e9f23df7b2956af2f3a82d80777c50d79b488de9ed5237650b22de",
      "transactionIndex": "0x69",
      "blockHash": "0x380287d853960765c47f00306b2ebd3b52ac43420d0e308b6b2da6b63a652c21",
      "blockNumber": "0x68a44e",
      "gasUsed": "0xb49c",
      "effectiveGasPrice": "0x11ae9302a",
      "from": "0x7e8d7bfd6cc6b05d056f2e46860d95038f2e3234",
      "to": "0x270831c0550ac9c5619e26238ac9bfa02e2392eb",
      "contractAddress": null
    },
    {
      "status": "0x1",
      "cumulativeGasUsed": "0xf72fbf",
      "logs": [],
      "logsBloom": "0x00000000000000000000000000000000000000000000000000000000000000000000000000000000000000000000000000000000000000000000000000000000000000000000000000000000000000000000000000000000000000000000000000000000000000000000000000000000000000000000000000000000000000000000000000000000000000000000000000000000000000000000000000000000000000000000000000000000000000000000000000000000000000000000000000000000000000000000000000000000000000000000000000000000000000000000000000000000000000000000000000000000000000000000000000000000",
      "type": "0x2",
      "transactionHash": "0xc8eee6e2e287ef5a46be664e0d6d07cb19a7a91fc8cb9c1e215acdab3b51ab42",
      "transactionIndex": "0x6a",
      "blockHash": "0x380287d853960765c47f00306b2ebd3b52ac43420d0e308b6b2da6b63a652c21",
      "blockNumber": "0x68a44e",
      "gasUsed": "0xb558",
      "effectiveGasPrice": "0x11ae9302a",
      "from": "0x7e8d7bfd6cc6b05d056f2e46860d95038f2e3234",
      "to": "0x270831c0550ac9c5619e26238ac9bfa02e2392eb",
      "contractAddress": null
    }
  ],
  "libraries": [],
  "pending": [],
  "returns": {},
  "timestamp": 1728672000,
  "chain": 11155111,
  "commit": "90333d4"
}