{
  "transactions": [
    {
      "hash": "0x7618c7586f38f83ccde0180c4828e3e2ca58e330e47d495fa1c04cedfed58203",
      "transactionType": "CALL",
      "contractName": null,
      "contractAddress": "0xc0c6ad956df411251431ea139faea3a634d99c26",
      "function": "setAllowedChain(uint64,bool)",
      "arguments": [
        "14767482510784806043",
        "true"
      ],
      "transaction": {
        "from": "0x7e8d7bfd6cc6b05d056f2e46860d95038f2e3234",
        "to": "0xc0c6ad956df411251431ea139faea3a634d99c26",
        "gas": "0x10844",
        "value": "0x0",
        "input": "0x944eadff000000000000000000000000000000000000000000000000ccf0a31a221f3c9b0000000000000000000000000000000000000000000000000000000000000001",
        "nonce": "0x25b",
        "chainId": "0xaa36a7"
      },
      "additionalContracts": [],
      "isFixedGasLimit": false
    },
    {
      "hash": "0x0c3a531c7b8cbeb995fdfcffad561f886627d147c00c1bfd4545d41a3077de28",
      "transactionType": "CALL",
      "contractName": null,
      "contractAddress": "0xc0c6ad956df411251431ea139faea3a634d99c26",
      "function": "setAllowedContract(address,bool)",
      "arguments": [
        "0x75F53657dfE91c4d1C2729880CA279F890488De0",
        "true"
      ],
      "transaction": {
        "from": "0x7e8d7bfd6cc6b05d056f2e46860d95038f2e3234",
        "to": "0xc0c6ad956df411251431ea139faea3a634d99c26",
        "gas": "0xfa98",
        "value": "0x0",
        "input": "0x55de1faf00000000000000000000000075f53657dfe91c4d1c2729880ca279f890488de00000000000000000000000000000000000000000000000000000000000000001",
        "nonce": "0x25c",
        "chainId": "0xaa36a7"
      },
      "additionalContracts": [],
      "isFixedGasLimit": false
    }
  ],
  "receipts": [
    {
      "status": "0x1",
      "cumulativeGasUsed": "0x3e3b30",
      "logs": [],
      "logsBloom": "0x00000000000000000000000000000000000000000000000000000000000000000000000000000000000000000000000000000000000000000000000000000000000000000000000000000000000000000000000000000000000000000000000000000000000000000000000000000000000000000000000000000000000000000000000000000000000000000000000000000000000000000000000000000000000000000000000000000000000000000000000000000000000000000000000000000000000000000000000000000000000000000000000000000000000000000000000000000000000000000000000000000000000000000000000000000000",
      "type": "0x2",
      "transactionHash": "0x7618c7586f38f83ccde0180c4828e3e2ca58e330e47d495fa1c04cedfed58203",
      "transactionIndex": "0x24",
      "blockHash": "0x5eb31062aebe7ab306267a0e82dc9be2295825b832e308ec78fa228197d74c7e",
      "blockNumber": "0x68a64a",
      "gasUsed": "0xb4b2",
      "effectiveGasPrice": "0x7c4a99a9",
      "from": "0x7e8d7bfd6cc6b05d056f2e46860d95038f2e3234",
      "to": "0xc0c6ad956df411251431ea139faea3a634d99c26",
      "contractAddress": null
    },
    {
      "status": "0x1",
      "cumulativeGasUsed": "0x3ef09e",
      "logs": [],
      "logsBloom": "0x00000000000000000000000000000000000000000000000000000000000000000000000000000000000000000000000000000000000000000000000000000000000000000000000000000000000000000000000000000000000000000000000000000000000000000000000000000000000000000000000000000000000000000000000000000000000000000000000000000000000000000000000000000000000000000000000000000000000000000000000000000000000000000000000000000000000000000000000000000000000000000000000000000000000000000000000000000000000000000000000000000000000000000000000000000000",
      "type": "0x2",
      "transactionHash": "0x0c3a531c7b8cbeb995fdfcffad561f886627d147c00c1bfd4545d41a3077de28",
      "transactionIndex": "0x25",
      "blockHash": "0x5eb31062aebe7ab306267a0e82dc9be2295825b832e308ec78fa228197d74c7e",
      "blockNumber": "0x68a64a",
      "gasUsed": "0xb56e",
      "effectiveGasPrice": "0x7c4a99a9",
      "from": "0x7e8d7bfd6cc6b05d056f2e46860d95038f2e3234",
      "to": "0xc0c6ad956df411251431ea139faea3a634d99c26",
      "contractAddress": null
    }
  ],
  "libraries": [],
  "pending": [],
  "returns": {},
  "timestamp": 1728678973,
  "chain": 11155111,
  "commit": "90333d4"
}