{
  "transactions": [
    {
      "hash": "0xc31ddaaa933a0d707f7a32c69689434a2697e70aa364ca4ebc63231bd16409d1",
      "transactionType": "CALL",
      "contractName": null,
      "contractAddress": "0x1318c3f12ce0475989e5634b483136557785c10d",
      "function": "setAllowedChain(uint64,bool)",
      "arguments": [
        "14767482510784806043",
        "true"
      ],
      "transaction": {
        "from": "0x7e8d7bfd6cc6b05d056f2e46860d95038f2e3234",
        "to": "0x1318c3f12ce0475989e5634b483136557785c10d",
        "gas": "0xf976",
        "value": "0x0",
        "input": "0x944eadff000000000000000000000000000000000000000000000000ccf0a31a221f3c9b0000000000000000000000000000000000000000000000000000000000000001",
        "nonce": "0x249",
        "chainId": "0xaa36a7"
      },
      "additionalContracts": [],
      "isFixedGasLimit": false
    },
    {
      "hash": "0xcfb64bc1aa2136bc25dd34f900af9a4975f64cc9bc86260550fa97468f9abc61",
      "transactionType": "CALL",
      "contractName": null,
      "contractAddress": "0x1318c3f12ce0475989e5634b483136557785c10d",
      "function": "setAllowedContract(address,bool)",
      "arguments": [
        "0x5Ad4629f06c2f3ad386C90bb26714603dB22F883",
        "true"
      ],
      "transaction": {
        "from": "0x7e8d7bfd6cc6b05d056f2e46860d95038f2e3234",
        "to": "0x1318c3f12ce0475989e5634b483136557785c10d",
        "gas": "0xfa7a",
        "value": "0x0",
        "input": "0x55de1faf0000000000000000000000005ad4629f06c2f3ad386c90bb26714603db22f8830000000000000000000000000000000000000000000000000000000000000001",
        "nonce": "0x24a",
        "chainId": "0xaa36a7"
      },
      "additionalContracts": [],
      "isFixedGasLimit": false
    }
  ],
  "receipts": [
    {
      "status": "0x1",
      "cumulativeGasUsed": "0x6c0f46",
      "logs": [],
      "logsBloom": "0x00000000000000000000000000000000000000000000000000000000000000000000000000000000000000000000000000000000000000000000000000000000000000000000000000000000000000000000000000000000000000000000000000000000000000000000000000000000000000000000000000000000000000000000000000000000000000000000000000000000000000000000000000000000000000000000000000000000000000000000000000000000000000000000000000000000000000000000000000000000000000000000000000000000000000000000000000000000000000000000000000000000000000000000000000000000",
      "type": "0x2",
      "transactionHash": "0xc31ddaaa933a0d707f7a32c69689434a2697e70aa364ca4ebc63231bd16409d1",
      "transactionIndex": "0x1e",
      "blockHash": "0x66ae17b973404a833495adf41808689eb4eeae553c4ffe4048bcf1cf939b1cdc",
      "blockNumber": "0x68a494",
      "gasUsed": "0xb49c",
      "effectiveGasPrice": "0x125fe7345",
      "from": "0x7e8d7bfd6cc6b05d056f2e46860d95038f2e3234",
      "to": "0x1318c3f12ce0475989e5634b483136557785c10d",
      "contractAddress": null
    },
    {
      "status": "0x1",
      "cumulativeGasUsed": "0x6cc49e",
      "logs": [],
      "logsBloom": "0x00000000000000000000000000000000000000000000000000000000000000000000000000000000000000000000000000000000000000000000000000000000000000000000000000000000000000000000000000000000000000000000000000000000000000000000000000000000000000000000000000000000000000000000000000000000000000000000000000000000000000000000000000000000000000000000000000000000000000000000000000000000000000000000000000000000000000000000000000000000000000000000000000000000000000000000000000000000000000000000000000000000000000000000000000000000",
      "type": "0x2",
      "transactionHash": "0xcfb64bc1aa2136bc25dd34f900af9a4975f64cc9bc86260550fa97468f9abc61",
      "transactionIndex": "0x1f",
      "blockHash": "0x66ae17b973404a833495adf41808689eb4eeae553c4ffe4048bcf1cf939b1cdc",
      "blockNumber": "0x68a494",
      "gasUsed": "0xb558",
      "effectiveGasPrice": "0x125fe7345",
      "from": "0x7e8d7bfd6cc6b05d056f2e46860d95038f2e3234",
      "to": "0x1318c3f12ce0475989e5634b483136557785c10d",
      "contractAddress": null
    }
  ],
  "libraries": [],
  "pending": [],
  "returns": {},
  "timestamp": 1728672963,
  "chain": 11155111,
  "commit": "90333d4"
}