{
  "transactions": [
    {
      "hash": "0xcb58e7882dcc73a48df5edf7830104dbc037194ecc1457de51f311e46e3a158c",
      "transactionType": "CALL",
      "contractName": null,
      "contractAddress": "0x95648198b83396efe416402cabbf109cb6d82858",
      "function": "setAllowedChain(uint64,bool)",
      "arguments": [
        "14767482510784806043",
        "true"
      ],
      "transaction": {
        "from": "0x7e8d7bfd6cc6b05d056f2e46860d95038f2e3234",
        "to": "0x95648198b83396efe416402cabbf109cb6d82858",
        "gas": "0x10844",
        "value": "0x0",
        "input": "0x944eadff000000000000000000000000000000000000000000000000ccf0a31a221f3c9b0000000000000000000000000000000000000000000000000000000000000001",
        "nonce": "0x250",
        "chainId": "0xaa36a7"
      },
      "additionalContracts": [],
      "isFixedGasLimit": false
    },
    {
      "hash": "0x7faee4029b9a140a18812930b6c63b4b2dcff435c8d27e4d55d4c7b807768803",
      "transactionType": "CALL",
      "contractName": null,
      "contractAddress": "0x95648198b83396efe416402cabbf109cb6d82858",
      "function": "setAllowedContract(address,bool)",
      "arguments": [
        "0x1CB59718b1a7DAE044865339F699aF23a99FDc0c",
        "true"
      ],
      "transaction": {
        "from": "0x7e8d7bfd6cc6b05d056f2e46860d95038f2e3234",
        "to": "0x95648198b83396efe416402cabbf109cb6d82858",
        "gas": "0xfa98",
        "value": "0x0",
        "input": "0x55de1faf0000000000000000000000001cb59718b1a7dae044865339f699af23a99fdc0c0000000000000000000000000000000000000000000000000000000000000001",
        "nonce": "0x251",
        "chainId": "0xaa36a7"
      },
      "additionalContracts": [],
      "isFixedGasLimit": false
    }
  ],
  "receipts": [
    {
      "status": "0x1",
      "cumulativeGasUsed": "0x1470457",
      "logs": [],
      "logsBloom": "0x00000000000000000000000000000000000000000000000000000000000000000000000000000000000000000000000000000000000000000000000000000000000000000000000000000000000000000000000000000000000000000000000000000000000000000000000000000000000000000000000000000000000000000000000000000000000000000000000000000000000000000000000000000000000000000000000000000000000000000000000000000000000000000000000000000000000000000000000000000000000000000000000000000000000000000000000000000000000000000000000000000000000000000000000000000000",
      "type": "0x2",
      "transactionHash": "0xcb58e7882dcc73a48df5edf7830104dbc037194ecc1457de51f311e46e3a158c",
      "transactionIndex": "0x7f",
      "blockHash": "0x35f5a1bae23fa4998790fe1a6a08c938477c12b62299f5df36c0616493d0d24e",
      "blockNumber": "0x68a56a",
      "gasUsed": "0xb4b2",
      "effectiveGasPrice": "0x3f254753",
      "from": "0x7e8d7bfd6cc6b05d056f2e46860d95038f2e3234",
      "to": "0x95648198b83396efe416402cabbf109cb6d82858",
      "contractAddress": null
    },
    {
      "status": "0x1",
      "cumulativeGasUsed": "0x147b9c5",
      "logs": [],
      "logsBloom": "0x00000000000000000000000000000000000000000000000000000000000000000000000000000000000000000000000000000000000000000000000000000000000000000000000000000000000000000000000000000000000000000000000000000000000000000000000000000000000000000000000000000000000000000000000000000000000000000000000000000000000000000000000000000000000000000000000000000000000000000000000000000000000000000000000000000000000000000000000000000000000000000000000000000000000000000000000000000000000000000000000000000000000000000000000000000000",
      "type": "0x2",
      "transactionHash": "0x7faee4029b9a140a18812930b6c63b4b2dcff435c8d27e4d55d4c7b807768803",
      "transactionIndex": "0x80",
      "blockHash": "0x35f5a1bae23fa4998790fe1a6a08c938477c12b62299f5df36c0616493d0d24e",
      "blockNumber": "0x68a56a",
      "gasUsed": "0xb56e",
      "effectiveGasPrice": "0x3f254753",
      "from": "0x7e8d7bfd6cc6b05d056f2e46860d95038f2e3234",
      "to": "0x95648198b83396efe416402cabbf109cb6d82858",
      "contractAddress": null
    }
  ],
  "libraries": [],
  "pending": [],
  "returns": {},
  "timestamp": 1728675926,
  "chain": 11155111,
  "commit": "90333d4"
}