{
  "transactions": [
    {
      "hash": "0xccb744bd070968b21cf0efef7cac485c0c1812639a49049819f585bc2a529372",
      "transactionType": "CALL",
      "contractName": null,
      "contractAddress": "0x75042cedff7bf041c374a6e83c1d112fc327c0e4",
      "function": "foo(address,uint256,address,uint64)",
      "arguments": [
        "0x7E8d7BFd6cc6B05d056f2E46860D95038f2E3234",
        "10000000000000000",
        "0x551d4756b06857306f9A96A215Dc84273a046CBB",
        "14767482510784806043"
      ],
      "transaction": {
        "from": "0x7e8d7bfd6cc6b05d056f2e46860d95038f2e3234",
        "to": "0x75042cedff7bf041c374a6e83c1d112fc327c0e4",
        "gas": "0xd177",
        "value": "0x0",
        "input": "0x0fd3c57d0000000000000000000000007e8d7bfd6cc6b05d056f2e46860d95038f2e3234000000000000000000000000000000000000000000000000002386f26fc10000000000000000000000000000551d4756b06857306f9a96a215dc84273a046cbb000000000000000000000000000000000000000000000000ccf0a31a221f3c9b",
        "nonce": "0x259",
        "chainId": "0xaa36a7"
      },
      "additionalContracts": [],
      "isFixedGasLimit": false
    }
  ],
  "receipts": [
    {
      "status": "0x1",
      "cumulativeGasUsed": "0x1097b05",
      "logs": [
        {
          "address": "0x75042cedff7bf041c374a6e83c1d112fc327c0e4",
          "topics": [
            "0xcfa5b4448965967006e8559533c181b6c5082955991562528196b5d79d54d26b"
          ],
          "data": "0x0000000000000000000000000000000000000000000000000000000000000000000000000000000000000000551d4756b06857306f9a96a215dc84273a046cbb000000000000000000000000000000000000000000000000002386f26fc10000000000000000000000000000000000000000000000000000ccf0a31a221f3c9b",
          "blockHash": "0x7a6c5eb64d638120be2b2d43376b4314a9bbc2737a44653e3206ff1ae60501f2",
          "blockNumber": "0x68a631",
          "transactionHash": "0xccb744bd070968b21cf0efef7cac485c0c1812639a49049819f585bc2a529372",
          "transactionIndex": "0x5c",
          "logIndex": "0x78",
          "removed": false
        }
      ],
      "logsBloom": "0x00000000000000000000000000000800000000000000000000000000000000000000000000000000000008000000000000000000000000000000000000000000000000000000000000000000000000000000000004000000000000000000000000000000000000000000000000000000000000000000000000000000000000000000000000010000000000000000000000000000000000000000000000000000000000000000000000000000000000000000000000000000000000000000000000000000000000000000000000000000000000000000000000000000000200100000000000000000000000000000000000000000000000000000000000000000",
      "type": "0x2",
      "transactionHash": "0xccb744bd070968b21cf0efef7cac485c0c1812639a49049819f585bc2a529372",
      "transactionIndex": "0x5c",
      "blockHash": "0x7a6c5eb64d638120be2b2d43376b4314a9bbc2737a44653e3206ff1ae60501f2",
      "blockNumber": "0x68a631",
      "gasUsed": "0x8f3a",
      "effectiveGasPrice": "0x5cf15866",
      "from": "0x7e8d7bfd6cc6b05d056f2e46860d95038f2e3234",
      "to": "0x75042cedff7bf041c374a6e83c1d112fc327c0e4",
      "contractAddress": null
    }
  ],
  "libraries": [],
  "pending": [],
  "returns": {},
  "timestamp": 1728678647,
  "chain": 11155111,
  "commit": "90333d4"
}