{
  "transactions": [
    {
      "hash": "0x799c5dd545465587080e058286db6dd30837c2f460aa81bdb070df6b4bd164cb",
      "transactionType": "CALL",
      "contractName": null,
      "contractAddress": "0x68a3c5cb4c69c5fa6bf2d384f49417bde23fde9f",
      "function": "setAllowedChain(uint64,bool)",
      "arguments": [
        "14767482510784806043",
        "true"
      ],
      "transaction": {
        "from": "0x7e8d7bfd6cc6b05d056f2e46860d95038f2e3234",
        "to": "0x68a3c5cb4c69c5fa6bf2d384f49417bde23fde9f",
        "gas": "0xf936",
        "value": "0x0",
        "input": "0x944eadff000000000000000000000000000000000000000000000000ccf0a31a221f3c9b0000000000000000000000000000000000000000000000000000000000000001",
        "nonce": "0x235",
        "chainId": "0xaa36a7"
      },
      "additionalContracts": [],
      "isFixedGasLimit": false
    },
    {
      "hash": "0x4c786c043162cf2ecefa75476ab69aa29cf66eb1ba5590476a9ac4d93e4698a3",
      "transactionType": "CALL",
      "contractName": null,
      "contractAddress": "0x68a3c5cb4c69c5fa6bf2d384f49417bde23fde9f",
      "function": "setAllowedContract(address,bool)",
      "arguments": [
        "0x80C9D2245595bc18f60b04dc5368A29fde23ccBd",
        "true"
      ],
      "transaction": {
        "from": "0x7e8d7bfd6cc6b05d056f2e46860d95038f2e3234",
        "to": "0x68a3c5cb4c69c5fa6bf2d384f49417bde23fde9f",
        "gas": "0x10917",
        "value": "0x0",
        "input": "0x55de1faf00000000000000000000000080c9d2245595bc18f60b04dc5368a29fde23ccbd0000000000000000000000000000000000000000000000000000000000000001",
        "nonce": "0x236",
        "chainId": "0xaa36a7"
      },
      "additionalContracts": [],
      "isFixedGasLimit": false
    }
  ],
  "receipts": [
    {
      "status": "0x1",
      "cumulativeGasUsed": "0x7ae451",
      "logs": [],
      "logsBloom": "0x00000000000000000000000000000000000000000000000000000000000000000000000000000000000000000000000000000000000000000000000000000000000000000000000000000000000000000000000000000000000000000000000000000000000000000000000000000000000000000000000000000000000000000000000000000000000000000000000000000000000000000000000000000000000000000000000000000000000000000000000000000000000000000000000000000000000000000000000000000000000000000000000000000000000000000000000000000000000000000000000000000000000000000000000000000000",
      "type": "0x2",
      "transactionHash": "0x799c5dd545465587080e058286db6dd30837c2f460aa81bdb070df6b4bd164cb",
      "transactionIndex": "0x23",
      "blockHash": "0x55a85bd1464011dc4c191d7445f8565f0d06a4be6e63f72640181a63a6c2ee7c",
      "blockNumber": "0x68980b",
      "gasUsed": "0xb46e",
      "effectiveGasPrice": "0x3262b4c27",
      "from": "0x7e8d7bfd6cc6b05d056f2e46860d95038f2e3234",
      "to": "0x68a3c5cb4c69c5fa6bf2d384f49417bde23fde9f",
      "contractAddress": null
    },
    {
      "status": "0x1",
      "cumulativeGasUsed": "0x7b9994",
      "logs": [],
      "logsBloom": "0x00000000000000000000000000000000000000000000000000000000000000000000000000000000000000000000000000000000000000000000000000000000000000000000000000000000000000000000000000000000000000000000000000000000000000000000000000000000000000000000000000000000000000000000000000000000000000000000000000000000000000000000000000000000000000000000000000000000000000000000000000000000000000000000000000000000000000000000000000000000000000000000000000000000000000000000000000000000000000000000000000000000000000000000000000000000",
      "type": "0x2",
      "transactionHash": "0x4c786c043162cf2ecefa75476ab69aa29cf66eb1ba5590476a9ac4d93e4698a3",
      "transactionIndex": "0x24",
      "blockHash": "0x55a85bd1464011dc4c191d7445f8565f0d06a4be6e63f72640181a63a6c2ee7c",
      "blockNumber": "0x68980b",
      "gasUsed": "0xb543",
      "effectiveGasPrice": "0x3262b4c27",
      "from": "0x7e8d7bfd6cc6b05d056f2e46860d95038f2e3234",
      "to": "0x68a3c5cb4c69c5fa6bf2d384f49417bde23fde9f",
      "contractAddress": null
    }
  ],
  "libraries": [],
  "pending": [],
  "returns": {},
  "timestamp": 1728626694,
  "chain": 11155111,
  "commit": "90333d4"
}